:10EE550012011001FF8055084843E05500010000EC
:10EE650000010902200001010080320904000002AE
:10EE7500FF80550007058202400000070502024099
:02EE850000008B
:03EF4200012400A7
:10EEDA008E858F84E58630E61774DA30E00675860B
:10EEEA00A6008004007586A6E5866440547FFF224A
:03EEFA007F402234
:10EEB3008E858F848C8F8D8EE58630E61774B33004
:10EEC300E00675869A0080040075869AE58664409C
:07EED300547FFF227F402263
:10EDDD008E2A8F2BE4F51DF51EE51E651C7004E5CE
:10EDED001D651B602B12EC36FF852B82852A83E473
:10EDFD00936F60037FFF22052BE52B7002052A74AC
:10EE0D000129F9E43AFA051EE51E70CD051D80C9EC
:02EE1D007F0074
:01EE1F0022D0
:08EF3200C2998F993099FD226C
:08EF3A003098FDC298AF992246
:10EEFD00E529B4020F900048EFF0E4A3F075D502B8
:0DEF0D0053D4FC2212EF32E4FF12EF322247
:10E9E200900088E0247F700302EA8C14700302EA2C
:10E9F200FB14700302EB302403600302EB3A900035
:10EA020089E0C313751000F51190008BE0FE9000B1
:10EA12008AE0FDEDFFE48F158E14F513F51275A152
:10EA22005575A1AA43B10CF50EF50FE50F651170EE
:10EA320004E50E65106051E50F25E0FDE50E33FC9F
:10EA4200748D2DF58274003CF583E0FE748C2DF5F7
:10EA52008274003CF583E0FDEDCCEECCAE14AF1534
:10EA620012EEB38F0DE5152402F515E43514F514F5
:10EA7200E43513F513E43512F512E50D706E050F4A
:10EA8200E50F70A7050E80A3806275A15575A1AA36
:10EA920043B10C90008BE0FE90008AE0FDEDFFE4B4
:10EAA2008F158E14F513F512F50EF50FE4FF7EE8BF
:10EAB200FDFCAB15AA14A913A812C312EC4F502CDB
:10EAC200AE14AF1512EEDA8F0DE42515F515E51427
:10EAD2003404F514E43513F513E43512F512E50D9B
:10EAE200700A050FE50F70C4050E80C075A155753B
:10EAF200A1AA53B1F3AF0D804190008BE0FE9000CC
:10EB02008AE0FDEDFFE48F158E14F513F5129000E7
:10EB120089E0C313751000F511AF157B017A0079F6
:10EB22008CE0751B00F51C12EDDD8F0D800C75A1BC
:0DEB32005575A1AA43B110227FFE12EEFD21
:01EB3F0022B3
:10ED6B0012EF3AEF6457706912EF3AEF64AB7061D0
:10ED7B0012EF3A900088EFF0E4FEE02EFE12EF3A2D
:10ED8B00A3EFF0FDE02EFE900088E064806004E0CD
:10ED9B00B482020D0DE4FCEC6D601F12EF3A748A25
:10EDAB002CF582E43400F583EFF0748A2CF582E4C1
:10EDBB003400F583E02EFE0C80DD12EF3AEE6F602F
:10EDCB000A7F5512EF327FAA02EF3275290112E941
:01EDDB00E255
:01EDDC002214
:10E8040020D90302E9C230DF0302E9BFE5D9543F4E
:10E81400700302E9BC24E0700302E96A14603E1448
:10E82400603024F26042242E600302E9BF20DE033C
:10E8340002E9BF85D10CAF0C7E0078887C007D0195
:10E844007B017A00790812EC1075290212E9E202C0
:10E85400E9BFE5D454FC4402F5D402E9BFE5D2543F
:10E86400FC4402F5D202E9BF85D10CE50C640860D2
:10E874000302E946900006E0F520A3E07007E520D6
:10E88400D3947F400375207FE4F50C900000E0549E
:10E8940060600302E946900001E0F51FE51F24FBD8
:10E8A400607C24FD700302E92A14700302E93C240D
:10E8B40003600302E944900003E024FE6011047045
:10E8C4001C7521FF7522EE752355750C1280117588
:10E8D40021FF7522EE752367750C208003750CFFEC
:10E8E400E520D3950C4003850C20E520C394084013
:10E8F400047F088002AF208F0C7E0078007C007DAE
:10E9040001AB21AA22A92312EC10C3E520950CF532
:10E9140020E50C2523F523E43522F52280279000F9
:10E9240002E0F520801F900000E524F0E520C39468
:10E93400014012750C01800D900002E0F524800561
:10E944008000750CFFE50CB4FF08751FFF75DCCF64
:10E954008069E50CD394085005850CDD8003E4F54B
:10E96400DD75DCC08055E51F24FB603D147044E573
:10E9740020C3940840047F088002AF208F0C7E00DF
:10E9840078007C007D01AB21AA22A92312EC10C3DC
:10E99400E520950CF520E50C2523F523E43522F537
:10E9A40022850CDD63DC408012E5E354804520F5CC
:10E9B400E38005E4F5DD800075DC02C2D92230D89D
:10E9C4001375DC0275D21075D412E4F5E3C2DAC211
:0DE9D400D9C2D82230DA03C2DA2275D8FF8A
:01E9E1002213
:10EE8700759850438780E589540F4420F58943C915
:10EE9700A0758DF3D28EC299C298E4F58043C6015E
:0CEEA70043C40843C50C75CE10C2AC2259
:10EE2000C2EAE4F5E2902447740CF0A37400F0A366
:10EE30007400F090244C7400F0A37408F075DC02A8
:10EE400075D412E4F5E375E43075E22943E4017505
:05EE5000D8FFC2EA2218
:10EF1A00EF7803C333CE33CED8F9FFEF4E60080043
:08EF2A00EF1F70F71E80F422B6
:10ECEC00E4F508F509C2AFF52943C20F75C00F1240
:10ECFC00EE8712EE200509E50970020508050BE503
:10ED0C000B7002050A30980312ED6BD3E50B941EC1
:10ED1C00E50A9400400CE4F50AF50BE5D860031203
:10ED2C00E804E50964207004E508644E7004F508F5
:10ED3C00F509E5094508700375C00FE50964107005
:10ED4C0004E5086427700375C0F77F017E0012EF9D
:0FED5C001A2090A175A15575A1AA43B1108096F8
:0300000002EC60AF
:0CEC6000787FE4F6D8FD75812B02ECA74C
:10EB4000E709F608DFFA8046E709F208DFFA803EB7
:10EB500088828C83E709F0A3DFFA8032E309F608A4
:10EB6000DFFA8078E309F208DFFA807088828C830C
:10EB7000E309F0A3DFFA806489828A83E0A3F608C0
:10EB8000DFFA805889828A83E0A3F208DFFA804C9A
:10EB900080D280FA80C680D4806980F28033801071
:10EBA00080A680EA809A80A880DA80E280CA8033DA
:10EBB00089828A83ECFAE493A3C8C582C8CCC58352
:10EBC000CCF0A3C8C582C8CCC583CCDFE9DEE78022
:10EBD0000D89828A83E493A3F608DFF9ECFAA9F0A1
:10EBE000EDFB2289828A83ECFAE0A3C8C582C8CCF7
:10EBF000C583CCF0A3C8C582C8CCC583CCDFEADE10
:10EC0000E880DB89828A83E493A3F208DFF980CC71
:10EC100088F0EF60010E4E60C388F0ED2402B4046A
:10EC20000050B9F582EB2402B4040050AF23234511
:06EC3000822390EB9073BB
:10EC3600BB010689828A83E0225002E722BBFE02DC
:09EC4600E32289828A83E493220F
:10EC4F00EB9FF5F0EA9E42F0E99D42F0E89C45F01B
:01EC5F002292
:10EC6C0002ECECE493A3F8E493A34003F68001F2E6
:10EC7C0008DFF48029E493A3F85407240CC8C333A9
:10EC8C00C4540F4420C8834004F456800146F6DF78
:10EC9C00E4800B010204081020408090EF42E47ED7
:10ECAC00019360BCA3FF543F30E509541FFEE4936D
:10ECBC00A360010ECF54C025E060A840B8E493A334
:10ECCC00FAE493A3F8E493A3C8C582C8CAC583CA5F
:10ECDC00F0A3C8C582C8CAC583CADFE9DEE780BE17
:01EF450000CB
:00000001FF
