:10006000EF7803C333CE33CED8F9FFEF4E600800EC
:08007000EF1F70F71E80F4225F
:10000300E4F50BF50CF5C243C20F75C00AF508758C
:1000130009E8F50A20931775C00F75C0FD7F607E50
:10002300EA12006075C00FAA09A90A120084050C20
:10003300E50C7002050B64C8450B7004F50BF50C59
:10004300E50C450B700375C00FE50C6464450B703C
:0D0053000375C0FB7FE87E0312006080B7DC
:0300000002007883
:0C007800787FE4F6D8FD75810C020003CF
:060084008A838982E47307
:00000001FF
