:102A4E004572726F723A20253032580A002F434F6A
:102A5E004D4D414E442E545854004D6973732046CB
:102A6E00696C652C506C6561736520436865636B9A
:102A7E00207468652066696C65206E616D652E2E0A
:102A8E002E0A002530325820200A002530325820D8
:102A9E0020005374617274204C454420636F6E7431
:102AAE006F6C2E2E2E2E0A005265616420436F6DC0
:102ABE006D616E642046696C652E2E2E2E0A0046C0
:102ACE00696E6973682052656164696E6720466934
:102ADE006C650A00555F4469736B206E6F742072CB
:102AEE006561647920455252203D253032580A00E6
:102AFE00555F4469736B20496E6974204661696C39
:102B0E0065642C506C6561736520726574727920F2
:102B1E00616761696E0A0080060001000012008084
:102B2E000600020000040000050200000000000084
:0F2B3E000900000000000002010000000000007C
:0A3E000075A15575A1AA75A1FF2256
:043D3F007FC87E00BB
:0E3D4300EF4E600905A1EF1F70F61E80F322FF
:1037E900AD07AC06ED4C600E7FE87E03123D43ED5C
:0737F9001D70F11C80EE229F
:0D3DC30043C60143C40843C50C43CE102283
:10311D00C29FD29EC29DC2CDC2CC43878090084F24
:10312D001218E100000082E47B0AFAF9F890084FCA
:10313D00E0FCA3E0FDA3E0FEA3E0FF12178B9008D7
:10314D0053EBF090084FE0FCA3E0FDA3E0FEA3E0FD
:10315D00FFE47B0AFAF9F812178B90084F1218BC8E
:10316D00900853E0C39405401F90084FE0FCA3E086
:10317D00FDA3E0FEA3E02401FFE43EFEE43DFDE4FB
:10318D003CFC90084F1218BCE589540F4420F5897A
:10319D0043C9A090084FA3A3A3E0F404F58DD28EEC
:0431AD00D299D29C45
:0131B10022FB
:0827F8003098FDC298AF992250
:083E27008F993099FDD2992218
:0B2F3D00900853EFF0A3ECF0A3EDF0C0
:102F4800E4A3F0900048E4F0E51224F8FF90085359
:102F5800E0FEC8EFC8088002C333D8FC900049F0EF
:102F6800A3E4F0A3F0A37480F090082EE090004D45
:102F7800F0A3740AF0A37428F0A3E4F090080DE01D
:102F8800900051F090080EE0900052F090080FE089
:102F9800900053F0900810E0900054F0A3E4F0A3E0
:102FA800F0A3EEF0A3E4F0900854E0FEA3E0FF12D3
:102FB8002007E50D7002FF22900856E0FF12390540
:102FC8008F0DE50D6003AF0D22900856E004F0E088
:0D2FD800C394035003022F4B750D1F7F1F84
:012FE50022C9
:0B274A00900853EFF0A3ECF0A3EDF0BB
:10275500E4A3F0900048E4F0E51224F8FF90085354
:10276500E0FEC8EFC8088002C333D8FC900049F0EA
:10277500A3E4F0A3F0A3F090082EE090004DF0A3A1
:10278500740AF0A3742AF0A3E4F090080DE0900019
:1027950051F090080EE0900052F090080FE0900084
:1027A50053F0900810E0900054F0A3E4F0A3F0A3D8
:1027B500EEF0A3E4F0900854E0FEA3E0FF1220073A
:1027C500E50D70097FC8FE123D437F002290085633
:1027D500E0FF1239058F0DE50D6003AF0D2290085E
:1027E50056E004F0E0C394035003022758750D1F0B
:0227F5007F1F44
:0127F70022BF
:1039E10053E37FE5E364026006E5E364037028E5E1
:1039F100E3B40204AFE48002AFE5EF30E0037F00FF
:103A010022E5E3B402047F0880027F80E5DB5F608A
:0C3A110006750A027F0022750A017F166C
:013A1D002286
:0107FF0022D7
:103A8D00123E43EFC3941250037FFF227E007F80CE
:103A9D008E0B8F0C900806EEF0A3EFF0E4F50A758F
:103AAD0012099008007402F09008331218E100001A
:053ABD0000007F002263
:073E2F00750A01E4F5E4222D
:103AF600E4FFE5DB30E315E50A64016005E5E42053
:103B0600E019123E2F750A027F15800FE50AC3944D
:0B3B1600024008123E2FEF70027F16E5
:013B21002281
:0C3DDD00EF547FFFE5E354804FF5E32234
:103B4E009008837408F0E4FF123DDDE5E454FB4475
:103B5E0002F5E47F0F7E001237E953E4FD7FFA7E13
:073B6E0000123D43C2D82202
:103CCE00E50AC394025003750A02E5DB30E30643AE
:083CDE00E4017F00227F1622A1
:103C9A007FC87E0020D909EF1F70011EEF4E70F415
:093CAA0030D9047F0080027FFE86
:013CB30022EE
:03074300C9EFC932
:10074600CFEDCF8FD68FD4E4F5DD89D5C2D97FC85A
:100756007E0020D909EF1F70011EEF4E70F4E4F5FC
:10076600D520D9037FFE2230D81EC2D8123AF6EF22
:10077600B41502D20DE50AB401037F1622E50AB4C8
:1007860002037F1522123D3F30D95430DE037F002D
:1007960022E5D9540FFFB40E028030EFB40A19EBEC
:1007A6004A7003EF8032C3EB94FFEA94FF5005EBE7
:1007B6001B70011A15DD802AE9C4540F24F7600D59
:1007C60024FC6004240C7014EF6017800BEFB40354
:1007D60004640B600DEF600A4420FF227FFE227541
:1007E600D8FF7F0F7E00123D4305DDAFDDEFC394DA
:0807F6000350030207507F20AD
:0107FE0022D8
:06247400EBF0E4FDFFFEA9
:10247A00900858EEF0A3EFF0A3EDF0123D3FE060B4
:10248A0003F8E4F675D7087B107A27E4FD7FD012AB
:10249A000743CBEFCBEB60012275D6D075D4D0754C
:1024AA00D701900047E060047FFF8005900046E076
:1024BA00FF900857EFF070030225D0A3E0FEA3E0D7
:1024CA004E70030225D0900040E020E70302255A0F
:1024DA00900857E06075123D3F7B107A27ADD47F94
:1024EA0090120743CBEFCBEB600122900857E0FF35
:1024FA00E5D1C39F5007AED1CFEECF8000900857E9
:10250A00E0C39FF090085AE06004F8EF26F6E4FE74
:10251A00EE6F602A74002EF582E43400F583E0FD44
:10252A00900858E0F8A3E0F5828883EDF090085906
:10253A00E004F07006900858E004F00E80D2E5D16D
:10254A006009900883E01455D16085E4F5D7807658
:10255A00900857E06070123D3F900883E0FF9008B2
:10256A0057E0FEC39F40028003CFEECF8FD7E4FF30
:10257A00EF65D7602A900858E0FCA3E0F5828C83C7
:10258A00E0FE74402FF582E43400F583EEF0900803
:10259A0059E004F07006900858E004F00F80D17BEF
:1025AA00107A27ADD67F10120743CBEFCBEB600131
:1025BA0022900857E0C395D7F090085AE06091F846
:1025CA00E5D726F6808A123D3FE5D760047F9080E2
:1025DA00027F107B107A277DC0120743CBEFCBEB2B
:1025EA00600122E5D77002FF22E5D17002FF227F47
:0125FA0017C9
:0125FB0022BD
:103C0500E4FD8F828E83E493FC74402DF582E434C9
:0F3C150000F583ECF00FBF00010E0DEDB408E3D6
:013C2400227D
:103AC2009008837408F07E2B7F25123C057E007FD0
:103AD200407D1312247AEF600122900047E09008A3
:103AE20083F0902B2BE493FFE513C39F50037F17C2
:033AF200227F0030
:013AF50022AE
:1035B5007E2B7F2D123C057E007F407D1312247AE1
:1035C500EF600122902B33E493FEE513C39E500375
:1035D5007F1722900042E0F513E513D39440400392
:1035E5007F17227E2B7F2D123C05900046E513F0B8
:1035F5007E007F407D1312247AEF600122902B33E9
:10360500E493FFE513C39F400A900042E0FFE513F2
:083615009F50037F17227F0084
:01361D00228A
:053B2200900852EFF0D5
:103B27007E2B7F35123C05900852E090004212240C
:103B370075EF600122900852E0FF123DDD7F0A7E9B
:063B4700001237E97F00C7
:013B4D002255
:103D5100CBEFCB7E2B7F3D123C05900042122474A9
:013D6100223F
:103D6200CBEFCB7E2B7F45123C059000441224748E
:013D7200222E
:1036DB00E4F9FC8F828E83A3A3E0FBECC39B5047E2
:1036EB00EF2CF582E43EF583A3E064057025EF2C07
:1036FB00F582E43EF583A3A3A3E05403FBBB0313C2
:10370B00EF2CF582E43EF583A3A3E030E705540FDD
:10371B00F98014EF2CF582E43EF583E0FDD3941091
:0A372B005005ED2CFC80ACCFE9CF77
:013735002271
:102DDC00123B4EE490084FF0FB7F017E001237E966
:102DEC00123CCEEF700B90084FF00BEBD394645069
:102DFC000C90084FE004F0E0C3946440DC90084F62
:102E0C00E06006123E2F7F1622123AC2CBEFCBEBBC
:102E1C00706E90084FF0902B2BE493FF90084FE0CE
:102E2C00C39F5005E004F080ED900044E090085101
:102E3C00F0902B37E493FF123B22CBEFCBEB70409F
:102E4C001235B5CBEFCBEB7037900045E0900850C6
:102E5C00F0E490084FF0900042E0FF90084FE0C380
:102E6C009F5005E004F080EE90004EE0FF9008517A
:102E7C00E0700AEFB40806750A047F00227FFB227B
:062E8C00750A02CFEBCF36
:012E9200221D
:103A5600C2EA75E280E4F5E39024477448F09024C6
:103A66004C7400F0A37400F090244E7400F0A3741C
:103A760040F0E4F5D4F5D675E28975D24075D8FFE5
:073A8600123E2F75E103223F
:053C7E0090084FEFF07B
:103C8300EF60137BFF7A2A794E900856E4F0A3EF96
:073C9300F0120D0680FE2275
:103D840053FC7775FA6043BAB453BABF75FB022289
:063E3D008FF930FBFD22AD
:093E1E0075F9FF30FBFDAFF9223C
:103CE600E490085EF0C29475F90530FBFD75F9FFA6
:073CF60030FBFDD294AFF991
:013CFD0022A4
:0D3DD000123CE6EF30E005123CE680F422E4
:103D2C00CEEFCEC2947F01123E3DCFEECF123E3D80
:033D3C00D29422FC
:0A3E0A00C2947F06123E3DD29422BE
:0A3DF500123CE6EF20E103123E0A43
:013DFF0022A1
:0F3DB400123DF5C2947F60123E3DD294023DD085
:1033D3009008531218BC900857EBF0A3EAF0A3E946
:0133E300F0F9
:1033E400C29475F90330FBFD900853A3E0FDA3E0FC
:1033F400FEA3E0FFE4FC781012183C8FF930FBFDCB
:10340400900853A3A3E0FEA3E0FFE4FDFC780812B8
:10341400183C8FF930FBFD900853A3A3A3E0FF8F62
:10342400F930FBFDE4FF75F9FF30FBFD900857E030
:10343400FBA3E0FAA3E0F98F82758300E5F9121784
:083444002D0FEFB480E0D294DB
:01344C00225D
:103858009008591218BC123E0AC2947F02123E3DCB
:10386800900859A3E0FDA3E0FEA3E0FFE4FC781074
:1038780012183C123E3D900859A3A3E0FEA3E0FFB6
:10388800E4FDFC780812183C123E3D900859E0FC13
:10389800A3E0FDA3E0FEA3E0FF123E3DA3E0FF127C
:0738A8003E3DD294023DD029
:0E361E00900853EEF0A3EFF0A3ECF0A3EDF054
:10362C00E4A3F0A3F0900853E0FEA3E0FFC39008DE
:10363C0058E09F900857E09E5036E0FAA3E0FB90CC
:10364C000856E02BFF900855E03AFEE4FCFD7400B0
:10365C002BF58274043AF583E090085DF01238582B
:10366C00900858E004F070BD900857E004F080B565
:01367C00222B
:103CB40075BCFF75BEFF43C6C0D2A4C2A5902881BF
:0A3CC4007409F09028837406F022C2
:102FE600EFB410004003023081902FF6F8282873C2
:102FF60002302602302A02302E02303202303602E9
:10300600303A02303E02304202304602304C023044
:103016005202305802305E02306702307002307958
:10302600C2A3801EC2A38020C2A38022C2A3802482
:10303600C2A38026C2A3802BC2A38030C2A3803540
:10304600D2A3C2A28016D2A3C2A28019D2A3C2A2C0
:10305600801CD2A3C2A2801FD2A3D2A2C2A1C2A0A8
:1030660022D2A3D2A2C2A1D2A022D2A3D2A2D2A1FC
:0C307600C2A022D2A3D2A2D2A1D2A022DA
:1025FC00123E0AE4FF123D2C123DB478227C007D81
:10260C00007BFF7A2A795B1219DE12080090084FC2
:10261C00EFF064B36004E0B4420C7BFF7A2A796873
:10262C00120D0602273B78221218C80000025A121B
:10263C001F91123C7EE4900850F0782276040876C4
:10264C0000087404F6087400F6121D26123C7E7BFA
:10265C00FF7A2A7991900850E0FF900856E4F0A395
:10266C00EFF0120D06E4900851F0A3F0900851E041
:10267C00FEA3E0FFC3EE9404502D7BFF7A2A7999D8
:10268C0074002FF58274043EF583E0FF900856E445
:10269C00F0A3EFF0120D06900852E004F0700690D3
:1026AC000851E004F080C5900850E07D0025E0253D
:1026BC00E0FC7F007E0412361E900850E004F0E02F
:1026CC00C394025003022646E47822F608F60874F6
:1026DC0004F6087400F6121D26123C7EE490085194
:1026EC00F0A3F0900851E0FEA3E0FFC3EE9400507D
:1026FC002D7BFF7A2A799974002FF58274043EF5AC
:10270C0083E0FF900856E4F0A3EFF0120D0690085A
:10271C0052E004F07006900851E004F080C5900877
:10272C0050E07D0025E025E0FCE4FFFE12361EE4BF
:0E273C007822F612353F90084FEFF0023C83F2
:05324300900850EFF0BF
:103248009008527440F0E4900851F0EF90288420E0
:10325800E02F7404F0A37400F0900852E0902886E0
:10326800F0902881E04410F0900850E004540F7565
:10327800F080A4FFAEF0E4FCFD7B017A00790080C9
:103288002D7400F0A37400F0900852E0902886F0A6
:10329800902881E04410F0900850E004540F75F035
:1032A80080A4FFAEF0E4FCFD7B017A0479001233C0
:1032B800D3902882E070FA902880E030E6F39028D6
:0532C80081E054EFF06D
:0132CD0022DE
:103A1E00E490084FF0D2A57F027E00123D43C2A56E
:103A2E0090084FE0FF123243C2A490084FE0FF12FD
:103A3E002FE67FF47E01123D43D2A490084FE0049E
:073A4E00F0E0C3941040CE2C
:013A5500224E
:102D18007F1E7E001237E912311D7BFF7A2A79A0C7
:102D2800120D06123A56123CB4123D84123A8DC264
:102D38000DC2D87B017A0479007F007E007D007C7B
:102D4800001233D320D803022DD6C2D8123AF690F7
:102D5800084DEFF0BF1502D20D200D0890084DE088
:102D68006415706AC20D7FC87E001237E9122DDC27
:102D780090084DEFF0704E750A04A3F012367D905E
:102D8800084DEFF060117F327E001237E990084E4F
:102D9800E004F0E0B40AE5E50AC394057BFF4012BD
:102DA8007A2A79B6120D061225FC7BFF7A2A79CD8C
:102DB80080197A2A79E290084DE0FF900856E4F0ED
:102DC800A3EFF080067BFF7A2A79FE120D06123AED
:042DD8001E022D4C5E
:103D940021FF000000000000A1FE0000000001005F
:0631B20090080D1218BC8C
:1031B800900825E0FF900810E06F7024900822E046
:1031C800FF90080DE06F7018900823E0FF90080E3C
:1031D800E06F700C900824E0FF90080FE06F6058D3
:1031E80090080DE0FCA3E0FDA3E0FEA3E0FF90083B
:1031F800221218BC900806E0FEA3E0FBCAEECA65DE
:103208000C7003EA650B701490080DE0FCA3E0FD58
:10321800A3E0FEA3E0FF9008261218BCCEEACECFAA
:10322800EBCFCDEFCDCCEECC7F01122F3D8F0DEF44
:0B3238006003123D15AF0D227F002245
:10308200900840E0FCA3E0FDA3E0FEA3E0FF90086F
:043092000D1218BC47
:10309600900829E0FF900810E06F7024900826E061
:1030A600FF90080DE06F7018900827E0FF90080E5B
:1030B600E06F700C900828E0FF90080FE06F6054F6
:1030C60090080DE0FCA3E0FDA3E0FEA3E0FF90085E
:1030D600261218BCAB0CAA0B900806E06A7003A374
:1030E600E06B701490080DE0FCA3E0FDA3E0FEA3E6
:1030F600E0FF9008221218BCCEEACECFEBCFCDEF80
:10310600CDCCEECC7F01122F3D8F0DEF6003123D2B
:0731160015AF0D227F00221E
:1037910090080DE0FCA3E0FDA3E0FEA3E0FF90088C
:1037A100221218BC900806E0FEA3E0FBCAEECA652F
:1037B1000C7003EA650B701490080DE0FCA3E0FDAA
:1037C100A3E0FEA3E0FF9008261218BCCEEACECFFC
:1037D100EBCFCDEFCDCCEECC7F0112274A8F0DEF91
:0837E1006003123D15AF0D223B
:103353008F118E108D0F8C0EE509241AF582E4353A
:1033630008F583E50EF0A3E50FF0E5092414F582D3
:0C337300E43508F583E510F0A3E511F047
:10337F0090080DE0FCA3E0FDA3E0FEA3E0FF9008A2
:10338F00261218BCAB0CAA0B900806E06A7003A3B8
:10339F00E06B701490080DE0FCA3E0FDA3E0FEA32A
:1033AF00E0FF9008221218BCCEEACECFEBCFCDEFC4
:1033BF00CDCCEECC7F0112274A8F0DEF6003123D6B
:0433CF0015AF0D2207
:1013AD00900811E0FCA3E0FDA3E0FEA3E0FF900890
:0613BD00021218BCE4FF5F
:1013C3008FD3900839E0FBB40212900802E0FCA32B
:1013D300E0FDA3E0FEA3E0FF78018014EBB4031566
:1013E300900802E0FCA3E0FDA3E0FEA3E0FF780287
:1013F30012184F803EC200900805E030E002D20090
:10140300900802E0F8A3E0F9A3E0FAA3E0FBE8C048
:10141300E0900802E0FCA3E0FDA3E0FEA3E0FF7878
:101423000112183CD0E0F8EB2FFFEA3EFEE93DFD48
:10143300E83CFC9008021218BC900800E024FFFF6F
:10144300EFFE900804E0FCA3E0FDEE5CFEEDFF90F0
:101453000807E02FF509900806E03EF5089008021A
:10146300E0FCA3E0FDA3E0FEA3E0123C4490083AB5
:10147300E0F8A3E0F9A3E0FAA3E02FFFEA3EFEE9D8
:101483003DFDE83CFC9008021218BC900825E0FFE3
:10149300900805E06F7024900822E0FF900802E0B6
:1014A3006F7018900823E0FF900803E06F700C90B2
:1014B3000824E0FF900804E06F601F300B07122E32
:1014C30093EF600122900802E0FCA3E0FDA3E0FE9D
:1014D300A3E0FF1231B2EF600122E5D36044E5D30C
:1014E300B4040C9008021218E1FFFFFFFF8031E5FE
:1014F300D3B4010C9008021218E100000000802010
:1015030090082DE0900802F090082CE0900803F07A
:1015130090082BE0900804F090082AE0900805F06A
:10152300D20BC20C900839E0FB6402704685098235
:10153300850883E0F50FA3E0F510850F11E4F50EA0
:10154300F50FC3E51194F7E51094FF4002D20CE5C3
:10155300D36014900802E0FFA3E085098285088325
:10156300CFF0A3EFF0E12A300C02E12AAE10AF1165
:10157300E4E122EB64037071AF09AE08123DA48F5E
:10158300118E108D0F8C0EE50E54F0FF900805E0C0
:10159300540F4FF0530E0FE50ED3940F5016E50E74
:1015A300B40F13E50FB4FF0EE510B4FF09E511C343
:1015B30094F74002D20CE5D36016900802E0FCA336
:1015C300E0FDA3E0FEA3E0FF850982850883E12710
:1015D300300C02E12A90082AE50EF0A3E50FF0A3F0
:1015E300E510F0A3E511F0E12A850982850883E07F
:1015F300F511900802E0FFC454F0FEE511540F4EBC
:10160300F50EA3E0C454F0FEEFC4540F4EF50F9053
:101613000800E024FFFFEFFE900807E024FFFF909F
:101623000806E03EFEEF65097003EE65086043853A
:101633000982850883A3E0F510E5D37002C1EB307E
:10164300000F850982850883E50EF0A3E50FF0C13D
:10165300EB900802E0850982850883F0900803E097
:10166300540FFFE51054F04F850982850883A3F0DA
:101673008076E5D36014300004AF0E800590080235
:10168300E0FF850982850883EFF0A20BE43345D39D
:101693006007122E93EF600122900822E0FCA3E082
:1016A300FDA3E0FEA3E02401FFE43EFEE43DFDE4F0
:1016B3003CFC1231B2EF600122900806E0FEA3E089
:1016C300FFF5828E83E0F510E5D3601C300004AD96
:1016D3000F800D900803E0540FFDE51054F04DFD0D
:1016E3008F828E83EDF0D20BE4F50EF50F300014EC
:1016F300E510C4F854F0C868F510E511C4540F4858
:10170300F511800353100FC3E51194F7E510940FFF
:101713004002D20CE5D3700F200C0CAE10AF11FCBD
:0A172300FD90082A1218BC7F002276
:10225200900808E0FCA3E0FDA3E0FEA3E0FF9008E5
:102262002AE0F8A3E0F9A3E0FAA3E0FBD312182BCB
:1022720040037FB12290082AE0FCA3E0FDA3E0FE28
:10228200A3E02401FFE43EFEE43DFDE43CFC9008B3
:102292007B1218BC1213BBCBEFCB90087BE0FCA3E4
:1022A200E0FDA3E0FEA3E0FF90082A1218BCEB6059
:1022B20002FF22E511700AE50E450F4510700281FA
:1022C2005A90080AE0FF90087DE06F701A900808A3
:1022D200E0FF90087BE06F700E900809E0FF900825
:1022E2007CE06F70024152900839E0FF6401700295
:1022F2004152900806E0FCA3E08C08F509EF640265
:10230200703E900800E075F080A424FFFFE5F034F1
:10231200FFF50E8F0FF5108F1174022509F509E4F0
:102322003508F508850982F583E07004A3E060773B
:10233200E50F150F7002150E14AE0E4E70DB8136CE
:10234200900800E075F040A424FFFFE5F034FFF5AB
:102352000E8F0FF5108F1174042509F509E4350865
:10236200F508850982F583E060028126A3E0600218
:102372008126850982850883A3A3E06002812685E0
:102382000982850883A3A3A3E0540F6002812685F6
:102392000982850883A3A374FFF0850982850883D7
:1023A200A3A3A3E0440FF085098285088374FFF09C
:1023B200A3F0AE10AF1190082AE0F8A3E0F9A3E071
:1023C200FAA3E04FFFEA4EFEE9FDE8FCEEC0E0EFC3
:1023D200C0E0E50F24FFFFE50E34FFCBEFCBFAD0D0
:1023E200E0FFD0E0FEC3EF9BFFEE9AFEED9400FD0E
:1023F200EC9400FC90082A1218BC900808E0FCA398
:10240200E0FDA3E0FEA3E0FF90082AE0F8A3E0F9D4
:10241200A3E0FAA3E0FBD312182B40037FB122D230
:102422000B7F0022E50F150F7002150E14AE0E4E33
:102432006002615990082AE0F8A3E0F9A3E0FAA348
:10244200E0FBAE10AF11EB4FFFEA4EFEE9FDE8FCF8
:1024520090082A1218BC415290087BE0FCA3E0FDD0
:10246200A3E0FEA3E0FF9008021218BC7F0412133F
:02247200C32283
:103CFE00122252EF64B160012290082A1218E100DC
:073D0E000000001222522206
:10080000E50AC394105007120003EF600122123B67
:10081000C1EF600122C2097822E6FF7002FF22EFD9
:10082000645C6004EFB42F089008447423F08017D0
:100830007823E6643A600201FBEFC394435002015F
:10084000FB9008447425F0900839E0FBB403109045
:100850000845E0FCA3E0FDA3E0FEA3E0FF8005E483
:10086000FFFEFDFC9008111218BC900844E0F8E669
:100870006002210190082F1218E1FFFFFFFFEB64D7
:1008800003604F9008147402F0900848E09008014B
:10089000F090081AE0FCA3E0FDA3E0FEA3E0FFEF68
:1008A000C0E0900801E0FBD0E0FFC3EF9BFFEE94B7
:1008B00000FEED9400FDEC9400FC90081A1218BCA8
:1008C000900801E0FFE4FCFDFE123C6190082F124D
:1008D00018BC900811E0FCA3E0FDA3E0FEA3E0FF3C
:1008E00090082A1218BC9008491218E10000000074
:1008F000E4900815F0750A127F4122900844742292
:10090000F0900811E0700CA3E07008A3E07004A35D
:10091000E06046900801E0900815F0900811E0FCB6
:10092000A3E0FDA3E0FEA3E024FEFFEE34FFFEED16
:1009300034FFFDEC34FFFC90080CE0F9F812184F7E
:1009400090081AE0F8A3E0F9A3E0FAA3E02FFFEA89
:100950003EFEE93DFDE83C8024900848E090081503
:10096000F0FB90081AE0FCA3E0FDA3E0FEA3E0C3C7
:100970009BFFEE9400FEED9400FDEC9400FC9008CB
:10098000401218BC900815E070028148123082EFC6
:10099000600122E4900818F0A3F0900800E0FE90B7
:1009A0000818E0FCA3E0FDC39400EC9E4002812106
:1009B000ED250CF509EC350BF508850982F583E08A
:1009C000FF70028178EF64E570028111EFB40502D7
:1009D0007FE5900844E0F8E6FE6F6007EE642A6069
:1009E000028111EF6E70047F0180027F008F10AFD3
:1009F00010EFC3940B5059AE10900844E02EF8E667
:100A0000FEE5092FF582E43508F583E0FD6E603BD5
:100A1000EE6009645C6005EE642F701FED64207069
:100A20002FEFC394085010E5092408F582E4350837
:100A3000F583E0642070197F0B8015EEB42E11E56C
:100A40001064086004EDB420077F070F051080A133
:100A5000AE10900844E02EF8E6F511EFC3940B5069
:100A6000026151E509240BF582E43508F583E03095
:100A7000E3026151C20CE509241AFFE43508FE12B5
:100A80003E14E4FCFD9008111218BC900839E0B443
:100A90000314E5092414FFE43508FE123E149008FF
:100AA00011EEF0A3EFF0E5116005200C0261459016
:100AB0000811E0FCA3E0FDA3E0FEA3E0FF90082AFC
:100AC0001218BC9008491218E100000000E49008D8
:100AD00015F0E509240BF582E43508F583E030E4F0
:100AE0001E90082F1218E1FFFFFFFF7D137F1012E9
:100AF0003BC5EF600122300C037F43227F4122E59A
:100B000009241CFFE43508FE123DA490082F12189A
:100B1000BC900811E0701AA3E07016A3E07012A355
:100B2000E0700EA374FFF090082F1218E10000008F
:100B3000007D147F10123BC5EF600122300C037F53
:100B400043227F0022E51004FF900844E02FF021AB
:100B500001E511642A60028111E509240BF582E4A4
:100B60003508F583E030E3028111E5A164596003A3
:100B70007F112290082FE0FCA3E0FDA3E0FEA3E09C
:100B8000FFEC4D4E4F602E90082FE030E703120728
:100B9000FF90082FE0FCA3E0FDA3E0FEA3E024FF0C
:100BA000FFEE34FFFEED34FFFDEC34FFFC90082F28
:100BB0001218BC805CE4FFF50EE5092FF582E435E0
:100BC00008F583E064206036EFB4080CAE0E9008A0
:100BD00044E02EF8762E050EE5092FF582E435085F
:100BE000F583E0FEAD0E900844E0FC2DF8EEF6E54E
:100BF0000E7009C8ECC8E6B4050276E5050E0FEFE5
:100C0000B40BB6AF0E900844E02FF8E4F6D20C41D6
:100C100076900819E02420F0900818E03400F021C4
:100C20009A900840E0FCA3E0FDA3E0FEA3E02401CD
:100C3000FFE43EFEE43DFDE43CFC9008401218BC9D
:100C4000900815E014F02184900811E0700CA3E0E6
:100C50007008A3E07004A3E0601E1213ADEF600102
:100C600022200C14900811E50EF0A3E50FF0A3E587
:100C700010F0A3E511F02101E4FF900844E0CEEF6D
:100C8000CE0F2EF8E6FE6010642A600CEE645C6005
:0B0C900004EEB42FE57FB3227F422268
:1038000090082AE0FCA3E0FDA3E0FEA3E024FEFF75
:10381000EE34FFFEED34FFFDEC34FFFC90080CE0CD
:10382000F9F812184F90081AE0F8A3E0F9A3E0FAAB
:10383000A3E02FFBEA3EFAE93DF9E83CF8900815D1
:10384000E0FFE4FCFDFEEB2FFFEE3AFEED39FDEC70
:0838500038FC90080D0218BCC1
:102B4D00900811E0700EA3E0700AA3E07006A3E0F8
:102B5D007002812E7826121862123C44EFC0E0906C
:102B6D000815E0FBD0E0FFC3EF9BF511EE9400F5E7
:102B7D0010ED9400F50FEC9400F50EAF11AE10AD05
:102B8D000FAC0E782212186EC312182B4017782234
:102B9D00121862C3EF9511FFEE9510FEED950FFD26
:102BAD00EC950E8054900811E0FCA3E0FDA3E0FE2F
:102BBD00A3E0FF90082A1218BC900801E0FFE4FC86
:102BCD00FDFE782212186EC312182B403490082A7D
:102BDD001213B0EF600122200C477822121862EF19
:102BED00C0E0900801E0FBD0E0FFC3EF9BFFEE9447
:102BFD0000FEED9400FDEC9400FC78221218B080DC
:102C0D00B87825E6900815F012380090080DE0FC14
:102C1D00A3E0FDA3E0FEA3E0FF78221218B07F0031
:102C2D002290081574FFF078221218C8FFFFFFFFDD
:032C3D007F0022F3
:033E43007F1222C9
:103D15009008261218E1FFFFFFFF9008221218E114
:073D2500FFFFFFFFC20B22AC
:043BC1007D107F10E4
:103BC500AE0AEEC39F4005CEEDCE8D0AEE6D7002B6
:0F3BD500FF22750A011239E1EF6001227F83227E
:103B9C00AB0DEBB41611750A019008331218E10045
:103BAC00000000CFEBCF22EBB41507750A02CFEB68
:053BBC00CF227F002272
:103736007F027E001237E990083FE50DF01239E16D
:10374600EF600122E50AC3940450037F83227E3D85
:103756007F94123C0590083EE0900044F0E4FDFFA3
:10376600FE12247A8F0DEFB4160122900838E05429
:103776000FFF123D62900837E0540F4480FF123D60
:0B3786006290083FE0FFF50DE4F02228
:1039A200900048EDF0A3E4F0A3F0A3F0ED60047EF4
:1039B2008080027E0090004CEEF090082EE0900095
:1039C2004DF0A37406F0A3EFF0A3E4F0A3F0A3F08C
:0F39D200A3EDF0A3E4F0A3F0A3F0A3F0A3F02281
:072000001239A27E007F628D
:102007008E158F169000407455F0A37453F0A37487
:1020170042F0A304F075D71F900838E0FF90083FFF
:10202700E0FD7BE87AFD1207438F0DEFB41601221E
:10203700EF60397E007F627C007D407B1B7A001257
:102047003BE41237367E007F407C007D627B1B7A43
:1020570000123BE4900838E0FF90083FE0FD7BE882
:102067007AFD1207438F0DEF6002414C90083FE065
:102077006440F0900048E0FDA3E0FF4D700241117D
:10208700EFF513EDF51490004CE020E702215BD249
:1020970001E51445137002214FE5137007E514C3DA
:1020A7009440400C90244CE515F0A3E516F0800C05
:1020B700C20190244C7400F0A37400F0900837E03C
:1020C700FF90083FE0FD7BE87AFD1207438F0DEF95
:1020D700601E90244C7400F0A37400F0EF642E602F
:1020E7000122900837E0540F4480FF123D62805868
:1020F70090083FE06480F030011FE5D164407048EC
:1021070074C02514F51474FF3513F51374402516A0
:10211700F516E43515F5150198AFD1AE14EEC39F4A
:102127005003CFEECFE4FEEE6F601D74002EF582F4
:10213700E43400F583E0851682851583F00516E5FE
:1021470016700205150E80DF90244C7400F0A374FE
:1021570000F04111E514451370024107E5137008BB
:10216700AF14EFC39440402690244EE515F0A3E545
:1021770016F074C02514F51474FF3513F513744065
:102187002516F516E43515F51575D74080379024D3
:102197004E7400F0A37440F08FD7E4FFE5146F602E
:1021A7001F851682851583E0FE74402FF582E4347F
:1021B70000F583EEF00516E516700205150F80DCB5
:1021C700E4F513F514900838E0FF90083FE0FD7B35
:1021D700E87AFD1207438F0DEF601C90244E7400C0
:1021E700F0A37440F0EF642E600122900838E054A9
:1021F7000FFF123D62800990083FE06440F0215BC9
:1022070090244E7400F0A37440F0900837E0FF90DC
:10221700083FE0FD7BE87AFD1207438F0DEF600171
:102227002290083FE06480F0750D1FE5D1640D60D2
:1022370003AF0D2290000CE0FE7004F50DFF22EEB7
:0B224700C394024003023736AF0D22A3
:103C25007F0A7E001237E97D127F031220007F058F
:0F3C35007E001237E9E50D7002FF22123B9C2240
:1032CE00751209750E0F7D087F251239A290004EDA
:1032DE00740AF0900053E4F0122003AF0DEF70204B
:1032EE00900068E0FEB4040575120A8040EEB40842
:1032FE000575120B8037EE6410703275120C802D2E
:10330E00EF64166028EF64156023EF6413601E8F60
:10331E000F123C25850F0DE50E7E0030E3047F4035
:10332E0080027FC81237E9150EE50E7099E512245A
:10333E00F8FF7401C8EFC8088002C333D8FC9008A8
:05334E0000F0AF0F22AA
:102800001239E1EF600122E50AC3940450037F838B
:1028100022750A041235B58F0DEF60012290004E2B
:10282000E06408705FC20AA3E0B40602D20A900016
:102830004BE090083EF0E4F50EE50E600790005B7B
:10284000E0FF8005900054E0FF8F0FE50E600790D9
:10285000005DE0FF8005900056E0FFEF64407024CB
:10286000E50F30E70CE50F540F4490900837F080E7
:102870000AE50F540F4410900838F0050EE50EB429
:1028800002B78006750D1FAF0D22900045E0FF12C4
:102890003D518F0DEF600122E4F50E7E3D7F9C12CD
:1028A0003C0590083EE0900044F07D0FAF0CAE0B6D
:1028B00012247A8F0DEF7010E50FB4011A850C8287
:1028C000850B83E0F50E800FE50DB42E07E4FF12B3
:1028D0003D628003AF0D227F057E001237E9123D75
:1028E00015E490083FF090082EF07D247F121239F5
:1028F000A2AF0CAE0B122007E50D7023E50E601899
:1029000090082EE07012850C82850B83E0B40508D8
:1029100090082E7401F080D27D057F04023BC5E54E
:102920000E600E90082EE0C394035005E004F08082
:0C293000B9E490082EF07F011239052256
:10367D0078221218C8000000001239E1EF60012213
:10368D00E50AC394055030122800EF600E7F407E8E
:10369D00001237E9122800EF6001221232CEEF60DE
:1036AD0003AF0D22900062E0FCA3E0FDA3E0FEA3BA
:1036BD00E0FF78221218B0E4FDFF122000E50D7036
:0E36CD0002FF22850D0E123C25AF0E8F0D223E
:10390500E4FDFCE4F5A10DBD00010CBC01F5BDF421
:10391500F2EFC394024014AE0AEEB41205750A051F
:103925008009EED394104003750A10AE0DEF6014B4
:10393500EE6416600FEE6415600A123C25CEEFCEDC
:0F394500EE7001227F027E001237E9123B9C22B6
:10000300E50AC39405500A122800EF600122123258
:10001300CE123D15900833E0FCA3E0FDA3E0FEA360
:10002300E054F0FFEC7B707A5679347812C31218DF
:100033002B700A900836E0540FF5098003E4F509A4
:10004300E4900801F0900815F090082F1218E100D1
:1000530000000090080D1218E10000000012309615
:10006300EF600D1237361232CE123096EF60012256
:10007300E509700F850C82850B83E054FD64E970FC
:100083000221B6E50C24FEF582E50B3401F583E08D
:10009300FEA3E064AA7003EE645560037F9122908F
:1000A3000801E0F508E5086440700221A2E50C248C
:1000B300BEFFE50B3401FE7C00EF2508FFEC3ECFCD
:1000C3002408CF3400FE123DA490080D1218BCE59D
:1000D3000C24BEFFE50B3401FE7C00EF2508FFEC8A
:1000E3003EF583EF2404F582E43583F583E0F50ED2
:1000F300E50E64056005E50EB40F5190080DE0FCB4
:10010300A3E0FDA3E0FEA3E0FF90082FE0F8A3E047
:10011300F9A3E0FAA3E0FBEF2BFFEE3AFEED39FD86
:10012300EC38FC90080D1218BC900815E060020131
:1001330060E5082410F090080DE0FCA3E0FDA3E0C7
:10014300FEA3E0FF90082F1218BC0160E50E30E714
:1001530003530E3FE50E603FE50EC3940F5038E5A1
:10016300099401503090080DE0FCA3E0FDA3E0FEEC
:10017300A3E0FF900826E0F8A3E0F9A3E0FAA3E0E8
:10018300FBEF2BFFEE3AFEED39FDEC38FC90080D4A
:100193001218BC801E150974102508F50801A890D3
:1001A3000815E0FF600A900801E07004EFF0014CCD
:1001B3007F922290080DE0FCA3E0FDA3E0FEA3E004
:1001C300FF9008331218BC123096EF600122850CA1
:1001D30082850B83E054FD64E960037FA122E50C73
:1001E30024FEF582E50B3401F583E0FEA3E064AA67
:1001F3007003EE645560037FA122E50C240DF582A4
:10020300E4350BF583E0FF900801F090080C7407C8
:10021300F0EF20E713EF25E0FF90080CE014F0E087
:1002230070EF9008017401F0E50C2416FFE4350B20
:10023300FE123E14E4FCFD90081E1218BC90082028
:10024300E0FEA3E04E7012E50C2424FFE4350BFE20
:10025300123DA490081E1218BCE50C2413FFE435CC
:100263000BFE123E14E4FCFD9008491218BC9008E2
:100273004BE0FEA3E04E7012E50C2420FFE4350BA7
:10028300FE123DA49008491218BCE50C2411FFE4AA
:10029300350BFE123E14900800E033333354F81448
:1002A3007C002FFFEC3EFEE51224FBFDEFC8EDC8FA
:1002B300088005CEC313CE13D8F9FFE4FCFD9008E4
:1002C300451218BCE50C240EFFE4350BFE123E1458
:1002D300E4FCFD90083A1218BC900848E0FF7E0049
:1002E30090083CE0FCA3E02FFFEE3CFEE4FCFD9015
:1002F300081EE0F8A3E0F9A3E0FAA3E02FF511EA62
:100303003EF510ED39F50FEC38F50EE50C2410F53C
:1003130082E4350BF583E090081EB4021FE0FCA3D2
:10032300E0FDA3E0FEA3E02511F511EE3510F51075
:10033300ED350FF50FEC350EF50E80071218E100C1
:1003430000000090080DE0FCA3E0FDA3E0FEA3E0A5
:100353002511FFEE3510FEED350FFDEC350EFC904B
:10036300081A1218BC900849E0FCA3E0FDA3E0FEC4
:10037300A3E0C39511FFEE9510FEED950FFDEC95EF
:100383000EFC90080CE0F9F812183C9008081218BB
:10039300BCE47FF57EFFFDFC900808E0F8A3E0F9DC
:1003A300A3E0FAA3E0FBC312182B5023E490081632
:1003B300F0A3F090080AE0FEA3E0C394F5EE940FD7
:1003C30090083950057401F080317402F0802CE5F7
:1003D3000C2430FFE4350BFE123E14900816EEF0A9
:1003E300A3EFF0E50C242CFFE4350BFE123DA490A3
:1003F30008451218BC9008397403F090083CE0FEDD
:10040300A3E04E6057900845E0FCA3E0FDA3E0FEA7
:10041300A3E0FFEC4D4E4F6043E50C2410F582E45E
:10042300350BF583E06401601490081EE0FCA3E043
:10043300FDA3E0FEA3E0FFEC4D4E4F601FE50C244F
:100443000BF582E4350BF583E07011E50C240CF514
:1004530082E4350BF583E0C39402500CE509700583
:1004630075090101437FA32290083AE0FCA3E0FD54
:10047300A3E0FEA3E0FF90080DE0F8A3E0F9A3E0FA
:10048300FAA3E0FBEF2BFFEE3AFEED39FDEC38FC6F
:0E04930090083A1218BC7D107F05123BC5225E
:102E9300900822E0FCA3E0FDA3E0FEA3E0FF90087E
:102EA3000D1218BC123791EF60012290081EE0FC4E
:102EB300A3E0FDA3E0FEA3E0FFEC4D4E4F60769050
:102EC300080DE0FCA3E0FDA3E0FEA3E0FF90081ED5
:102ED300E0F8A3E0F9A3E0FAA3E0FBEF2BFFEE3A5F
:102EE300FEED39FDEC38FC90080D1218BC90080675
:102EF300E0FCA3E0FD7F0112274A8F0D90080DE04F
:102F0300FCA3E0FDA3E0FEA3E0FF90081EE0F8A30E
:102F1300E0F9A3E0FAA3E0FBC3EF9BFFEE9AFEED1B
:102F230099FDEC98FC90080D1218BCE50D60061293
:0A2F33003D15AF0D22C20B7F0022F6
:10344D00122252EF600564B1600122EF6011900805
:10345D002A1218E100000000122252EF6001221220
:10346D002E93EF60012290082AE0FCA3E0FDA3E07B
:10347D00FEA3E0FF9008111218BC123082EF60011C
:10348D0022900819E0250CF509900818E0350BF588
:10349D0008F583E509241CF582E43583F5831218BC
:1034AD00E101000000900811E0FCA3E0FDA3E0FEA7
:0A34BD00A3E0FF123E361233532243
:0834C7007FFF7EFF7DFF7CFF0B
:1034CF008F118E108D0F8C0E900816E0FCA3E0FD6F
:1034DF004C7002FF22CFEDCFCEECCEE4FCFD900876
:1034EF0033E0F8A3E0F9A3E0FAA3E02FFFEA3EFEF2
:1034FF00ED39FDEC38FC123090EF600122E50C2421
:10350F00E8FFE50B3401FE123DA4EF2511FFEE3568
:10351F0010FEED350FFDEC350EFC123E36E50C249A
:10352F00E8F582E50B3401F5831218BC12337F22C4
:1038AF00C209E50AC39414404A123082EF60012224
:1038BF00900819E0250CF509900818E0350BF5086C
:1038CF00F583E509240BF582E43583F583E020E4E5
:1038DF002290082FE0FCA3E0FDA3E0FEA3E0FF127F
:1038EF003E36E509241CF582E43508F5831218BC31
:0638FF0002337F7F00226E
:10353F00AF0AEFC3941250037FB422EFB412469038
:10354F000839E06403603E90080CE0FF7401C8EF97
:10355F00C8088002C333D8FC900801F090081AE025
:10356F00F8A3E0F9A3E0FAA3E0FB900848E0FFE43A
:10357F00FCFDFEEB2FFFEE3AFEED39FDEC38FC9033
:10358F00081A1218BCAF0AEFD394134009EFB41402
:10359F00077822E67002C2093009071238AFEF60D0
:0635AF000122123BC122C3
:102C4000E50AC394135007120800EF600122123BFB
:102C5000C1EF600122123082EF600122900818E07B
:102C6000FEA3E0250CF582E50B3EF58374E5F0123A
:102C7000337FEF600122900811E0F50EA3E0F50F1D
:102C8000A3E0F510A3E0F511E50E450F4510451141
:102C90007002A115900811E0FCA3E0FDA3E0FEA3E3
:102CA000E024FFFFEE34FFFEED34FFFDEC34FFFCCB
:102CB0009008111218BC90082A1218E100000000B8
:102CC000900802E50EF0A3E50FF0A3E510F0A3E5F0
:102CD00011F07F011213C3EF60012290082AE0FC7B
:102CE000A3E0FDA3E0FEA3E02401FFE43EFEE43DFB
:102CF000FDE43CFC90082A1218BC300CC3122E9341
:102D0000EF60012290082AE0FCA3E0FDA3E0FEA30F
:082D1000E0FF0234CF7F002236
:101A9900120800900815EFF07009122C40EF70023F
:101AA900810222900815E0FF64426001229008003B
:101AB900E0FEC3900819E09400900818E09E5002D7
:101AC9008102900811E0700EA3E0700AA3E070068D
:101AD900A3E0700261A61213ADEF600122200C028F
:101AE9008102900811E0FCA3E0FDA3E0FEA3E0FF62
:101AF90090082A1218BC123CFEEF600122900811CE
:101B0900E0FCA3E0FDA3E0FEA3E0FF9008021218A9
:101B1900BC7F021213C3EF600122122E93EF600102
:101B290022AF0CAE0B900800E0FDED6012E4FC8FD3
:101B3900828E83E4F00FBF00010EDCF31D80EBE41D
:101B4900900815F0123800E4900818F0A3F09008F6
:101B59000DE0FCA3E0FDA3E0FEA3E0FF9008401226
:101B690018BC900801E0F50EE50E602A12337FEFEC
:101B790060012290080DE0FCA3E0FDA3E0FEA3E0D4
:101B89002401FFE43EFEE43DFDE43CFC90080D1217
:101B990018BC150E80D21234C7EF605D2290084838
:101BA900E0900815F090084074FF12187D123090EB
:101BB900EF600122E4900818F0A3F0900800E0FE1D
:101BC900900818E0FCA3E0FDC39400EC9E501FE5CB
:101BD9000C2DF582E50B3CF583E064E5601B90086C
:101BE90019E02420F0900818E03400F080CD900826
:101BF90015E014F070AF7FB222900811E0FCA3E069
:101C0900FDA3E0FEA3E0FF90082A1218BCE5B15439
:101C1900D064C060037F1122123CFEEF60012212E2
:101C29002E93EF60012290082AE0FCA3E0FDA3E0D7
:101C3900FEA3E0FF9008111218BC1234C7EF60012F
:101C490022123082EF600122900819E0250CF50973
:101C5900900818E0350BF508E4FFEFC3940B500426
:101C69007E2080027E00E5092FF582E43508F583A0
:101C7900EEF00FEFB420E3E5092418F582E4350806
:101C8900F5837421F0A37430F0E509241CF582E48E
:101C99003508F5837401F0E4FFEFC3940B503190DC
:101CA9000844E0F8E6FE6028EEB42E087F089008A4
:101CB90044E004F0900844E0F8E6FEE5092FF582D7
:101CC900E43508F583EEF00F900844E004F080C98C
:101CD900900811E0FCA3E0FDA3E0FEA3E0FF123EA3
:101CE90036123353EF600122900811E0FCA3E0FDA6
:101CF900A3E0FEA3E0FF90082A1218BC90082F1257
:101D090018E1000000009008491218E100000000E5
:0D1D1900E4900815F07D147F10123BC522E8
:1004A100D209900800E0FE90080CE0FDE4C8EDC818
:1004B100088005C333CE33CED8F924FFFFEE34FFD5
:1004C100FEE4FCFD90082FE0F8A3E0F9A3E0FAA315
:1004D100E02FFFEA3EFEED39FDEC38FC90080CE020
:1004E1002512F9F812183C90087F1218BC9008499F
:1004F100E0FCA3E0FDA3E0FEA3E0FFC8E9C81218F9
:100501003C9008021218BC900802E0FCA3E0FDA395
:10051100E0FEA3E0FF90087FE0F8A3E0F9A3E0FA92
:10052100A3E0FBD312182B402D90087FE0FCA3E041
:10053100FDA3E0FEA3E0FF900802E0F8A3E0F9A329
:10054100E0FAA3E0FBEF9BFFEE9AFEED99FDEC983C
:10055100FC90087F8011900811E0FCA3E0FDA3E06E
:10056100FEA3E0FF90082A1218BC900811E0702940
:10057100A3E07025A3E07021A3E0701D90082FE097
:10058100FCA3E0FDA3E0FEA3E0FFEC4D4E4F7002A3
:10059100FF2212344DEF601F2290082FE0FCA3E0F0
:1005A100FDA3E0FEA3E0FFEC4D4E4F700A90087FE3
:1005B1001218E10000000190082AE0FCA3E0FDA36D
:1005C100E0FEA3E0FF78221218B090087FE0FCA3C0
:1005D100E0FDA3E0FEA3E024FFFFEE34FFFEED34D7
:1005E100FFFDEC34FFFC90087F1218BC90082AE054
:1005F100FCA3E0FDA3E0FEA3E0FF9008021218BCFB
:1006010078261218B0E4FF1213C3EF600122200C08
:1006110002C1A390087FE0700CA3E07008A3E07012
:1006210004A3E060067E007F0180047E007F00EF6E
:100631004E700E782212186290082A1218BC7F00A0
:100641002290087FE0FCA3E0FDA3E0FEA3E0FF12FF
:10065100181D1234CFEF60012290082AE0FCA3E0BC
:10066100FDA3E0FEA3E0FF78261218B0123CFEEFD6
:1006710060012278261218629008021218BC7F02CB
:100681001213C3EF60012290087F74FF12187DECF2
:100691004D4E4F70C4782212186290082A1218BC6D
:1006A100E13F90087FE06002A1CBA3E06002A1CB13
:1006B100A3E06002A1CBA3E06002A1CB78261218CF
:1006C100628F118E108D0F8C0E900802E50EF0A333
:1006D100E50FF0A3E510F0A3E511F07F011213C3BC
:1006E100EF60012290087FE0FCA3E0FDA3E0FEA300
:1006F100E02401FFE43EFEE43DFDE43CFC90087F84
:100701001218BC300CC390087FE0FCA3E0FDA3E00D
:10071100FEA3E0FF1234CFEF600122900811E0FC4C
:10072100A3E0FDA3E0FEA3E0FF90082A1218BC900D
:1007310008491218E100000000E4900815F0122E9B
:02074100932201
:10293C00E50AC3941350037FB422123082EF600176
:10294C0022C20E900819E0250CF509900818E03504
:10295C000BF508782AE6FFE509240BF582E4350827
:10296C00F583E0F6EFF4600FE509240BF582E4350E
:10297C0008F583EFF0D20E7928E7F50F7829E6F504
:10298C000EE5092416FFE43508FE123E147828EEF5
:10299C00F608EFF6E50FF47003E50EF46014E509A4
:1029AC002416F582E43508F583E50EF0A3E50FF067
:1029BC00D20E7926E7F50F7827E6F50EE5092418EF
:1029CC00FFE43508FE123E147826EEF608EFF6E525
:1029DC000FF47003E50EF46014E5092418F582E495
:1029EC003508F583E50EF0A3E50FF0D20E78221230
:1029FC0018628F118E108D0F8C0EE509241CFFE4CC
:102A0C003508FE123DA478221218B0E50E550F556C
:102A1C00105511F46023AF11AE10AD0FAC0E900831
:102A2C002F1218BC123E36E509241CF582E4350839
:102A3C00F5831218BCD20EC209300E0302337F7F0D
:022A4C00002266
:103D7300E4FF74222FF876FF0FEFB40AF512293C03
:013D8300221D
:10395400E50A641460037FB422900811E0FCA3E03C
:10396400FDA3E0FEA3E0FF90082A1218BC900849CA
:103974001218E100000000900811E0700CA3E07040
:1039840008A3E07004A3E06007E4900815F0800643
:0E39940090081574FFF07D157F14123BC522BC
:101F9100E50A64156007123954EF6001229008497F
:101FA100E0FCA3E0FDA3E0FEA3E0FF78261218B059
:101FB10078221218629008491218BC90082FE0F894
:101FC100A3E0F9A3E0FAA3E0FBC312182B5014908D
:101FD100082FE0FCA3E0FDA3E0FEA3E0FF90084989
:101FE1001218BC900849E0FCA3E0FDA3E0FEA3E0C9
:0D1FF100FF123C4478221218B0122B4D2232
:101D2600E50A64156007123954EF6001227822E64D
:101D3600FF08E67826CFF608EFF6E47822F608F6EE
:101D4600900815E0B4FF037F00227827E618467056
:101D560002E18E900849E0FCA3E0FDA3E0FEA3E0CB
:101D6600FF90082FE0F8A3E0F9A3E0FAA3E0FBD385
:101D760012182B5002E18E12380090084BE0FEA399
:101D8600E0FF900831E0FCA3E0C39FF50FEC9EF561
:101D96000ED3E50F782796E50E18964007E6F50E62
:101DA60008E6F50F900800E0FDFEC3E50F9400E598
:101DB6000E9E5002C18490084CE06002C184ED146E
:101DC600FF90084BE05F6002C184E50EFFE5122438
:101DD600F8FEEFC8EEC8088002C313D8FCFF750EE4
:101DE600008F0F900815E0FF900801E0C39FFFAE3B
:101DF6000FEED39F4005750E008F0FAF0F7925E7C5
:101E0600782326FD19E71836FC122F3DEF600122D4
:101E1600AF0F900815E02FF0AF0FE51224F8FEEF94
:101E2600C8EEC8088002C333D8FC750F00F50E90C3
:101E36000849E0F8A3E0F9A3E0FAA3E0FBAE0EAF91
:101E46000FE4FCFDEB2FFFEA3EFEED39FDEC38FC1E
:101E56009008491218BCC37827E6950FF618E69540
:101E66000EF67823E50F26F618E50E36F6900801ED
:101E7600E0FF900815E0C39F5002A150E14B900887
:101E860000E0FD24FFFFEFFE90084BE0FAA3E0FB25
:101E9600EE5AFAEDFEC3E49BFFEE9AFED3E50F9FE2
:101EA600E50E9E40048E0E8F0F123096EF600122D3
:101EB600900800E024FFFFEFFE90084BE0FCA3E053
:101EC600FDEE5CFEED250CFFEE350BFE7925E77881
:101ED6002326FD19E71836FCAB0FAA0E123BE49039
:101EE6000849E0F8A3E0F9A3E0FAA3E0FBAE0EAFE1
:101EF6000FE4FCFDEB2FFFEA3EFEED39FDEC38FC6E
:101F06009008491218BCC37827E6950FF618E6958F
:101F16000EF67823E50F26F618E50E36F690084CF1
:101F2600E06002A150900800E014FF90084BE05FCB
:101F36006002A150900801E0FF900815E004F0C38C
:101F46009F5002A15090082AE0FCA3E0FDA3E0FE0A
:101F5600A3E0FF9008021218BCE4FF1213C3EF605F
:101F66000122300C1C90081574FFF0900849E0FC23
:101F7600A3E0FDA3E0FEA3E0FF90082F1218BC80AB
:0B1F860007E4900815F0A1507F002236
:10100000E50A64156007123954EF6001227822E680
:10101000FE08E6FF7826EEF6FE08EFF64E70063084
:1010200009030238AFE47822F608F67827E6184676
:10103000700261A0900815E0F4600201DB900811D5
:10104000E0700CA3E07008A3E07004A3E0605DE52D
:101050000AB4120B900839E0640360037FB1229058
:10106000082AE0FCA3E0FDA3E0FEA3E0FF9008490E
:101070001218BC123CFEEF600122900849E0FCA36C
:10108000E0FDA3E0FEA3E0FF9008021218BC7F027F
:101090001213C3EF600122900806E0650B7004A3F1
:1010A000E0650C700E122E93EF60082212344DEFA3
:1010B0006001227FFF7EFF7DFF7CFF1234CFEF6057
:1010C000012290082FE0FCA3E0FDA3E0FEA3E0FFD7
:1010D0009008491218BCE4900815F01238009008E6
:1010E00000E024FFFFEFFE90084BE0FCA3E0FDEEE4
:1010F0005CFC900815E0FF900801E0C39FFF7E00B4
:10110000E51224F8FBEFC8EBC8088005C333CE33E3
:10111000CED8F9FEC3E49DF50FEE9CF50ED3E50F96
:10112000782796E50E18964007E6F50E08E6F50FC7
:10113000900800E0FDFEC3E50F9400E50E9E50020E
:10114000412A90084CE06002412AED14FF90084BC0
:10115000E05F6002412AE50EFFE51224F8FEEFC8C9
:10116000EEC8088002C313D8FCFF750E008F0FAFC6
:101170000F7925E7782326FD19E71836FC12274A50
:10118000EF600122AF0F900815E02FF0AF0FE512CE
:1011900024F8FEEFC8EEC8088002C333D8FC750FF0
:1011A00000F50E900849E0F8A3E0F9A3E0FAA3E007
:1011B000FBAE0EAF0FE4FCFDEB2FFFEA3EFEED3978
:1011C000FDEC38FC9008491218BCC37827E6950F4F
:1011D000F618E6950EF67823E50F26F618E50E3696
:1011E000F6900849E0FCA3E0FDA3E0FEA3E0FF9039
:1011F000082FE0F8A3E0F9A3E0FAA3E0FBC312187C
:101200002B5016900849E0FCA3E0FDA3E0FEA3E00C
:10121000FF90082F1218BCD209900801E0FF900837
:1012200015E0C39F5002012B6171900800E0FD247E
:10123000FFFFEFFE90084BE0FAA3E0FBEE5AFAED59
:10124000FEC3E49BFFEE9AFED3E50F9FE50E9E40A2
:10125000048E0E8F0F90084CE0702F900800E01461
:10126000FF90084BE05F7022900849E0FCA3E0FD8E
:10127000A3E0FEA3E0FF90082FE0F8A3E0F9A3E0CD
:10128000FAA3E0FBD312182B4007123096EF60014F
:10129000227925E7782326FF19E71836FEEEC0E00D
:1012A000EFC0E0900800E024FFFFEFFE90084BE065
:1012B000FCA3E0FDEE5CFEED250CFDEE350BFCD055
:1012C000E0FFD0E0FEAB0FAA0E123BE4900849E02D
:1012D000F8A3E0F9A3E0FAA3E0FBAE0EAF0FE4FC45
:1012E000FDEB2FFFEA3EFEED39FDEC38FC9008499E
:1012F0001218BCC37827E6950FF618E6950EF67817
:1013000023E50F26F618E50E36F612337FEF60015F
:1013100022900849E0FCA3E0FDA3E0FEA3E0FF90DB
:10132000082FE0F8A3E0F9A3E0FAA3E0FBC312184A
:101330002B5016900849E0FCA3E0FDA3E0FEA3E0DB
:10134000FF90082F1218BCD20990084CE0600201EF
:101350002B900800E014FF90084BE05F6002012B27
:10136000900801E0FF900815E004F0C39F500201CF
:101370002B90082AE0FCA3E0FDA3E0FEA3E0FF9091
:1013800008021218BCE4FF1213C3EF600122300CF4
:101390000890081574FFF0012BE4900815F0012B5C
:0D13A000300B07122E93EF6001227F002218
:103DA4008F828E83E0FFA3E0FEA3E0FDA3E0FC226C
:0A3E14008F828E83E0FFA3E0FE2200
:073E3600EFCCFFEECDFE22F0
:103C4400C3E4CC13CD13CE13FFE51224F7600DF8B3
:0D3C5400C3ED13FDEE13FEEF13FFD8F422B5
:103C6100C3E4CF33CE33CD33FCE51224F7600DF836
:0D3C7100C3EE33FEED33FDEC33FCD8F4223E
:103BE40005A28D828C8315A28F828E837F00EA606A
:103BF40007E0A3A5DFFBDAF9EB6005E0A3A5DBFB97
:013C0400229D
:03000000023DE9D5
:0C3DE900787FE4F6D8FD758141022D18AA
:10172D00F8BB010DE58229F582E5833AF583E8F0F2
:10173D00225006E92582C8F622BBFE05E92582C89E
:02174D00F22286
:10174F0075F008758200EF2FFFEE33FECD33CDCC51
:10175F0033CCC58233C5829BED9AEC99E5829840D4
:10176F000CF582EE9BFEED9AFDEC99FC0FD5F0D6B1
:10177F00E4CEFBE4CDFAE4CCF9A88222B800C1B9DB
:10178F000059BA002DEC8BF084CFCECDFCE5F0CB19
:10179F00F97818EF2FFFEE33FEED33FDEC33FCEB52
:1017AF0033FB10D703994004EB99FB0FD8E5E4F90D
:1017BF00FA227818EF2FFFEE33FEED33FDEC33FCFA
:1017CF00C933C910D7059BE99A4007EC9BFCE99AEE
:1017DF00F90FD8E0E4C9FAE4CCFB2275F010EF2F33
:1017EF00FFEE33FEED33FDCC33CCC833C810D70733
:1017FF009BEC9AE899400AED9BFDEC9AFCE899F86E
:0E180F000FD5F0DAE4CDFBE4CCFAE4C8F92200
:0E181D00C3E49FFFE49EFEE49DFDE49CFC22DC
:10182B00EB9FF5F0EA9E42F0E99D42F0E89C45F013
:01183B00228A
:10183C00E8600FECC313FCED13FDEE13FEEF13FF8A
:03184C00D8F122AE
:10184F00E8600FEFC333FFEE33FEED33FDEC33FCF7
:03185F00D8F1229B
:0C186200E6FC08E6FD08E6FE08E6FF22B2
:0D186E00E6FB08E6F908E6FA08E6CBF822EA
:10187B007401FF3395E0FEFDFCA3A3A3E02FFFF063
:10188B00E582158270021583E03EFEF0E58215823B
:10189B0070021583E03DFDF0E58215827002158321
:0518AB00E03CFCF0220E
:0C18B000ECF608EDF608EEF608EFF62264
:0C18BC00ECF0A3EDF0A3EEF0A3EFF0229F
:1018C800D083D082E493F608740193F608740293E7
:0918D800F608740393F67404731E
:1018E100A8828583F0D083D0821218F81218F812DA
:1018F10018F81218F8E473E493A3C583C5F0C583FF
:10190100C8C582C8F0A3C583C5F0C583C8C582C850
:0119110022B3
:100C9B00E5132456F582E43408F583E0051322901E
:100CAB000853300703900856E475F001121A5302EB
:100CBB0019FB2000E97F2ED2008018EF540F2490EF
:100CCB00D43440D4FF30040BEF24BFB41A005003CC
:100CDB002461FFE514600215140517E51770020572
:100CEB001630070E900853E475F001121A53EF02F9
:100CFB001A41023B757403D2078003E4C207F51354
:100D0B00900853121A6AE4F514F516F517E51460FA
:100D1B00077F20120CDE80F57515FFC201C200C2E1
:100D2B0002C203C205C206C208120CAAFF700D3024
:100D3B0007057F00120CEFAF17AE1622B4255FC26A
:100D4B00D5C204120CAAFF24D0B40A00501A75F0B5
:100D5B000A781430D50508B6FF0106C6A426F6207E
:100D6B00D5047002D20380D924CFB41A00EF5004FB
:100D7B00C2E5D204020EF0D20180C6D20080C0D2EE
:100D8B000280BCD2D580BAD20580B47F20120CDE93
:100D9B002002077401B5140040F1120C9BFF120CDA
:100DAB00DE020D18D208D2068095120C9BFB120C9A
:100DBB009BFA120C9BF94A4B700679C17A0F7BFF99
:100DCB0020022EE514602A7E008E82758300121A93
:100DDB001460060EEE651570F0C2D5EBC0E0EAC0EC
:100DEB00E0E9C0E0EE120F37D0E0F9D0E0FAD0E046
:100DFB00FB1219FBFF60AAEBC0E0EAC0E0E9C0E020
:100E0B00120CDED0E02401F9D0E03400FAD0E0FB84
:100E1B00E5150460DCD515D980877BFF7A0F793314
:100E2B00D202809C791080027908C206C208800821
:100E3B00D2D5790A8004790AC2D5E515047002F57A
:100E4B0015E4FAFDFEFF120C9BFC7B08200113122C
:100E5B000C9BFD7B1030000A120C9BFE120C9BFFAF
:100E6B007B20EC3382D592D55013C3E43000069F20
:100E7B00FFE49EFEE42001039DFDE49CFCE4CBF823
:100E8B00C201EC700CCFCECDCCE824F8F870F38017
:100E9B0017C3EF33FFEE33FEED33FDEC33FCEB33D7
:100EAB00FB994002FB0FD8E9EB300105F8D0E0C409
:100EBB0048B201C0E00AEC4D4E4F78207B0070C267
:100ECB00EAB5150040BCC0E0120F39D0F0D0E020DD
:100EDB000104C4C0E0C4B201C0F0120CC7D0F0D5FD
:100EEB00F0EB020D18121A730DB5530E2F580D8619
:100EFB004C0D82420E334F0E3B440E3B490D9B4330
:080F0B000E41550E25460E258E
:100F1300450E25470FE1500D8A2D0D8E2E0DB12B59
:100F23000D92230DAF200FCA2A0D4A4800000DA9C8
:100F33003F3F3F00790AA2D5200314300509B910B9
:100F4300020404B9080104A2D520060250010420BA
:100F530002689202B514005034C0E07F20300319B8
:100F63007F30A20272067205500F120F90C202C2A6
:100F730006C205C2087F30800F300503E9C0E012C6
:100F83000CDE300503D0E0F9D0E0B514CC30051702
:100F93007F30B9100C120CDE7F583004077F788045
:100FA30003B90803120CDE3002057F2D020CDE7F2D
:100FB300202008F87F2B2006F322920280CF286E90
:100FC300756C6C2900D201120C9B3001F8C20178B8
:100FD3001430D50108F6020D4A2D50434958120C1E
:100FE3009B2403B405004001E4900FDC93120CCF63
:0D0FF300743A120CCFD203751404020E2FB5
:10191200E709F60870FA8046E709F20870FA803E95
:1019220088828C83E709F0A370FA807EE309F608C7
:1019320070FA8076E309F20870FA806E88828C83EE
:10194200E309F0A370FA806289828A83E0A3F60831
:1019520070FA805689828A83E0A3F20870FA804A7C
:1019620080D280FA80C680D4806580F28031801077
:1019720080A680EA809A80A880DA80E280CA8031DC
:1019820089828A83ECFAE493A3C8C582C8CCC58352
:10199200CCF0A3C8C582C8CCC583CC70E9800D89C0
:1019A200828A83E493A3F60870F9ECFAA9F0EDFBBE
:1019B2002289828A83ECFAE0A3C8C582C8CCC58397
:1019C200CCF0A3C8C582C8CCC583CC70EA80DD89BF
:1019D200828A83E493A3F20870F980CE88F0ED2422
:1019E20002B4040050C4F582EB2402B4040050BADD
:0919F2002323458223901962733E
:1019FB00BB010689828A83E0225002E722BBFE02EA
:091A0B00E32289828A83E493221C
:101A1400BB010CE58229F582E5833AF583E0225087
:101A240006E92582F8E622BBFE06E92582F8E222D1
:0D1A3400E58229F582E5833AF583E49322EB
:101A4100BB010689828A83F0225002F722BBFE0184
:021A5100F3227E
:101A5300F8E0FBA3A3E0F925F0F0E582158270021C
:071A63001583E0FA38F022C0
:091A6A00EBF0A3EAF0A3E9F0227D
:101A7300D083D082F8E4937012740193700DA3A302
:101A830093F8740193F5828883E473740293686016
:061A9300EFA3A3A380DF16
:103B7500EFB40A07740D123B80740A309811A899A6
:103B8500B8130CC2983098FDA899C298B811F630B0
:073B950099FDC299F5992288
:00000001FF
