:100C0500496E6974206F6B200D0A004C6967687422
:100C1500206F6E204E756D204C6F636B204C4544E4
:100C2500210A004C69676874206F6666204E756DF1
:100C3500204C6F636B204C4544210A00456E74655A
:100C450072204C504D0D0A007E00602020433A5C16
:100C55004849445F524543562E4558452020200DAE
:100C6500202020001201100100000008315107204A
:100C750000110000000105010906A101050719E0A1
:100C850029E715002501950875018102950875016B
:100C95008101050819012903950375019102950143
:100CA50075059101050719002AFF00150026FF00AB
:100CB500950675088100C00600FF0901A10109021A
:100CC50015002600FF7508954081060902150026C6
:100CD50000FF750895409106C00902420002010017
:100CE500A0320904000001030101000921110100DE
:100CF500012241000705810308000A0904010002D9
:100D050003000000092110012101222200070582AC
:0B0D1500034000320705020340000A03
:100EBF004300DBFF0C4F604000EC0000000000001F
:100ECF000000000000000000000000000000000013
:100EDF000000000000000000000000000000000003
:100EEF0000000000000000000000000000000000F3
:100EFF00000000000000000000004800D1000000CA
:090F0F0000000000004100D000C8
:10108000E4F5E253E27F43E229F5E353E4BF53E2A0
:0B109000BF53E4FB43E43043E40122C3
:10109B0043E10443E10243E10143D81FD2EAD2AF5B
:0110AB002222
:100F660090244A7400F0A3740AF0902446E04440AA
:100F7600F0E0547FF0E054EFF075D21290244C74F8
:100F860000F0A37450F0902447E04404F0E04408D5
:100F9600F0E054FEF075D412A37400F0A37400F0D0
:0B0FA600902446E054F3F075DC0222BA
:10104000E5D2540360FA780A7C007D017B017A00C6
:1010500079D17E007F081208E175D30853D2FC22B3
:10106000E5D4540360FA78907C007D017B017A001E
:1010700079EC7E007F401208E175D54053D4FC2204
:0300430002004672
:0D004600C0E0C0F0C083C082C0D075D008FB
:1000530020D90302045AE5D9543F7003020425242E
:10006300FE602324E270030203A714602424F160DA
:1000730034240E600302045875D500E5D454FC44BF
:1000830002F5D4020458E5D454F34402F5D402042F
:100093005875D300E5D254FC4402F5D29000DA74CB
:1000A30001F002045890012CE5D1F0E064086003EC
:1000B300020379900006E09000DFF0900007E07003
:1000C300099000DFE0D3947F40069000DF747FF057
:1000D30090012CE4F0900000E0FF5460602FEFB437
:1000E3002114A3E0B4090F9000DE7401F07BFF7AC2
:1000F3000C7905120517900000E0B42108A3E0B4C1
:100103000A0375DD0090012CE4F002037F900001E7
:10011300E09000E0F0E0B40B00400302036F9001B5
:1001230028F828287302034D02026602036F0202B5
:10013300AF02036F02023302014902036F02023E60
:1001430002025B02037F900003E024FE601E24E0B2
:1001530060302421706B9000E974FFF0A3740CF0FD
:10016300A37469F090012C7412F0805B9000E97421
:10017300FFF0A3740CF0A374DEF090012C7442F032
:100183008045900004E0FF70169000E974FFF0A32F
:10019300740CF0A3747BF090012C7441F08028EF71
:1001A300B401169000E974FFF0A3740CF0A374BCBF
:1001B300F090012C7422F0800E90012C74FFF080DB
:1001C3000690012C74FFF090012CE0FFF470030201
:1001D300037F9000DFE0D39F400890012CE0900064
:1001E300DFF09000DFE0C3940840047F08800590AF
:1001F30000DFE0FF90012CEFF0E0FF7E0078007C51
:10020300007D019000E9E0FBA3E0FAA3E0F9120806
:10021300E19000DFE0FF90012CE0FEC3EF9E900031
:10022300DFF0EEFF9000EAE48FF012092002037F73
:10023300900002E09000DFF002037F9000D9E0908D
:100243000000F09000DFE0C39401500302037F90AD
:10025300012C7401F002037F900002E09000D9F0BA
:1002630002037F900000E0541F6402703690000484
:10027300E014601D2480600E14701CE5D454BC444B
:1002830002F5D402037FE5D254BC4402F5D2020343
:100293007F53D27302037F90012C74FFF002037F1C
:1002A30002037F90012C74FFF002037F900000E0B3
:1002B300541FFD702D900003E0FE900002E0FBEE62
:1002C300EB64014E7013900CE59330E50302037F5A
:1002D30090012C74FFF002037F90012C74FFF00255
:1002E300037FED6402705B900003E0FE900002E088
:1002F300FDEEED4E7044900005E0FE900004E0FD3D
:10030300EEEDFFEE702AEF24FE60112481601714D6
:10031300701EE5D454BF4403F5D48060E5D4547F04
:10032300440CF5D48056E5D254BF4403F5D2804C37
:1003330090012C74FFF08044804290012C74FFF0F4
:10034300803A90012C74FFF08032900000E4F0A317
:10035300F09000DFE0C39402400890012C7402F097
:10036300801A9000DFE090012CF0801090012C7433
:10037300FFF08008800690012C74FFF090012CE0C0
:10038300FFB4FF099000E074FFF0020458EFD39428
:100393000850088FDD75DCC002045875DD0075DC7C
:1003A300C00204589000E0E024FB6059147065908B
:1003B30000DFE0C3940840047F0880059000DFE07D
:1003C300FF90012CEFF0E0FF7E0078007C007D01C0
:1003D3009000E9E0FBA3E0FAA3E0F91208E1900042
:1003E300DFE0FF90012CE0FEC3EF9E9000DFF0EE14
:1003F300FF9000EAE48FF012092090012CE0F5DD74
:1004030063DC40800FE5E35480FF9000DFE04FF5AD
:10041300E375DC0290012CE0F4703AF5DD75DC0243
:10042300803390012CE5D1F09000E0E0B4092090F6
:100433000000E0600B7BFF7A0C7910120517800F28
:10044300900000E070097BFF7A0C7928120517757C
:10045300DD0075DC00C2D930D81275DC0275D2100C
:1004630075D41275E300C2DAC2D9C2D830DA2CC20D
:10047300DAE5DA30E2287BFF7A0C7941120517E5D9
:10048300A220E7FB75A15575A1AA75EB81438702ED
:0E04930075A15575A1AA75EB00800375D8FF01
:0B04A100D0D0D082D083D0F0D0E03269
:100AD200120907FEC3648094E1400CD3EE64809453
:100AE200FA5004EE24E0FEC3EE648094C14012D3B7
:100AF200EE648094DA500AEE24C39000D3F0020B25
:100B0200CFC3EE648094B14012D3EE648094B950A6
:100B12000AEE24ED9000D3F0020BCFEE120A410B45
:100B2200670D0B5F200BC3210B7D2B0BAE2E0B9899
:100B32002F0BA6300B6F3A0B575C0B8A5F0B496089
:100B42000BB67E00000BCF9000D17408F09000D35A
:100B52007415F080789000D37431F080709000D3D7
:100B62007402F080689000D37428F080609000D105
:100B72007402F09000D37433F08052E49000D1F00C
:100B82009000D37457F080459000D17402F0900029
:100B9200D3742DF080379000D17405F09000D37497
:100BA20016F080299000D37427F080219000D3742E
:100BB20037F080199000D17404F09000D304F080D3
:100BC2000C9000D17404F09000D37408F07F147E6E
:100BD2000012002A9000DAE060FA1210409000DA67
:100BE200E060FA7F147E0012002AE49000D1F090B7
:100BF20000D3F09000DAE060FA1210409000DAE0E0
:020C020060FA96
:010C040022CD
:100FF7009001567401F0120F19900156E024ECF598
:1010070082E43400F583E02FF0900156E004F0E02D
:05101700C3944040E11C
:01101C0022B1
:100E4A009001557401F09000D0E0600D9000ECE044
:100E5A0004F0120FF712106022900155E06401703D
:100E6A00439000DBE0FBA3E0FAA3E0F9120AD29078
:100E7A0000DCE475F0011209209000DBE0FBA3E03E
:100E8A00FAA3E0F9120907702B900155F07BFF7A5B
:100E9A000C794D120AD27FC87E0012002A9000D027
:100EAA007401F022E5D254FC4402F5D2E5D454FC94
:040EBA004402F5D425
:010EBE002211
:0A10BA0075A15575A1AA75A1FF22CA
:0E10AC00EF4E600905A1EF1F70011E80F322B8
:10002A00AD07AC06ED4C600E7FE87E031210ACED16
:07003A001D70011C80EE2285
:100D2000C29FD29EC29DC2CDC2CC43878090015546
:100D3000120A1000000082E47B0AFAF9F8900155CB
:100D4000E0FCA3E0FDA3E0FEA3E0FF120972900126
:100D500059EBF0900155E0FCA3E0FDA3E0FEA3E019
:100D6000FFE47B0AFAF9F8120972900155120A049D
:100D7000900159E0C394054025900155E0FCA3E0A3
:100D8000FDA3E0FEA3E0FFE4FAF9F8EF2401FFEA97
:100D90003EFEE93DFDE83CFC900155120A04E58960
:100DA000540F4420F58943C9A0900155E0A3E0A366
:0D0DB000E0A3E0F404F58DD28ED299D29C20
:010DBD002213
:0810C4003098FDC298AF99229B
:10101D00537461727420636F6E6669672E0D0A00DA
:10102D00496E697420555342206465766963652E57
:03103D000D0A0099
:100FB1007F057E0012002A120D207BFF7A10791D19
:100FC1001205177BFF7A10792D1205171210801266
:100FD1000F6612109BE4F5D3F5D59000DAF090007E
:100FE100DEF09000DEE0B40103120E4A7F647E0061
:060FF10012002A80ED222F
:03000000020DBE30
:0C0DBE00787FE4F6D8FD758122020E0556
:10081100E709F608DFFA8046E709F208DFFA803EC9
:1008210088828C83E709F0A3DFFA8032E309F608B6
:10083100DFFA8078E309F208DFFA807088828C831E
:10084100E309F0A3DFFA806489828A83E0A3F608D2
:10085100DFFA805889828A83E0A3F208DFFA804CAC
:1008610080D280FA80C680D4806980F28033801083
:1008710080A680EA809A80A880DA80E280CA8033EC
:1008810089828A83ECFAE493A3C8C582C8CCC58364
:10089100CCF0A3C8C582C8CCC583CCDFE9DEE78034
:1008A1000D89828A83E493A3F608DFF9ECFAA9F0B3
:1008B100EDFB2289828A83ECFAE0A3C8C582C8CC09
:1008C100C583CCF0A3C8C582C8CCC583CCDFEADE22
:1008D100E880DB89828A83E493A3F208DFF980CC84
:1008E10088F0EF60010E4E60C388F0ED2402B4047D
:1008F1000050B9F582EB2402B4040050AF23234524
:06090100822390086173DF
:10090700BB010689828A83E0225002E722BBFE02EE
:09091700E32289828A83E4932221
:10092000C5F0F8A3E028F0C5F0F8E5821582700262
:060930001583E038F022FF
:1009360075F008758200EF2FFFEE33FECD33CDCC78
:1009460033CCC58233C5829BED9AEC99E5829840FB
:100956000CF582EE9BFEED9AFDEC99FC0FD5F0D6D8
:10096600E4CEFBE4CDFAE4CCF9A88222B800C1B902
:100976000059BA002DEC8BF084CFCECDFCE5F0CB40
:10098600F97818EF2FFFEE33FEED33FDEC33FCEB79
:1009960033FB10D703994004EB99FB0FD8E5E4F934
:1009A600FA227818EF2FFFEE33FEED33FDEC33FC21
:1009B600C933C910D7059BE99A4007EC9BFCE99A15
:1009C600F90FD8E0E4C9FAE4CCFB2275F010EF2F5A
:1009D600FFEE33FEED33FDCC33CCC833C810D7075A
:1009E6009BEC9AE899400AED9BFDEC9AFCE899F895
:0E09F6000FD5F0DAE4CDFBE4CCFAE4C8F92228
:0C0A0400ECF0A3EDF0A3EEF0A3EFF02265
:100A1000A8828583F0D083D082120A27120A271277
:100A20000A27120A27E473E493A3C583C5F0C5839C
:100A3000C8C582C8F0A3C583C5F0C583C8C582C830
:010A40002293
:100A4100D083D082F8E4937012740193700DA3A344
:100A510093F8740193F5828883E473740293686058
:060A6100EFA3A3A380DF58
:1004AC00E5152458F582E43401F583E00515229016
:1004BC000155301003900158E475F001120AB20294
:1004CC0009072009E97F2ED2098018EF540F2490D8
:1004DC00D43440D4FF300D0BEF24BFB41A005003BA
:1004EC002461FFE516600215160519E51970020561
:1004FC001830100E900155E475F001120AB2EF029B
:10050C000A940200037403D2108003E4C210F515A0
:10051C00900155120AC9E4F516F518F519E516609F
:10052C00077F201204EF80F57517FFC20AC209C2BB
:10053C000BC20CC20EC20FC2111204BBFF700D30E5
:10054C0010057F00120500AF19AE1822B4255FC24A
:10055C00D5C20D1204BBFF24D0B40A00501A75F09A
:10056C000A781630D50508B6FF0106C6A426F62073
:10057C00D5047002D20C80D924CFB41A00EF5004E9
:10058C00C2E5D20D020701D20A80C6D20980C0D2C0
:10059C000B80BCD2D580BAD20E80B47F201204EF6F
:1005AC00200B077401B5160040F11204ACFF1204C5
:1005BC00EF020529D211D20F80951204ACFB120464
:1005CC00ACFA1204ACF94A4B700679D27A077BFF6D
:1005DC00200B2EE516602A7E008E82758300120A8F
:1005EC006760060EEE651770F0C2D5EBC0E0EAC08E
:1005FC00E0E9C0E0EE120748D0E0F9D0E0FAD0E034
:10060C00FB120907FF60AAEBC0E0EAC0E0E9C0E01A
:10061C001204EFD0E02401F9D0E03400FAD0E0FB72
:10062C00E5170460DCD517D980877BFF7A077944FE
:10063C00D20B809C791080027908C20FC2118008FD
:10064C00D2D5790A8004790AC2D5E517047002F56F
:10065C0017E4FAFDFEFF1204ACFC7B08200A13120F
:10066C0004ACFD7B1030090A1204ACFE1204ACFF82
:10067C007B20EC3382D592D55013C3E43009069F0E
:10068C00FFE49EFEE4200A039DFDE49CFCE4CBF811
:10069C00C20AEC700CCFCECDCCE824F8F870F38005
:1006AC0017C3EF33FFEE33FEED33FDEC33FCEB33CE
:1006BC00FB994002FB0FD8E9EB300A05F8D0E0C4F7
:1006CC0048B20AC0E00AEC4D4E4F78207B0070C255
:1006DC00EAB5170040BCC0E012074AD0F0D0E020C9
:1006EC000A04C4C0E0C4B20AC0F01204D8D0F0D5D9
:1006FC00F0EB020529120A4105C65306405805972E
:10070C004C05934206444F064C44064C4905AC43F9
:08071C0006525506364606366A
:100724004506364707F250059B2D059F2E05C22B23
:1007340005A32305C02007DB2A055B48000005BA92
:100744003F3F3F00790AA2D5200C14300E09B9109E
:10075400020404B9080104A2D5200F0250010420A8
:100764000B68920BB516005034C0E07F20300C1992
:100774007F30A20B720F720E500F1207A1C20BC270
:100784000FC20EC2117F30800F300E03E9C0E01299
:1007940004EF300E03D0E0F9D0E0B516CC300E17DC
:1007A4007F30B9100C1204EF7F58300D077F78802A
:1007B40003B908031204EF300B057F2D0204EF7F09
:1007C400202011F87F2B200FF322920B80CF286E6C
:1007D400756C6C2900D20A1204AC300AF8C20A788B
:1007E4001630D50108F602055B2D50434958120412
:1007F400AC2403B405004001E49007ED931204E037
:0D080400743A1204E0D20C7516040206408E
:100F190090004A120AA67810EC4D4E4F70047CA539
:100F29007DA5C3EC13FCED13FDEE13FEEF13FF508B
:100F390010EC64CCFCED644CFDEE644EFEEF64CE27
:100F4900FFD8DF90004A120A04EE547FFE22900077
:0D0F59004AEEF0EFA3F0A374A5F0A3F02280
:100DCA00020FB1E493A3F8E493A34003F68001F27F
:100DDA0008DFF48029E493A3F85407240CC8C3332A
:100DEA00C4540F4420C8834004F456800146F6DFF9
:100DFA00E4800B0102040810204080900EBFE47EBC
:100E0A00019360BCA3FF543F30E509541FFEE493ED
:100E1A00A360010ECF54C025E060A840B8E493A3B4
:100E2A00FAE493A3F8E493A3C8C582C8CAC583CADF
:100E3A00F0A3C8C582C8CAC583CADFE9DEE780BE97
:010F180000D8
:100A6700BB010CE58229F582E5833AF583E0225044
:100A770006E92582F8E622BBFE06E92582F8E2228E
:0D0A8700E58229F582E5833AF583E49322A8
:100A9400BB010689828A83F0225002F722BBFE0141
:020AA400F3223B
:0C0AA600E0FCA3E0FDA3E0FEA3E0FF22C3
:100AB200F8E0FBA3A3E0F925F0F0E58215827002CD
:070AC2001583E0FA38F02271
:090AC900EBF0A3EAF0A3E9F0222E
:10000300EFB40A07740D12000E740A309811A89900
:10001300B8130CC2983098FDA899C298B811F6305D
:0700230099FDC299F5992235
:00000001FF
