:100A6B007374617274202E2E2E0A0025303258209A
:100A7B00204144435F4441544131202530345820B8
:100A8B00200A00120110010000000831510720005C
:100A9B00000000000109022900010104A023090440
:100AAB0000000203000005092100010001222200C1
:100ABB0007058203400018070502034000180600D3
:100ACB00FF0901A101090215002600FF75089540D9
:100ADB008106090215002600FF750895409106C096
:0A0C5A0075A15575A1AA75A1FF222E
:0E0C3300EF4E600905A1EF1F70F61E80F32240
:100C0B00AD07AC06ED4C600E7FE87E03120C33EDA6
:070C1B001D70F11C80EE22A8
:0D0C410043C60143C40843C50C43CE102236
:1009D600C29FD29EC29DC2CDC2CC4387809000D218
:1009E60012090700000082E47B0AFAF9F89000D2A7
:1009F600E0FCA3E0FDA3E0FEA3E0FF12086990007F
:100A0600D6EBF09000D2E0FCA3E0FDA3E0FEA3E06D
:100A1600FFE47B0AFAF9F81208699000D21208FB83
:100A26009000D6E0C39405401F9000D2E0FCA3E0FE
:100A3600FDA3E0FEA3E02401FFE43EFEE43DFDE469
:100A46003CFC9000D21208FBE589540F4420F5893E
:100A560043C9A09000D2A3A3A3E0F404F58DD28EDF
:040A6600D299D29CB3
:010A6A002269
:080C64003098FDC298AF9922FF
:080C6C008F993099FDD2992205
:100BD800E4F5E253E27F43E229F5E353E4BF53E24D
:0B0BE800BF53E4FB43E43043E4012270
:100C220043E10443E10243E10143D81FD2EAD2AFD8
:010C3200229F
:100B620090244C7400F0A37410F0902447E04404E5
:100B7200F0E04408F0E054FEF075D412A37400F0E3
:0F0B8200A37400F0902446E054F3F075DC0222D7
:100BB8009000D2EFF07E0078507C007D017B017AB6
:100BC8000079901207F19000D2E0F5D553D4FC22B9
:0300430002004672
:0D004600C0E0C0F0C083C082C0D075D008FB
:1000530020D903020371E5D9543F700302036124DD
:10006300E070030202F024F06015240E6003020323
:100073006D75D500E5D454FC4402F5D402036D90AC
:1000830000D0E5D1F0E0640860030202C4900006EA
:10009300E09000FDF0900007E070099000FDE0D3D0
:1000A300947F40069000FD747FF09000D0E4F090C0
:1000B3000000E05460601A9000FEE01424FD400349
:1000C3000202CA24FB24FD40030202CA800002028A
:1000D300C4900001E09000FEF0B40B004003020264
:1000E300C29000EBF82828730202A50201F4020271
:1000F300C202022F0202C20201C102010C0202C2A9
:100103000201CC0201E90202CA900003E024FE606E
:100113001E24E060302421704890010974FFF0A38D
:10012300740AF0A3748EF09000D07412F0803890AB
:10013300010974FFF0A3740AF0A374A0F09000D037
:100143007429F0802290010974FFF0A3740AF0A3CC
:1001530074C9F09000D07422F090010C7401F08007
:10016300069000D074FFF09000D0E0FF9000FDE017
:10017300D39F4002EFF09000FDE0FFC394084004DA
:100183007F0880009000D0EFF07E0078007C007D37
:1001930001900109E0FBA3E0FAA3E0F91207F19053
:1001A30000FDE0FF9000D0E0FEC3EF9E9000FDF065
:1001B300EEFF90010AE48FF01208170202CA9000C2
:1001C30002E09000FDF00202CA9000FAE090000005
:1001D300F09000FDE0C3940150030202CA9000D0E6
:1001E3007401F00202CA900002E09000FAF00202E9
:1001F300CA900000E0541F6402702E900004E024B3
:10020300FE601D2481600E14701CE5D454BC4402AE
:10021300F5D40202CAE5D254BC4402F5D20202CAA2
:1002230053D4730202CA0202C40202C4900000E063
:10023300541FFD701B900003E0FE900002E0FBEBF7
:1002430064014E7009900AA79320E57B8073807147
:10025300ED6402704B900003E0FE900002E0FDEDC0
:100263004E703B900005E0FE900004E0FDEDFFEED4
:10027300702AEF24FE60112481601714701EE5D4E8
:1002830054BF4403F5D4803FE5D4547F440CF5D4E4
:100293008035E5D254BF4403F5D2802B80238021DF
:1002A300801F900000E4F0A3F09000FDE0FFC394F2
:1002B300029000D040057402F0800CEFF0800880BB
:1002C300009000D074FFF09000D0E0FFB4FF0C90DA
:1002D30000FE74FFF075DCCF02036DEFD39408507A
:1002E300048FDD800375DD0075DCC0807D9000FE2A
:1002F300E024FB605314705E9000FDE0FFC394089C
:1003030040047F0880009000D0EFF07E0078007CEE
:10031300007D01900109E0FBA3E0FAA3E0F91207D5
:10032300F19000FDE0FF9000D0E0FEC3EF9E90004F
:10033300FDF0EEFF90010AE48FF01208179000D051
:10034300E0F5DD63DC408022E5E35480FF9000FDAF
:10035300E04FF5E3800375DD0075DC02800C90004F
:10036300D0E5D1F075DD0075DC00C2D9804030D80E
:100373001475DC0275D21075D41275E300C2DAC2AB
:10038300D9C2D8802930DA23C2DAE5DA30E21FE5B0
:10039300A220E7FB75A15575A1AA75EB81438702DE
:0E03A30075A15575A1AA75EB00800375D8FFF2
:0B03B100D0D0D082D083D0F0D0E0325A
:100BF300E4F5B943F60475EF0253F2F053F2CF4331
:080C0300F7047F64FE020C33CC
:100003008FF37F0A7E00120C3343F2807F057E005C
:10001300120C3353F27FE5F130E4FB43F11090000F
:10002300FFE5F5F0A3E5F4F09000FFE0FCA3E0FDAD
:09003300EC900090F0A3EDF02226
:100AEB007F1E7E00120C0B1209D67BFF7A0A796BE4
:100AFB00120427120BF39000FFE5F5F0A3E5F4F0D9
:100B0B00120BD8120B62120C22E4F5D3F5D5900020
:100B1B00FCF090010CF090010CE060FA2080F77F64
:100B2B00011200037BFF7A0A7976E5F15403FF90FB
:100B3B0000D5E4F0A3EFF09000FFE0FFA3E09000FE
:100B4B00D7CFF0A3EFF01204277F02120BB87F640C
:070B5B007E00120C0B80BFAD
:03000000020C4EA1
:0C0C4E00787FE4F6D8FD758121020AEBE6
:10072100E709F608DFFA8046E709F208DFFA803EBA
:1007310088828C83E709F0A3DFFA8032E309F608A7
:10074100DFFA8078E309F208DFFA807088828C830F
:10075100E309F0A3DFFA806489828A83E0A3F608C3
:10076100DFFA805889828A83E0A3F208DFFA804C9D
:1007710080D280FA80C680D4806980F28033801074
:1007810080A680EA809A80A880DA80E280CA8033DD
:1007910089828A83ECFAE493A3C8C582C8CCC58355
:1007A100CCF0A3C8C582C8CCC583CCDFE9DEE78025
:1007B1000D89828A83E493A3F608DFF9ECFAA9F0A4
:1007C100EDFB2289828A83ECFAE0A3C8C582C8CCFA
:1007D100C583CCF0A3C8C582C8CCC583CCDFEADE13
:1007E100E880DB89828A83E493A3F208DFF980CC75
:1007F10088F0EF60010E4E60C388F0ED2402B4046E
:100801000050B9F582EB2402B4040050AF23234514
:06081100822390077173C1
:10081700C5F0F8A3E028F0C5F0F8E582158270026C
:060827001583E038F02209
:10082D0075F008758200EF2FFFEE33FECD33CDCC82
:10083D0033CCC58233C5829BED9AEC99E582984005
:10084D000CF582EE9BFEED9AFDEC99FC0FD5F0D6E2
:10085D00E4CEFBE4CDFAE4CCF9A88222B800C1B90C
:10086D000059BA002DEC8BF084CFCECDFCE5F0CB4A
:10087D00F97818EF2FFFEE33FEED33FDEC33FCEB83
:10088D0033FB10D703994004EB99FB0FD8E5E4F93E
:10089D00FA227818EF2FFFEE33FEED33FDEC33FC2B
:1008AD00C933C910D7059BE99A4007EC9BFCE99A1F
:1008BD00F90FD8E0E4C9FAE4CCFB2275F010EF2F64
:1008CD00FFEE33FEED33FDCC33CCC833C810D70764
:1008DD009BEC9AE899400AED9BFDEC9AFCE899F89F
:0E08ED000FD5F0DAE4CDFBE4CCFAE4C8F92232
:0C08FB00ECF0A3EDF0A3EEF0A3EFF02270
:10090700A8828583F0D083D08212091E12091E1295
:10091700091E12091EE473E493A3C583C5F0C583BA
:10092700C8C582C8F0A3C583C5F0C583C8C582C83A
:01093700229D
:1003BC00E51024D5F582E43400F583E00510229095
:1003CC0000D23007039000D5E475F00112099002B9
:1003DC0009382000E97F2ED2008018EF540F2490AA
:1003EC00D43440D4FF30040BEF24BFB41A005003B4
:1003FC002461FFE511600215110514E51470020566
:10040C001330070E9000D2E475F001120990EF0240
:10041C00097E020B917403D2078003E4C207F51026
:10042C009000D21209A7E4F511F513F514E511604B
:10043C00077F201203FF80F57512FFC201C200C2B4
:10044C0002C203C205C206C2081203CBFF700D30F4
:10045C0007057F00120410AF14AE1322B4255FC23F
:10046C00D5C2041203CBFF24D0B40A00501A75F085
:10047C000A781130D50508B6FF0106C6A426F62069
:10048C00D5047002D20380D924CFB41A00EF5004E3
:10049C00C2E5D204020611D20180C6D20080C0D2BD
:1004AC000280BCD2D580BAD20580B47F201203FF63
:1004BC002002077401B5110040F11203BCFF1203B6
:1004CC00FF020439D208D20680951203BCFB12033A
:1004DC00BCFA1203BCF94A4B700679E27A067BFF30
:1004EC0020022EE511602A7E008E8275830012098F
:1004FC005160060EEE651270F0C2D5EBC0E0EAC09A
:10050C00E0E9C0E0EE120658D0E0F9D0E0FAD0E015
:10051C00FB120938FF60AAEBC0E0EAC0E0E9C0E0DA
:10052C001203FFD0E02401F9D0E03400FAD0E0FB54
:10053C00E5120460DCD512D980877BFF7A067954EA
:10054C00D202809C791080027908C206C208800809
:10055C00D2D5790A8004790AC2D5E512047002F565
:10056C0012E4FAFDFEFF1203BCFC7B0820011312FF
:10057C0003BCFD7B1030000A1203BCFE1203BCFF4F
:10058C007B20EC3382D592D55013C3E43000069F08
:10059C00FFE49EFEE42001039DFDE49CFCE4CBF80B
:1005AC00C201EC700CCFCECDCCE824F8F870F380FF
:1005BC0017C3EF33FFEE33FEED33FDEC33FCEB33BF
:1005CC00FB994002FB0FD8E9EB300105F8D0E0C4F1
:1005DC0048B201C0E00AEC4D4E4F78207B0070C24F
:1005EC00EAB5120040BCC0E012065AD0F0D0E020B0
:1005FC000104C4C0E0C4B201C0F01203E8D0F0D5CD
:10060C00F0EB0204391209B004D65305505804A774
:10061C004C04A34205544F055C44055C4904BC439F
:08062C0005625505464605462E
:100634004505464707025004AB2D04AF2E04D22BC8
:1006440004B32304D02006EB2A046B48000004CA38
:100654003F3F3F00790AA2D5200314300509B910A1
:10066400020404B9080104A2D520060250010420A2
:1006740002689202B511005034C0E07F20300319A3
:100684007F30A20272067205500F1206B1C202C276
:1006940006C205C2087F30800F300503E9C0E012AE
:1006A40003FF300503D0E0F9D0E0B511CC300517D5
:1006B4007F30B9100C1203FF7F583004077F788015
:1006C40003B908031203FF3002057F2D0203FF7FE5
:1006D400202008F87F2B2006F322920280CF286E78
:1006E400756C6C2900D2011203BC3001F8C2017888
:1006F4001130D50108F602046B2D504349581203FA
:10070400BC2403B405004001E49006FD931203F0F9
:0D071400743A1203F0D2037511040205506F
:10093800BB010689828A83E0225002E722BBFE02BD
:09094800E32289828A83E49322F0
:10095100BB010CE58229F582E5833AF583E022505B
:1009610006E92582F8E622BBFE06E92582F8E222A5
:0D097100E58229F582E5833AF583E49322BF
:10097E00BB010689828A83F0225002F722BBFE0158
:02098E00F32252
:10099000F8E0FBA3A3E0F925F0F0E58215827002F0
:0709A0001583E0FA38F02294
:0909A700EBF0A3EAF0A3E9F02251
:1009B000D083D082F8E4937012740193700DA3A3D6
:1009C00093F8740193F5828883E4737402936860EA
:0609D000EFA3A3A380DFEA
:100B9100EFB40A07740D120B9C740A309811A899CE
:100BA100B8130CC2983098FDA899C298B811F630C4
:070BB10099FDC299F599229C
:00000001FF
