:101F570073617472A1A3A1A3A1A3A1A26E0A002514
:101F67003032582020000A0072657320253032581D
:101F7700200A006966632025303278206B65790A6C
:101F870020006966632025303278206D6F75736590
:101F97000A20006966632025303278206D6F7573DB
:091FA700652D62696F730A2000C8
:1020ED00EF4E602D05A105A105A105A105A105A135
:1020FD0005A105A105A105A105A105A105A105A1A3
:10210D0005A105A105A105A105A1EF1F70D21E8096
:02211D00CF22CF
:10224C00AD07AC06ED4C600E7FE87E031220EDED81
:07225C001D70F11C80EE2251
:0C22BA00438901758A40758CA2D28C22E9
:101CC400C29FD29EC29DC2CDC2CC43878090015A8E
:101CD40012157100000208E47B0AFAF9F890015A1F
:101CE400E0FCA3E0FDA3E0FEA3E0FF1214D3900107
:101CF4005EEBF090015AE0FCA3E0FDA3E0FEA3E05C
:101D0400FFE47B0AFAF9F81214D390015A1215650C
:101D140090015EE0C39405401F90015AE0FCA3E0EB
:101D2400FDA3E0FEA3E02401FFE43EFEE43DFDE468
:101D34003CFC90015A121565E589540F4420F5893D
:101D440043C9A090015AA3A3A3E0F404F58DD28E55
:041D5400D299D29CB2
:011D58002268
:10229C0075A15575A1AA53B3E043B30675A1FF22EE
:10164D0012229C7F147E0012224C121CC41222BA4C
:10165D001222637BFF7A1F79571210381221A8309E
:10166D008D16C28D758A30758C7B900156E004F015
:10167D00A3E004F0A3E004F0900156E0C394014010
:10168D0072E4F07B0190015E04F0A37401F0A37489
:10169D0054F0A3EBF0A37401F0A3744AF0A3EBF0A4
:1016AD00A37401F0A37459F07A017940E4FF12009C
:1016BD0003900155EFF0703BF0900154E0FFA3E073
:1016CD00FEC39F50257BFF7A1F796674402EF582ED
:1016DD00E43401F583E0FF90015DE4F0A3EFF01237
:1016ED001038900155E004F080CF7BFF7A1F796DA3
:1016FD00121038900157E0C394015003021795E47E
:10170D00F07B0190015E04F0A37401F0A37454F01A
:10171D00A3EBF0A37401F0A3744AF0A3EBF0A37450
:10172D0001F0A37459F07A0179407F011200039002
:10173D000155EFF070527BFF7A1F796FE0FF90013A
:10174D005DE4F0A3EFF0121038E4900155F0900134
:10175D0054E0FFA3E0FEC39F50257BFF7A1F7966FF
:10176D0074402EF582E43401F583E0FF90015DE4D1
:10177D00F0A3EFF0121038900155E004F080CF7B0C
:10178D00FF7A1F796D121038900158E0C394FA500A
:10179D0003021669E4F07B0190015E04F0A374016D
:1017AD00F0A37454F07A0179407F01121C20E4906B
:1017BD000155F0900154E0FFA3E0FEC39F400302EA
:1017CD00166974412EF582E43401F583E0B4301DC1
:1017DD007BFF7A1F797A74402EF582E43401F5830C
:1017ED00E0FF90015DE4F0A3EFF012103890015589
:1017FD00E0FF2441F582E43401F583E0B4311D7B33
:10180D00FF7A1F798974402FF582E43401F583E066
:10181D00FF90015DE4F0A3EFF0121038900155E058
:10182D00FF2441F582E43401F583E0B4321D7BFFE2
:10183D007A1F799A74402FF582E43401F583E0FF25
:10184D0090015DE4F0A3EFF0121038900155E02403
:05185D0002F00217C0BB
:101EEF0080060001000012008006000200000400BE
:101EFF0000050200000000000009000000000000C3
:101F0F000201000000000000A006002900000900E7
:101F1F008106002200004100210B0000000000009C
:101F2F00210A000000000000210A007D00000000CF
:101F3F00210A001600000000210900020000010024
:081F4F00810600220000880059
:0422D2004101920034
:10215000EF75F01EA42402F582E43410F583E4F058
:10216000EF75F01EA42403F582E43410F583E4F047
:0C217000EFB40104E4F5E522E4F5E422FC
:101B6600E4900175F0E5DB30E32C901002E06005AF
:101B7600E5E420E047E4FF1221509010027402F0E1
:101B8600E5DB30E20280027F01901004EFF0900165
:101B9600757415F08026901002E0C39402401DE48F
:101BA600FF122150900175E070037416F07E007FDD
:101BB6001E7D007B017A1079001215AEE5DB30E759
:101BC6002D901020E06005E5E520E0487F01122118
:101BD600509010207402F0E5DB30E2031F80027F94
:101BE60001901022EFF09001757415F08026901088
:101BF60020E0C39402401D7F01122150900175E040
:101C060070037416F07E007F1E7D007B017A1079CA
:091C16001E1215AE900175E0FFED
:011C1F0022A2
:0C22C600EF547FFFE5E354804FF5E32266
:0E22AC00EF600753E2BF53D27F2243E240228D
:10208200CEEFCE9001917408F0E4FF1222C6EEB4B6
:10209200010F43E5027F0F7E0012224C53E5FD80C3
:1020A2000D43E4027F0F7E0012224C53E4FD7FFABF
:0820B2007E001220EDC2D822CD
:101E7800EF75F01EA42402F582E43410F583E0C364
:101E880094025011EF75F01EA42402F582E4341078
:101E9800F5837402F0EF64017025E5DB30E745E572
:101EA800E520E015E5DB30E6047F0080027F019045
:101EB8001022EFF0700343E50443E5017F0022E5BB
:101EC800DB30E320E5E420E015E5DB30E2047F00C9
:101ED80080027F01901004EFF0700343E40443E4B0
:071EE800017F00227F16229A
:1020BA00CEEFCEEE75F01EA42403F582E43410F5BB
:1020CA0083E0FF1222C6EE75F01EA42404F582E412
:1020DA003410F583E0FF1222ACEE6003D38001C313
:0320EA00920A2235
:031A7000E4FBFA9A
:0B1A7300900172EFF0A3EAF0A3EBF08B
:101A7E00CFEDCF8FD68FD4E4F5DD900172E0F5D5A2
:101A8E00C2D97F207E0320D909EF1F70011EEF4EB1
:101A9E0070F4E4F5D520D9037FFE2230D836C2D8B3
:101AAE00121B66EFB41502D209A20AE4339010029B
:101ABE0075F01E1215A2E475F01EA42583F583E0C1
:101ACE00FE70037F1622EEB402037F15227FC87EBE
:101ADE00001220ED30D96730DE037F0022E5D954A5
:101AEE000FFFB40E028043EFB40A29900173E0FC9D
:101AFE00A3E0FD4C7003EF803EC3ED94FFEC94FF2A
:101B0E00500E900174E024FFF0900173E034FFF06A
:101B1E0015DD802D900172E0C4540F24F7600D2462
:101B2E00FC6004240C7014EF6017800BEFB40304F8
:101B3E00640B600DEF600A4420FF227FFE2275D8F1
:101B4E00FF7F0F7E001220ED05DDAFDDEFC3940A9F
:071B5E005003021A887F20EA
:011B6500225D
:0B186200EBF07B007A007900E4FFFE51
:10186D0090016DEEF0A3EFF0A3EBF0A3EAF0A3E986
:10187D00F07FC87E001220ED90016FE0FBA3E0FA2F
:10188D00A3E0F9EA494B6004E412146375D7087BB1
:10189D00107A27E4FD7FD0121A73900182EFF06069
:1018AD0003E0FF2275D6D075D4D075D701900047CF
:1018BD00E060047FFF8005900046E0FF900183EF1C
:1018CD00F07003021A3D90016DE07002A3E0700309
:1018DD00021A3D900040E020E70302199E9001831B
:1018ED00E070030219987FC87E001220ED7B107AFC
:1018FD0027ADD47F90121A73900182EFF0E0FF6054
:10190D000122900183E0FFE5D1C39F5007AED1CFF7
:10191D00EECF8000900184EFF0900183E0FFA3E013
:10192D00FEC3EF9E900183F090016FE0FBA3E0FA00
:10193D00A3E0F9EA494B6004EE121441E4900185ED
:10194D00F0900184E0FFA3E0FE6F602F74002EF590
:10195D0082E43400F583E0FF90016DE0FCA3E0F537
:10196D00828C83EFF090016EE004F0700690016DB3
:10197D00E004F0900185E004F080C6E5D1600C90A4
:10198D000191E01455D170030218EAE4F5D7021A5B
:10199D003D900183E07003021A3D7FC87E00122046
:1019AD00ED900191E0FF900183E0FEC39F40028026
:1019BD0003CFEECF8FD7E4900186F0900186E0FF44
:1019CD0065D7602F90016DE0FCA3E0F5828C83E07C
:1019DD00FE74402FF582E43400F583EEF090016E35
:1019ED00E004F0700690016DE004F0900186E004D3
:1019FD00F080C87B107A27ADD67F10121A73900134
:101A0D0082EFF0E0FF600122900183E0C395D7F0F3
:101A1D0090016FE0FBA3E0FAA3E0F9EA494B7003F4
:101A2D0002199E90016FA3A3E5D712144102199ECE
:101A3D007FC87E001220EDE5D760047F9080027F85
:101A4D00107B107A277DC0121A73900182EFF0601F
:101A5D0003E0FF22E5D77002FF22E5D17002FF22DD
:021A6D007F17E1
:011A6F002254
:1021FA00E4FD8F828E83E493FC74402DF582E434EF
:0F220A0000F583ECF00FBF00010E0DEDB408E3FB
:0122190022A2
:102048009001917408F07E1E7FEF1221FA7E007FC6
:10205800407B017A01796212186DEF6001229000CD
:1020680047E0900191F0901EF5E493FF900162E043
:09207800C39F50037F17227F0073
:01208100223C
:101D59007E1E7FF71221FA7E007F407B017A01798E
:101D69006212186DEF600122901EFDE493FDC3908D
:101D79000163E09D900162E0940050037F17229077
:101D89000042E0FD900162E4F0A3EDF0D3E094405D
:101D9900900162E0940040037F17227E1E7FF712B4
:101DA90021FA900162A3E0900046F07E007F407B1B
:101DB900017A01796212186DEF600122901EFDE42B
:101DC90093FF900162E0FCA3E0FDC39FEC94004007
:101DD9000C900042E0FFED9FEC940050037F172226
:021DE9007F0079
:011DEB0022D5
:05217C00900162EFF08C
:102181007E1E7FFF1221FA900162E0900042121838
:1021910063EF600122900162E0FF1222C67F0A7E96
:0621A1000012224C7F0039
:0121A7002215
:10227A00CBEFCB7E1F7F071221FA90004212186221
:01228A002231
:10221A0090016CEFF07E1F7F471221FA7E017F6CDE
:09222A007B007A00790002186DB6
:10228B00CBEFCB7E1F7F271221FA900044121862EE
:01229B002220
:10223300CBEDCBCAEFCA7E1F7F2F1221FA90004449
:09224300EAF09000431218622237
:10211F00CBEFCBCAEECAC9EDC97E1F7F4F1221FA92
:10212F00EB2440900046F0EB2440E43AA3F09000FB
:10213F0044E9F07E007F407B007A00790012186D31
:01214F00226D
:0806EF00900162EFF0A3EDF0B1
:1006F700900040E064056003020BE7A3E06401603B
:1007070003020BE7A3E064096003020BE7A3E064BD
:10071700026003020BE7FE7F05EEC0E0EFC0E07D5D
:10072700FF900162E075F005A42487F9740135F0A4
:10073700FA7B01D0E0FFD0E0FE1215AEE490016B2A
:10074700F0A3F0900164F0A37404F0900162E075E7
:10075700F01EA42406F582E43410F583C083C0821A
:10076700900163E0D082D08375F0061215A2E0FEF7
:10077700A3E0FF900164E0FCA3E0FDC39FEC9E4073
:1007870003020B3F74402DF58274003CF583E0FFB4
:100797005403FD900166E4F0A3EDF0EF540C24FC44
:1007A70070030208A324FC7003020999240860035C
:1007B700020AAA900164E0FEA3E02440F5827400D7
:1007C7003EF583E054F0244070030208782440602B
:1007D70003020892900165E004F07006900164E05E
:1007E70004F0900169E0FE7002FF2290016AE07058
:1007F7000204F090016CE064037060F0900162E025
:10080700FF75F005A42487F582E43401F583EEF043
:10081700EF75F005A4248BF582E43401F583E0FE3F
:10082700EF75F005A42489F582E43401F583E06EC1
:100837007029900162E0FF75F005A42487F582E432
:100847003401F583E01313543FFEEF75F005A4243C
:100857008BF582E43401F583E02EF090016AE0FF26
:10086700900169E08FF0A4FF90016BE02FF0E48026
:1008770071E490016AF0900169F0900165E004F07D
:100887007017900164E004F0020AB8900165E00473
:10089700F07006900164E004F0020AB8900164E089
:1008A700FEA3E02440F58274003EF583E054F06037
:1008B7005E2490603424F0700302097024F0600312
:1008C700020988900165E004F07006900164E00475
:1008D700F0900164E0FEA3E02440F58274003EF549
:1008E70083E090016AF0020AB8900165E004F070B5
:1008F70006900164E004F0900164E0FEA3E0244068
:10090700F58274003EF583E0900169F0020AB89021
:100917000165E004F07006900164E004F090016462
:10092700E0FEA3E02440F58274003EF583E064090D
:100937006003020AB8900166E07004A3E0640160F6
:1009470003020AB890016BE0FE540760037F0022A0
:10095700EE131313541FFF900162E075F005A424F2
:1009670088F582E43401020A94900165E004F0708E
:1009770006900164E004F090016BE02408F0020A9D
:10098700B8900165E004F07006900164E004F0029D
:100997000AB8900164E0FEA3E02440F58274003EAB
:1009A700F583E054F06003020A9A900165E004F0D1
:1009B7007006900164E004F0900164E0FEA3E02477
:1009C70040F58274003EF583E0FE6430703C900190
:1009D70066E07004A3E06401703090016BE0FD54A1
:1009E7000760037F0022ED131313541FFF9001626A
:1009F700E075F005A42489F582E43401F583EFF06E
:100A070090016CE04401F0020AB8EE6431703B904B
:100A17000166E07004A3E06401702F90016BE0FEB3
:100A2700540760037F0022EE131313541FFF900136
:100A370062E075F005A4248AF582E43401F583EFBA
:100A4700F090016CE04402F08067900164E0FEA33F
:100A5700E02440F58274003EF583E06438705290DC
:100A67000166E07004A3E06401704690016BE0FE4C
:100A7700540760037F0022EE131313541FFF9001E6
:100A870062E075F005A4248BF582E43401F583EF69
:100A9700F0801E900165E004F07016900164E00498
:100AA700F0800E900165E004F07006900164E004A8
:100AB700F0900166E0FEA3E0FF900165E02FF09063
:100AC7000164E03EF0900162E0FF75F005A4248721
:100AD700F582E43401F583E0F47003020752EF7501
:100AE700F005A42488F582E43401F583E0F470036B
:100AF700020752900162E075F005A42489F582E4AB
:100B07003401F583E0F47003020752EF75F005A492
:100B1700248AF582E43401F583E0F4700302075276
:100B2700900162E075F005A4248BF582E43401F5A9
:100B370083E0F4700302075290016BE01313135420
:100B47001FFF900162E0FE75F005A42488F582E49A
:100B57003401F583E0D39F501EEE75F005A424877A
:100B6700F582E43401F583E0FF640C603FEF64082D
:100B7700603AEF64106035900163E0FF12228B90BA
:100B87000168EFF0900162E075F01EA4240AF58277
:100B9700E43410F583C083C082900163E0FFD08204
:100BA700D08375F0061215A274328026900162E098
:100BB70075F01EA4240AF582E43410F583C083C0BF
:100BC70082900163E0FFD082D08375F0061215A2F0
:100BD7007431F0E4FD122233900168EFF07F0122B7
:100BE700900040E064057059A3E064017053A3E0EE
:100BF7006409704DA3E064067047900163E0FF123B
:100C0700228B900168EFF07038900163E0FFE4FDFC
:100C1700122233900168EFF0900162E075F01EA494
:100C2700240AF582E43410F583C083C082900163FF
:100C3700E0D082D08375F0061215A27430F07F01E0
:030C4700227F0009
:010C4A002287
:050C4B0090015CEFF0D8
:100C5000122082E490015EF0A3F07F017E00122258
:100C60004C90015CE0FF121E78EF700E90015EF078
:100C7000A3E004F0E0D3940A500C90015EE004F08D
:100C8000E0C3946440D490015EE0600B90015CE0AE
:100C9000FF1221507F032290015CE0FF1220BA1264
:100CA000204890015FEFF06003020FC5900044E020
:100CB000900161F0901F01E493FF90015CE02FFF31
:100CC00012217C90015FEFF06003020FC5901F01BD
:100CD00093FF90015CE0FE2FFFEE75F01EA424034D
:100CE000F582E43410F583EFF0121D5990015FEFA7
:100CF000F06003020FC5900044E0FF90015CE0FE4D
:100D000075F01EA42405F582E43410F583EFF0EEAF
:100D100075F01EA42405F582E43410F583E0D39425
:100D20000440037F0422900045E0900160F09000B1
:100D30004EE0FF900161E06003020FC5EF640360C5
:100D400003020FC590004FE0D394014003020FC58A
:100D5000E490015FF090015EF090015CE0FF75F0BF
:100D60001EA42405F582E43410F583E0FE90015EB4
:100D7000E0C39E4003020F36A3E0FE2441F582E467
:100D80003400F583E0B4021274402EF582E434009E
:100D9000F583E0FE90015FE02EF090015FE0FE241D
:100DA00041F582E43400F583E0B4042174442EF567
:100DB00082E43400F583E090015DF074402EF5820A
:100DC000E43400F583E0FE90015FE02EF090015FD7
:100DD000E0FE2441F582E43400F583E06421600301
:100DE000020E9A74402EF582E43400F583E0FE9002
:100DF000015FE02EF0E0FD243FF582E43400F5834E
:100E0000E0FBEF75F01EA42406F582E43410F583B0
:100E1000C083C08290015EE0D082D08375F006125C
:100E200015A2E4F0A3EBF090015CE0FC75F01EA4C9
:100E30002406F582E43410F583C083C08290015EFD
:100E4000E0D082D08375F0061215A2C083C082A3C1
:100E5000E0D082D083F0A3E4F0EC75F01EA4240669
:100E6000F582E43410F583C083C08290015EE0D047
:100E700082D08375F0061215A2C083C082E0FEA363
:100E8000E0FF743E2DF582E43400F583E0FDEF4D84
:100E9000FFD082D083EEF0A3EFF090015FE0244119
:100EA000F582E43400F583E064056003020F2D90C1
:100EB000015DE0FF14F0EF607490015FE0FF2442F9
:100EC000F582E43400F583E030E714540FFE90011E
:100ED0005CE075F01EA42408F582E43410802490B0
:100EE000015FE0FF2442F582E43400F583E020E76F
:100EF000BE540FFE90015CE075F01EA42409F5823B
:100F0000E43410F583C083C08290015EE0D082D0CB
:100F10008375F0061215A2EEF074402FF582E434CA
:100F200000F583E0FF90015FE02FF0808290015E8A
:100F3000E004F0020D59900160E0FF12227A900166
:100F40005FEFF06003020FC590015EF090015CE07E
:100F5000FF75F01EA42405F582E43410F583E0FE4D
:100F600090015EE0FDC39E5043EF75F01EA4240681
:100F7000F582E43410F58375F006ED1215A2E0FE5B
:100F8000A3E0FF12211F90015FEFF0701490015C4D
:100F9000E0FF90015EE0FD1206EF90015FEFF08050
:100FA000037F042290015EE004F080A090100AE02C
:100FB000B4300F901028E0B43008900193E0FF1295
:0C0FC000221A7F10227F011222AC7F0653
:010FCC002202
:101FB000E490015BF090015BE0FF64026047EF7525
:101FC000F01EA42402F582E43410F583E06402706C
:101FD0002C120C4BEF90015B6012E075F01EA424F4
:101FE00002F582E43410F583EFF08011E075F01E05
:101FF000A42402F582E43410F5837410F090015BA0
:07200000E004F080B07F0056
:0120070022B6
:10200800C2EA75E280E4F5E39024477448F090242E
:102018004C7400F0A37400F090244E7400F0A37484
:1020280040F0E4F5D4F5D675E28975D24075D8FF4D
:0F203800FECFEECF1221500EEEB402F575E1038C
:012047002276
:1021A800C2D8121B6690015AEFF0BF1502D209205F
:1021B800090790015AE0B41511C2097FC87E0012C0
:0A21C800224C121FB090015AEFF0F4
:0121D20022EA
:10226300122008E4900193F0C209FE7F3CFD7B013C
:072273007A1079000215AE9C
:1000030090015BEBF0A3EAF0A3E9F090015AEFF063
:1000130090015EE0FBA3E0FAA3E0F9E4121463EFBE
:1000230075F01EA42402F582E43410F583E0641015
:1000330060037F012290015AE0FF1220BA90015A17
:10004300E075F01EA42405F582E43410F583E090F6
:100053000169F0E4A3F0900169E0FFA3E0FEC39F10
:1000630040030206EC90015AE075F01EA4240AF541
:1000730082E43410F58375F006EE1215A2E06430C5
:10008300600302021D90015AE0FE75F01EA42408CD
:10009300F582E43410F583C083C08290016AE0FDE9
:1000A300D082D08375F0061215A2E04490FFEE755E
:1000B300F01EA4240BF582E43410F58375F006EDED
:1000C3001215A2E060047DC080027D00121A7090B8
:1000D3000168EFF060030206E390016BE5D1F09055
:1000E300015EE0FBA3E0FAA3E0F9121428FF9001FC
:1000F3005BE0FBA3E0FAA3E0F98F82758300743021
:1001030012147590015EE0FBA3E0FAA3E0F9740119
:10011300121441900002E0B4390B900193E06402A1
:10012300FFF012221A900002E0B4530B900193E007
:100133006401FFF012221A900002E0B4470B900111
:1001430093E06404FFF012221A90100AE0B4301D09
:10015300901028E0B4301690015AE06401FF90013A
:1001630068F01220BA900193E0FF12221AE4900182
:1001730068F090016BE0FF900168E0FE6F603F74F0
:10018300002EF582E43400F583E0FF90015EE0FB8E
:10019300A3E0FAA3E0F9121428FD900168E02DFD15
:1001A300E433FC90015BE0FBA3E0FAA3E0F98D826A
:1001B3008C83EF121475900168E004F080B4900111
:1001C3006BE0FF90015EE0FBA3E0FAA3E0F9EF121E
:1001D300144190015AE0FF75F01EA4240BF582E44C
:1001E3003410F583C083C08290016AE0FED082D0D0
:1001F3008375F0061215A2E060047D0080027D0184
:10020300EF75F01EA4240BF582E43410F58375F02A
:1002130006EE1215A2EDF07F002290015AE0FE7562
:10022300F01EA4240AF582E43410F583C083C0824F
:1002330090016AE0FDD082D08375F0061215A2E02A
:1002430064316003020583EE75F01EA42408F58271
:10025300E43410F58375F006ED1215A2E04490FF27
:10026300EE75F01EA4240BF582E43410F58375F0CB
:1002730006ED1215A2E060047DC080027D00121A13
:1002830070900168EFF060030206E390015EE0FB0B
:10029300A3E0FAA3E0F9121428FF90015BE0FBA3AB
:1002A300E0FAA3E0F98F827583007431121475901C
:1002B300015EE0FBA3E0FAA3E0F97401121441909C
:1002C300015AE0FF75F01EA4240BF582E43410F507
:1002D30083C083C08290016AE0FED082D08375F030
:1002E300061215A2E060047D0080027D01EF75F027
:1002F3001EA4240BF582E43410F58375F006EE1288
:1003030015A2EDF0900161E0FBA3E0FAA3E0F9EAA6
:10031300494B603EA3E0FBA3E0FAA3E0F9EA494BB3
:100323006030E4A3F0AFD1FE900161E0FBA3E0FAFB
:10033300A3E0F8CCEACCCDEBCD7B017A00790012B7
:100343001402900164E0FBA3E0FAA3E0F9E5D11203
:10035300146390015AE0FF75F005A42488F582E444
:100363003401F583E02400F582E43400F583E0FDF5
:1003730090015EE0FBA3E0FAA3E0F9121428FE90DB
:10038300015BE0FBA3E0FAA3E0F98E82758300ED45
:10039300121475EF75F005A42487F582E43401F592
:1003A30083E0640C600302043990015AE075F005A0
:1003B300A42489F582E43401F583E02400F582E482
:1003C3003400F583E0FFEE2401FDE433FC90015B90
:1003D300E0FBA3E0FAA3E0F98D828C83EF1214759E
:1003E30090015AE075F005A42489F582E43401F5FF
:1003F30083E02401F582E43400F583E0540FFFEE3B
:100403002402FDE433FC8D82F583EF121475900111
:100413005AE075F005A42489F582E43401F583E0FC
:100423002402F582E43400F583E054F0C454F08DE3
:10043300828C830204FC90015AE0FF75F005A4242A
:1004430087F582E43401F583E06410704FEF75F0B3
:1004530005A42489F582E43401F583E02400F582C0
:10046300E43400F583E0FFEE2401FDE433FC900166
:100473005BE0FBA3E0FAA3E0F98D828C83EF121417
:100483007590015AE075F005A42489F582E43401DE
:10049300F583E02402F582E43400805090015AE0B1
:1004A30075F005A42489F582E43401F583E0240082
:1004B300F582E43400F583E0FFEE2401FDE433FC30
:1004C30090015BE0FBA3E0FAA3E0F98D828C83EF5C
:1004D30012147590015AE075F005A42489F582E49D
:1004E3003401F583E02401F582E43400F583E0FF71
:1004F300EEF582758300A3A3EF12147590015AE001
:1005030075F005A4248BF582E43401F583E0FFC381
:1005130095D1503274002FF582E43400F583E0FF67
:1005230090015EE0FBA3E0FAA3E0F9121428240390
:10053300FDE433FC90015BE0FBA3E0FAA3E0F98D5B
:10054300828C83EF802490015EE0FBA3E0FAA3E0BA
:10055300F91214282403FFE433FE90015BE0FBA3AC
:10056300E0FAA3E0F98F828E83E412147590015EA2
:10057300E0FBA3E0FAA3E0F974041214417F002224
:1005830090015AE0FE75F01EA4240AF582E43410AB
:10059300F583C083C08290016AE0FDD082D0837569
:1005A300F0061215A2E0643260030206E3EE75F072
:1005B3001EA42408F582E43410F58375F006ED12C9
:1005C30015A2E04490FFEE75F01EA4240BF582E41F
:1005D3003410F58375F006ED1215A2E060047DC0BA
:1005E30080027D00E4FBFA121A73900168EFF06059
:1005F300030206E390015EE0FBA3E0FAA3E0F91235
:100603001428FF90015BE0FBA3E0FAA3E0F98F82DB
:10061300758300743212147590015EE0FBA3E0FA57
:10062300A3E0F97401121441E4900167F0900167AB
:10063300E0FF65D1603F74002FF582E43400F58359
:10064300E0FF90015EE0FBA3E0FAA3E0F9121428B7
:10065300FD900167E02DFDE433FC90015BE0FBA31B
:10066300E0FAA3E0F98D828C83EF12147590016791
:10067300E004F080B890015AE0FF75F01EA4240B4B
:10068300F582E43410F583C083C08290016AE0FEF2
:10069300D082D08375F0061215A2E060047D00803D
:1006A300027D01EF75F01EA4240BF582E43410F5EE
:1006B3008375F006EE1215A2EDF090015EE0FBA348
:1006C300E0FAA3E0F9121428B4031290015BE0FBF3
:1006D300A3E0FAA3E0F9900003E41214757F00226B
:0B06E30090016AE004F00200597F0360
:0106EE0022E9
:0B1C200090015BEBF0A3EAF0A3E9F0F9
:101C2B00EF75F01EA42402F582E43410F583E06412
:101C3B00107076FEEF75F01EA42405F582E43410C7
:101C4B00F583E0FDEEC39D506F90015BE0FBA3E0DD
:101C5B00FAA3E0F975F002EEA4F58285F083EE129B
:101C6B001475EF75F01EA4240AF582E43410F58385
:101C7B0075F006EE1215A2E0FD90015BE0FBA3E010
:101C8B00FAA3E0F975F002EEA42401F582E435F035
:101C9B00F583ED12147590015EE0FBA3E0FAA3E06F
:101CAB00F974021214410E808B90015EE0FBA3E0ED
:081CBB00FAA3E0F9E41214633E
:011CC30022FE
:03000000021DECF2
:0C1DEC00787FE4F6D8FD758121021E33DB
:10133200E709F608DFFA8046E709F208DFFA803E9D
:1013420088828C83E709F0A3DFFA8032E309F6088A
:10135200DFFA8078E309F208DFFA807088828C83F2
:10136200E309F0A3DFFA806489828A83E0A3F608A6
:10137200DFFA805889828A83E0A3F208DFFA804C80
:1013820080D280FA80C680D4806980F28033801057
:1013920080A680EA809A80A880DA80E280CA8033C0
:1013A20089828A83ECFAE493A3C8C582C8CCC58338
:1013B200CCF0A3C8C582C8CCC583CCDFE9DEE78008
:1013C2000D89828A83E493A3F608DFF9ECFAA9F087
:1013D200EDFB2289828A83ECFAE0A3C8C582C8CCDD
:1013E200C583CCF0A3C8C582C8CCC583CCDFEADEF6
:1013F200E880DB89828A83E493A3F208DFF980CC58
:1014020088F0EF60010E4E60C388F0ED2402B40450
:101412000050B9F582EB2402B4040050AF232345F7
:0614220082239013827387
:10142800BB010689828A83E0225002E722BBFE02C2
:09143800E32289828A83E49322F5
:10144100BB010989828A83F8E028F022500327F73B
:1014510022BBFE05F8E328F3228A838982F8E4930C
:0214610028223F
:10146300BB010689828A83F0225002F722BBFE0168
:02147300F32262
:10147500F8BB010DE58229F582E5833AF583E8F0AD
:10148500225006E92582C8F622BBFE05E92582C859
:02149500F22241
:1014970075F008758200EF2FFFEE33FECD33CDCC0C
:1014A70033CCC58233C5829BED9AEC99E58298408F
:1014B7000CF582EE9BFEED9AFDEC99FC0FD5F0D66C
:1014C700E4CEFBE4CDFAE4CCF9A88222B800C1B996
:1014D7000059BA002DEC8BF084CFCECDFCE5F0CBD4
:1014E700F97818EF2FFFEE33FEED33FDEC33FCEB0D
:1014F70033FB10D703994004EB99FB0FD8E5E4F9C8
:10150700FA227818EF2FFFEE33FEED33FDEC33FCB4
:10151700C933C910D7059BE99A4007EC9BFCE99AA8
:10152700F90FD8E0E4C9FAE4CCFB2275F010EF2FED
:10153700FFEE33FEED33FDCC33CCC833C810D707ED
:101547009BEC9AE899400AED9BFDEC9AFCE899F828
:0E1557000FD5F0DAE4CDFBE4CCFAE4C8F922BB
:0C156500ECF0A3EDF0A3EEF0A3EFF022F9
:10157100A8828583F0D083D0821215881215881233
:101581001588121588E473E493A3C583C5F0C58358
:10159100C8C582C8F0A3C583C5F0C583C8C582C8C4
:0115A1002227
:0C15A200A42582F582E5F03583F5832254
:100FCD00E508245DF582E43401F583E005082290FF
:100FDD00015A30070390015DE475F0011216070206
:100FED0014282000E97F2ED2008018EF540F249092
:100FFD00D43440D4FF30040BEF24BFB41A00500397
:10100D002461FFE50960021509050CE50C70020568
:10101D000B30070E90015AE475F001121607EF021E
:10102D0014630221D37403D2078003E4C207F508C9
:10103D0090015A12161EE4F509F50BF50CE5096041
:10104D00077F2012101080F5750AFFC201C200C281
:10105D0002C203C205C206C208120FDCFF700D30BA
:10106D0007057F00121021AF0CAE0B22B4255FC215
:10107D00D5C204120FDCFF24D0B40A00501A75F04B
:10108D000A780930D50508B6FF0106C6A426F62054
:10109D00D5047002D20380D924CFB41A00EF5004C6
:1010AD00C2E5D204021222D20180C6D20080C0D283
:1010BD000280BCD2D580BAD20580B47F2012101028
:1010CD002002077401B5090040F1120FCDFF121077
:1010DD001002104AD208D2068095120FCDFB120FC6
:1010ED00CDFA120FCDF94A4B700679F37A127BFFC8
:1010FD0020022EE509602A7E008E8275830012156E
:10110D00DA60060EEE650A70F0C2D5EBC0E0EAC0FB
:10111D00E0E9C0E0EE121269D0E0F9D0E0FAD0E0DB
:10112D00FB121428FF60AAEBC0E0EAC0E0E9C0E0C2
:10113D00121010D0E02401F9D0E03400FAD0E0FB19
:10114D00E50A0460DCD50AD980877BFF7A127965C0
:10115D00D202809C791080027908C206C2088008EC
:10116D00D2D5790A8004790AC2D5E50A047002F550
:10117D000AE4FAFDFEFF120FCDFC7B0820011312CD
:10118D000FCDFD7B1030000A120FCDFE120FCDFFDB
:10119D007B20EC3382D592D55013C3E43000069FEB
:1011AD00FFE49EFEE42001039DFDE49CFCE4CBF8EE
:1011BD00C201EC700CCFCECDCCE824F8F870F380E2
:1011CD0017C3EF33FFEE33FEED33FDEC33FCEB33A2
:1011DD00FB994002FB0FD8E9EB300105F8D0E0C4D4
:1011ED0048B201C0E00AEC4D4E4F78207B0070C232
:1011FD00EAB50A0040BCC0E012126BD0F0D0E0207E
:10120D000104C4C0E0C4B201C0F0120FF9D0F0D592
:10121D00F0EB02104A12162710E75311615810B85F
:10122D004C10B44211654F116D44116D4910CD43F1
:08123D001173551157461157BA
:101245004511574713135010BC2D10C02E10E32B1A
:1012550010C42310E12012FC2A107C48000010DB8A
:101265003F3F3F00790AA2D5200314300509B91084
:10127500020404B9080104A2D52006025001042085
:1012850002689202B509005034C0E07F203003198E
:101295007F30A20272067205500F1212C2C202C23C
:1012A50006C205C2087F30800F300503E9C0E01291
:1012B5001010300503D0E0F9D0E0B509CC300517A2
:1012C5007F30B9100C1210107F583004077F7880DA
:1012D50003B908031210103002057F2D0210107F8C
:1012E500202008F87F2B2006F322920280CF286E5B
:1012F500756C6C2900D201120FCD3001F8C201784E
:101305000930D50108F602107C2D50434958120FBB
:10131500CD2403B405004001E490130E931210018F
:0D132500743A121001D2037509040211611F
:1015AE00EF4E6012EF60010EEDBB010B89828A8354
:1015BE00F0A3DFFCDEFA2289F05007F709DFFCA961
:0C15CE00F022BBFEFCF309DFFCA9F022B8
:101DF80002164DE493A3F8E493A34003F68001F29E
:101E080008DFF48029E493A3F85407240CC8C333EB
:101E1800C4540F4420C8834004F456800146F6DFBA
:101E2800E4800B01020408102040809022D2E47E56
:101E3800019360BCA3FF543F30E509541FFEE493AF
:101E4800A360010ECF54C025E060A840B8E493A376
:101E5800FAE493A3F8E493A3C8C582C8CAC583CAA1
:101E6800F0A3C8C582C8CAC583CADFE9DEE780BE59
:0122D6000007
:1015DA00BB010CE58229F582E5833AF583E02250C6
:1015EA0006E92582F8E622BBFE06E92582F8E22210
:0D15FA00E58229F582E5833AF583E493222A
:10160700F8E0FBA3A3E0F925F0F0E582158270026C
:071617001583E0FA38F02210
:09161E00EBF0A3EAF0A3E9F022CD
:10162700D083D082F8E4937012740193700DA3A352
:1016370093F8740193F5828883E473740293686066
:06164700EFA3A3A380DF66
:1021D300EFB40A07740D1221DE740A309811A8991E
:1021E300B8130CC2983098FDA899C298B811F6306C
:0721F30099FDC299F5992244
:00000001FF
