:10D990005553422064657620696E0A005553422033
:10D9A000646576206F75740A00536574557362431D
:10D9B0006F6E6669673A200A000A0020202530321F
:10D9C0007800737373737373737373737373737395
:10D9D0007373730A006E756D203020253032780A1B
:10D9E000006E756D206E20253032780A0049742053
:10D9F0006973206661743136210A004974206973A5
:10DA0000206661743332210A004974206973204E04
:10DA1000544653210A0073797374656D20756E6BDB
:10DA20006E6F776E21202530327820200A0043481F
:10DA300035353976536563746F7253697A65483A40
:10DA40002025303264200A00434835353976536545
:10DA500063506572436C75733A2025303264200A36
:10DA6000004348353539764469736B526F6F743AA9
:10DA700020256C64200A00434835353976536563A8
:10DA80004664743A20256C64200A004348353539D1
:10DA9000764E756D4664743A2025303264200A0053
:10DAA000434835353976536563526573763A202598
:10DAB000303264200A004348353539764461746158
:10DAC00053746172743A20256C64200A004348350F
:10DAD0003539764664744C62613A20256C64200ABC
:10DAE0000043483535397646696C6553697A653A3D
:10DAF00020256C64200A004348353539765374611B
:10DB00007274436C75737465723A20256C64200AD4
:10DB10000043483535397643757272656E744F66C9
:10DB2000667365743A20256C64200A004E6578742B
:10DB3000436C75734E756D3A2078256C78200A0019
:10DB40007265737673697A653A2078256C78200A55
:10DB500000526573657420686F737420706F7274FF
:10DB60000A0044697361626C6520686F7374207089
:10DB70006F72742062656361757365206F662064DF
:10DB80006973636F6E6E6563740A004765744465FC
:10DB90007644657363723A2000782530325820004D
:10DBA00047657443666744657363723A200A0049A7
:10DBB0006E6974526F6F7444657620457272203DB1
:10DBC00020253032580A0053746172742040436833
:10DBD000697049443D253032580A00576169742004
:10DBE00044657669636520496E0A0057616974204F
:10DBF0004469736B52656164790A00444252200A99
:10DC000000434845434B200A005265616420666921
:10DC10006C653A20253032780A00546865726520B8
:10DC20006973206E6F2066696C6521200A00B3F568
:10DC3000CABCBBAF55C5CCCAA7B0DCA3ACC7EBB060
:10DC4000CECFC255C5CCD6D8CAD40A0080060001B2
:10DC5000000012008006000200000400000502001F
:10DC600000000000000900000000000002010000A8
:10DC700000000000A1FE000000000100A1FF000064
:10DC800000000000444F574E4C4F414442494E0063
:10EDCD0075A15575A1AA43B34053B37F75A1FF2219
:04EDBB007FC87E008F
:0EEDBF00EF4E600905A1EF1F70F61E80F322D3
:10EDA400AD07AC06ED4C600E7FE87E0312EDBFEDBF
:07EDB4001D70F11C80EE222E
:10E8F200C29FD29EC29DC2CDC2CC43878090066386
:10E9020012D8EC00000082E47B0AFAF9F890066360
:10E91200E0FCA3E0FDA3E0FEA3E0FF12D8179006FF
:10E9220067EBF0900663E0FCA3E0FDA3E0FEA3E04A
:10E93200FFE47B0AFAF9F812D81790066312D8E0BE
:10E94200900667E0C39405401F900663E0FCA3E0D5
:10E95200FDA3E0FEA3E02401FFE43EFEE43DFDE46E
:10E962003CFC90066312D8E0E589540F4420F589F7
:10E9720043C9A0900663A3A3A3E0F404F58DD28E4D
:04E98200D299D29CB8
:01E98600226E
:04EDF900750E012270
:10EB0500E490069DF0E5DB30E322E50E6401600547
:10EB1500E5E420E03312EDF9750E027BFF7AD97931
:10EB25009012D33990069D7415F0801CE50EC394A0
:10EB350002401512EDF97BFF7AD9799C12D33990F1
:0DEB4500069DE070037416F090069DE0FF41
:01EB520022A0
:06EDF300EF547FF5E3225E
:10ECFB009006D37408F0E4FF12EDF3E5E454FB4403
:10ED0B0002F5E47F0F7E0012EDA453E4FD7FFA7E43
:07ED1B000012EDBFC2D82277
:10ED8C00E50EC394025003750E02E5DB30E3064337
:08ED9C00E4017F00227F162232
:0DE671009006D2E04410FF7B107A27ADD652
:0BE67E0090069AEFF0A3EAF0A3EBF087
:10E68900CFEDCF8FD68FD4E4F5DD90069AE0F5D59E
:10E69900C2D97FC87E0020D909EF1F70011EEF4E35
:10E6A90070F4E4F5D520D9037FFE2230D81EC2D8F4
:10E6B90012EB05EFB41502D20AE50EB401037F1679
:10E6C90022E50EB402037F152212EDBB30D9673063
:10E6D900DE037F0022E5D9540FFFB40E028043EF19
:10E6E900B40A2990069BE0FCA3E0FD4C7003EF807F
:10E6F9003EC3ED94FFEC94FF500E90069CE024FF7E
:10E70900F090069BE034FFF015DD802D90069AE02D
:10E71900C4540F24F7600D24FC6004240C7014EF1A
:10E729006017800BEFB40304640B600DEF600A44BB
:10E7390020FF227FFE2275D8FF7F0F7E0012EDBFDA
:0FE7490005DDAFDDEFC39403500302E6937F209D
:01E75800229E
:0AE0A1007E007F407B007A007908C2
:10E0AB00900667EEF0A3EFF0A3EBF0A3EAF0A3E981
:01E0BB00F074
:10E0BC0012EDBB900669E0FBA3E0FAA3E0F9EA4994
:10E0CC004B6004E412D76475D7087B107A27E4FD03
:10E0DC007FD012E67E90066CEFF06003E0FF2275B5
:10E0EC00D6D075D4D075D701900047E060047FFF7F
:10E0FC008005900046E0FF90066DEFF0700302E2A1
:10E10C0052900667E07002A3E0700302E2529000A6
:10E11C0040E020E70302E1C890066DE0700302E1E5
:10E12C00C212EDBB7B107A27ADD47F9012E67E90A5
:10E13C00066CEFF0E0FF60012290066DE0FFE5D188
:10E14C00C39F5007AED1CFEECF800090066EEFF09C
:10E15C0090066DE0FFA3E0FEC3EF9E90066DF0907D
:10E16C000669E0FBA3E0FAA3E0F9EA494B6004EE90
:10E17C0012D742E4FF90066EE06F602A74002FF510
:10E18C0082E43400F583E0FE900667E0FCA3E0F542
:10E19C00828C83EEF0900668E004F07006900667BF
:10E1AC00E004F00F80CFE5D1600C9006D3E014555D
:10E1BC00D1700302E124E4F5D702E25290066DE03F
:10E1CC00700302E24F12EDBB9006D3E0FF90066D98
:10E1DC00E0FEC39F40028003CFEECF8FD7E4FFEF6A
:10E1EC0065D7602A900667E0FCA3E0F5828C83E09B
:10E1FC00FE74402FF582E43400F583EEF09006684F
:10E20C00E004F07006900667E004F00F80D17B10FC
:10E21C007A27ADD67F1012E67E90066CEFF0E0FF09
:10E22C0060012290066DE0C395D7F0900669E0FB83
:10E23C00A3E0FAA3E0F9EA494B6081E5D712D74293
:10E24C0002E1C875D70112EDBBE5D760047F908061
:10E25C00027F107B107A277DC012E67E90066CEF51
:10E26C00F06003E0FF22E5D77002FF22E5D17002D7
:04E27C00FF227F17E7
:01E28000227B
:10ED6C00E4FD8F828E83E493FC74402DF582E434B1
:0FED7C0000F583ECF00FBF00010E0DEDB408E3BE
:01ED8B002265
:10EB9D009006D37408F07EDC7F4C12ED6C7E007F06
:10EBAD00407B007A00790812E0ABEF600122900003
:10EBBD0047E09006D3F090DC52E493FFE508C39F45
:07EBCD0050037F17227F00B7
:01EBD400221E
:10E987007EDC7F5412ED6C12E0A1EF60012290DC77
:10E997005AE493FEE508C39E50037F172290004276
:10E9A700E0F508E508D3944040037F17227EDC7F1B
:10E9B7005412ED6C900046E508F012E0A1EF6001FB
:10E9C7002290DC5AE493FFE508C39F400A90004277
:10E9D700E0FFE5089F50037F1722900045E0FF12F4
:10E9E700ECA7900054E0FDD39480400D90005BE0CD
:10E9F700540F9006D2F0ED800E900054E0540F9023
:0FEA070006D2F090005BE0540F9006DEF07F0027
:01EA160022DD
:05EC4400900666EFF0F0
:10EC49007EDC7F5C12ED6C900666E0900042F07B02
:10EC5900007A007900E4FFFE12E0ABEF6001229038
:10EC69000666E0FF12EDF37F0A7E0012EDA47F0035
:01EC79002278
:10ECA700900666EFF07BFF7AD979A912D3397EDC1B
:10ECB7007F6412ED6C900666E0900042F07B007A6C
:0AECC700007900E4FFFE12E0AB222A
:10ECD1007EDC7F7C12ED6C7E007F407B007A0079C8
:10ECE1001312E0ABEF60012290DC82E493FFE513A5
:09ECF100C39F50037F17227F002E
:01ECFA0022F7
:10EBD5007EDC7F7412ED6C7E007F407B007A0079CD
:10EBE5000812E0ABEF60012290DC7AE493FFE508C0
:10EBF500C39F50037F1722900040E09006DFF07519
:07EC0500D6C075D4C07F00EA
:01EC0C0022E5
:08DC9000900691EEF0A3EFF005
:10DC9800E4900695F09000407455F0A37453F0A3F7
:10DCA8007442F0A304F0A3E4F0A3F0A304F0A3E407
:10DCB800F09000597407F0A37405F0A37481F0A3E1
:10DCC8007402F0A37440F0A3E4F075D71F900049E4
:10DCD800E0FE900048E0FDEDFFE4FCFD90069612A2
:10DCE800D8E063D64012E671900693EFF0E0FF604B
:10DCF8000122900696E0FCA3E0FDA3E0FEA3E0FF6E
:10DD0800EC4D4E4F700302DE8F90004CE070030222
:10DD1800DDEB900696E0FCA3E0FDA3E0FEA3E0FFA8
:10DD2800EC4D4E4F700302DE8F12EDBB63D4809032
:10DD380006DEE04490FF74FFFBFAADD412E67E9055
:10DD48000693EFF0E0FF600122AFD1E4FCFDFE9006
:10DD58000696E0F8A3E0F9A3E0FAA3E0FBD312D813
:10DD6800A94004AFD18008900696A3A3A3E0FF9032
:10DD78000695EFF0A3E0FCA3E0FDA3E0FEA3E0FF1F
:10DD8800EFC0E0900695E0FBD0E0FFC3EF9BFFEE0D
:10DD98009400FEED9400FDEC9400FCA312D8E0E49E
:10DDA800900694F0900695E0FF900694E0FE6F7060
:10DDB8000302DD1A74002EF582E43400F583E0FFD7
:10DDC800900691E0FCA3E0F5828C83EFF090069238
:10DDD800E004F07006900691E004F0900694E004E8
:10DDE800F080C112EDBBE47F40FEFDFC900696E09A
:10DDF800F8A3E0F9A3E0FAA3E0FBC312D8A9400412
:10DE08007F408008900696A3A3A3E0FF8FD7E490F5
:10DE18000694F0900694E0FF65D7602F900691E095
:10DE2800FCA3E0F5828C83E0FE74402FF582E43495
:10DE380000F583EEF0900692E004F07006900691EB
:10DE4800E004F0900694E004F080C812E6719006B1
:10DE580093EFF0E0FF600122900696E0FCA3E0FD5E
:10DE6800A3E0FEA3E0FFEFC0E0AFD7CBEFCBD0E05D
:10DE7800FFC3EF9BFFEE9400FEED9400FDEC9400D1
:10DE8800FC90069612D8E012EDBB63D4809006DEB3
:10DE9800E04490FF7B107A27ADD412E67E9006937B
:0CDEA800EFF0E0FF60012290000CE0FFB2
:01DEB400224B
:08EA9800900240EEF0A3EFF044
:10EAA000E4A3F09000487424F0A3E4F0A3F0A3F0F2
:10EAB000A37480F09006DFE0FF90004DF0A3740691
:10EAC000F0A37412F0EFC454F0A3F0A3E4F0A3F0A9
:10EAD000A37424F0A3E4F0A3F0A3F0A304F0A3E450
:10EAE000F0900240E0FEA3E0FF12DC90900243EFC2
:10EAF000F0600C900242E004F0E0C3940340A49064
:04EB00000243E0FFED
:01EB040022EE
:08E83700900689EEF0A3EFF05A
:10E83F00E490068FF0900048E4F0A37402F0A3E494
:10E84F00F0A3F0A37480F09006DFE0FF90004DF08E
:10E85F00A3740AF0A37428F0EFC454F0A3F0900649
:10E86F008BE0FCA3E0FDA3E0FEA3E0FF781812D835
:10E87F00BA900051EFF090068BE0FCA3E0FDA3E00F
:10E88F00FEA3E0FF781012D8BA900052EFF0900676
:10E89F008BE0FCA3E0FDA3E0FEA3E0FF780812D815
:10E8AF00BA900053EFF090068BA3A3A3E09000540F
:10E8BF00F0A3E4F0A3F0A304F0A3E4F0900689E042
:10E8CF00FEA3E0FF12DC90900690EFF0600F900631
:10E8DF008FE004F0E0C39403500302E844900690E5
:02E8EF00E0FF48
:01E8F1002204
:0AC80400900663EEF0FAA3EFF0FBDC
:10C80E00E4900669F0A3F09006667404F09006D4E6
:10C81E0012D8EC00000000CFEBCFCEEACEEEC0E097
:10C82E00EFC0E090068B12D8EC00000000D0E0FFC5
:10C83E00D0E0FE12E837900665EFF0C3900669E08F
:10C84E0094025031E0FEA3E0FF900663E0FCA3E00B
:10C85E002FF582EC3EF583E0FD74602FF5827404B3
:10C86E003EF583EDF090066AE004F070CE90066916
:10C87E00E004F080C6E4900669F0A3F0900669E04B
:10C88E00FEA3E0FFC3EE94025041EF540F70097BFC
:10C89E00FF7AD979B912D3397BFF7AD979BB900651
:10C8AE0069E0FEA3E02460F58274043EF583E0FFA8
:10C8BE009006A1E4F0A3EFF012D33990066AE004DB
:10C8CE00F070B9900669E004F080B19006677401CB
:10C8DE00F0A374BEF0900665E0600302CE6690068B
:10C8EE0066E0700302CA5DA3E0FEA3E0246AF5824F
:10C8FE0074043EF583E0FFE4FCFDFE781012D8CD03
:10C90E00ECC0E0EDC0E0EEC0E0EFC0E0900667E006
:10C91E00FEA3E0246BF58274043EF583E0FFE4FC95
:10C92E00FDFE781812D8CDD0E0FBD0E0FAD0E0F9B9
:10C93E00D0E0F8EF4BFFEE4AFEED49FDEC48FCC8A7
:10C94E00ECC8C9EDC9CAEECACBEFCB900667E0FEC4
:10C95E00A3E02469F58274043EF583E0FEEA4EFA04
:10C96E00900667E0FEA3E02468F58274043EF5832A
:10C97E00E0FFEB4FFFEAFEE9FDE8FC9006D412D88B
:10C98E00E0E4FFFE7D02FC9006D4E0F8A3E0F9A3FC
:10C99E00E0FAA3E0FBC312D8A9400302CA467E0206
:10C9AE007F50EEC0E0EFC0E09006D4E0FCA3E0FDC7
:10C9BE00A3E0FEA3E0FF90068B12D8E0D0E0FFD0FC
:10C9CE00E0FE12E837900665EFF0E4900669F0A3FA
:10C9DE00F0900669E0FEA3E0FFC3EE94025041EF33
:10C9EE00540F70097BFF7AD979B912D3397BFF7A4C
:10C9FE00D979BB900669E0FEA3E02450F58274025B
:10CA0E003EF583E0FF9006A1E4F0A3EFF012D339D8
:10CA1E0090066AE004F070B9900669E004F080B107
:10CA2E007BFF7AD979C212D339900250E0B4EB0869
:10CA3E00900252E064906017900666E014F0900643
:10CA4E0068E02410F0900667E03400F002C8EC9025
:10CA5E000666E07056900669F0A3F0900669E0FE57
:10CA6E00A3E0FF900663E0FCA3E02FF582EC3EF519
:10CA7E0083E0FD74602FF58274043EF583EDF09033
:10CA8E00066AE004F07006900669E004F09006690C
:10CA9E00E0B402C7A3E0B400C29006D412D8EC00F2
:10CAAE000000007BFF7AD979D5804BE4900669F0BF
:10CABE00A3F0900669E0FEA3E0FF900663E0FCA3FE
:10CACE00E02FF582EC3EF583E0FD74602FF5827465
:10CADE00043EF583EDF090066AE004F070069006D1
:10CAEE0069E004F0900669E0B402C7A3E0B400C2A6
:10CAFE007BFF7AD979E1900666E0FF9006A1E4F01B
:10CB0E00A3EFF012D339E4900669F0A3F090066912
:10CB1E00E0FEA3E0FFC3EE94025047EF540F7009FE
:10CB2E007BFF7AD979B912D3397BFF7AD979BB9049
:10CB3E000669E0FEA3E0FF900663E0FCA3E02FF59C
:10CB4E0082EC3EF583E0FF9006A1E4F0A3EFF01235
:10CB5E00D33990066AE004F070B3900669E004F0F1
:10CB6E0080AB900663E0FEA3E0FF240CF582E43E6A
:10CB7E00F583E09006C6F0EF240DF582E43EF583D2
:10CB8E00E09006C7F0900663A3E0242EF582E43E03
:10CB9E00F583E0FFE4FCFDFE781012D8CDECC0E08A
:10CBAE00EDC0E0EEC0E0EFC0E0900663E0FEA3E073
:10CBBE00242FF582E43EF583E0FFE4FCFDFE7818B9
:10CBCE0012D8CDD0E0FBD0E0FAD0E0F9D0E0F8EF0B
:10CBDE004BFFEE4AFEED49FDEC48FCC8ECC8C9ED32
:10CBEE00C9CAEECACBEFCB900663E0FEA3E0242DBC
:10CBFE00F582E43EF583E0FEEA4EFA900663E0FE2F
:10CC0E00A3E0242CF582E43EF583E0FFEB4FFFEA30
:10CC1E00FEE9FDE8FC9006ED12D8E0900663E0FE1A
:10CC2E00A3E02426F582E43EF583E0FFE4FCFDFE5E
:10CC3E00781012D8CDECC0E0EDC0E0EEC0E0EFC051
:10CC4E00E0900663E0FEA3E02427F582E43EF58340
:10CC5E00E0FFE4FCFDFE781812D8CDD0E0FBD0E06A
:10CC6E00FAD0E0F9D0E0F8EF4BFFEE4AFEED49FDC9
:10CC7E00EC48FCC8ECC8C9EDC9CAEECACBEFCB90E4
:10CC8E000663E0FEA3E02425F582E43EF583E0FE94
:10CC9E00EA4EFA900663E0FEA3E02424F582E43E19
:10CCAE00F583E0FFEB4FFFEAFEE9FDE8FC9006F1AD
:10CCBE0012D8E0900663E0FEA3E0FF2410F582E4B4
:10CCCE003EF583E0FD9006F7F0EF240FF582E43E8B
:10CCDE00F583E0FE900663E0FAA3E0240EF582E40D
:10CCEE003AF583E0FBEBFF9006F5EEF0A3EFF0CF05
:10CCFE00EDCFE4FCFDFE9006F1E0F8A3E0F9A3E031
:10CD0E00FAA3E0FB12D78CECC0E0EDC0E0EEC0E081
:10CD1E00CBEFCB9006F5E0FEA3E0FFE4FCFD900622
:10CD2E00D4E0F8A3E0F9A3E0FAA3E02FFFEA3EFE79
:10CD3E00ED39FDEC38FCD0E0FAD0E0F9D0E0F8EBBC
:10CD4E002FFFEA3EFEE93DFDE83CFC9006DA12D8E4
:10CD5E00E0900663E0FEA3E0F5828E83A3E024AEAE
:10CD6E00601B24FA600C241C701B7BFF7AD979EDB2
:10CD7E00802F7BFF7AD979FB12D339802A7BFF7AF9
:10CD8E00DA7909801C7BFF7ADA7916900663E0FE69
:10CD9E00A3E0F5828E83A3E0FF9006A1E4F0A3EF5B
:10CDAE00F012D3397FFA227BFF7ADA792E9006C6FB
:10CDBE00E0FF9006A1E4F0A3EFF012D3397BFF7AE7
:10CDCE00DA79489006C7E0FF9006A1E4F0A3EFF0F1
:10CDDE0012D3397BFF7ADA79619006EDE0FCA3E09D
:10CDEE00FDA3E0FEA3E0FF9006A112D8E012D33916
:10CDFE007BFF7ADA79779006F1E0FCA3E0FDA3E001
:10CE0E00FEA3E0FF9006A112D8E012D3397BFF7A81
:10CE1E00DA798B9006F7E0FF9006A1E4F0A3EFF02D
:10CE2E0012D3397BFF7ADA79A09006F5E0FFA3E002
:10CE3E009006A1CFF0A3EFF012D3397BFF7ADA7907
:10CE4E00B69006DAE0FCA3E0FDA3E0FEA3E0FF90BF
:0DCE5E0006A112D8E012D339900665E0FF5E
:01CE6B0022A4
:08E2810090067DEEF0A3EFF022
:10E28900E4900683F0A3F0EEC0E0EFC0E09006C68C
:10E29900E07F00FE3395E0FDFCECC0E0EDC0E0EE70
:10E2A900C0E0EFC0E090067FE0FCA3E0FDA3E0FE44
:10E2B900A3E0FF780212D8CDD0E0FBD0E0FAD0E09D
:10E2C900F9D0E0F812D817ECC0E0EDC0E0EEC0E0FC
:10E2D900CBEFCB9006F5E0FEA3E0FFE4FCFD900652
:10E2E900D4E0F8A3E0F9A3E0FAA3E02FFFEA3EFEA9
:10E2F900ED39FDEC38FCD0E0FAD0E0F9D0E0F8EBEC
:10E309002FFFEA3EFEE93DFDE83CFC90068B12D862
:10E31900E0D0E0FFD0E0FE12E837EF600302E4242A
:10E329007F04FEFDFC90067FE0F8A3E0F9A3E0FA84
:10E33900A3E0FB12D78CEEC0E0EFC0E09006C6E088
:10E349007B00FA3395E0F9F8D0E0FFD0E0FE12D86F
:10E3590017CEEACECFEBCF900683EEF0A3EFF024F1
:10E3690002FFE43EFE90067DE0FCA3E02FF582EC7F
:10E379003EF583E0FFE4FCFDFE781012D8CDECC039
:10E38900E0EDC0E0EEC0E0EFC0E0900684E02403D9
:10E39900FF900683E03400FE90067DE0FCA3E02FA9
:10E3A900F582EC3EF583E0FFE4FCFDFE781812D817
:10E3B900CDD0E0FBD0E0FAD0E0F9D0E0F8EF4BFFA8
:10E3C900EE4AFEED49FDEC48FCC8ECC8C9EDC9CAE6
:10E3D900EECACBEFCB900684E02401FF900683E0E0
:10E3E9003400FE90067DE0FCA3E02FF582EC3EF5BB
:10E3F90083E0FEEA4EFA900683E0FEA3E0FF900672
:10E409007DA3E02FF582EC3EF583E0FFEB4FFFEAB9
:10E41900FEE9FDE8FC90068512D8E074FFFFFEFDD9
:10E429007C0F900685E0F8A3E0F9A3E0FAA3E0FBEE
:10E43900C312D8A97005FFFEFDFC22900685E0FCF9
:09E44900A3E0FDA3E0FEA3E0FF47
:01E4520022A7
:0BEB530090067DEBF0A3EAF0A3E9F0D0
:10EB5E00E4FF900683E0FEEFC39E5030900680E007
:10EB6E00FBA3E475F00112D776A9F0FA12D729FEAD
:10EB7E0090067DE0FBA3E475F00112D776A9F0FABA
:0EEB8E0012D7296E60037F01220F80C67F0020
:01EB9C002256
:08CE6C00900663EEF0A3EFF065
:10CE740078677C067D017BFF7ADC79847E007F0CF9
:10CE840012D703E4900673F0A3F09006EDE0FCA340
:10CE9400E0FDA3E0FEA3E0FF90067512D8E0900643
:10CEA400EDE0F8A3E0F9A3E0FAA3E0FB900675E057
:10CEB400FCA3E0FDA3E0FEA3E0C39BFBEE9AFAED26
:10CEC40099F9EC98F89006C7E0FFE4FCFDFE12D750
:10CED4008C9006DAE0F8A3E0F9A3E0FAA3E02FFFD0
:10CEE400EA3EFEE93DFDE83CFC90067912D8E0E418
:10CEF400900666F09006C7E0FE900666E0FDC39ECD
:10CF0400400302D26FCFEDCFE4FCFDFE900679E042
:10CF1400F8A3E0F9A3E0FAA3E02FFFEE3AFEED391F
:10CF2400FDEC38FC90068B12D8E0900663E0FEA37B
:10CF3400E0FF12E837900665EFF0600302D26690D6
:10CF44000673F0A3F0900673E0FEA3E0FF9006647E
:10CF5400E02FFF900663E03EFAC9EFC990068074A3
:10CF640001F0A3EAF0A3E9F0A3740BF07B017A06C5
:10CF7400796712EB53EF6017C3900673E094025085
:10CF84000EA3E02420F0900673E03400F080B6C3D2
:10CF9400900673E09402400302D260E4900665F0C8
:10CFA400A3E0FFE4FCFDFE9006DAE0F8A3E0F9A3B9
:10CFB400E0FAA3E02FFFEE3AFEED39FDEC38FCC8B1
:10CFC400ECC8C9EDC9CAEECACBEFCB9006C6E07F68
:10CFD40000FEE4FCFD12D78CC8ECC8C9EDC9CAEE4A
:10CFE400CACBEFCB900673E0FEA3E0FFE4FCFDEBBD
:10CFF4002FFFEA3EFEED39FDEC38FC9006E912D82D
:10D00400E0900674E0241EFF900673E03400FE9066
:10D014000663E0FCA3E02FF582EC3EF583E0FFE439
:10D02400FCFDFE781012D8CDECC0E0EDC0E0EEC0FF
:10D03400E0EFC0E0900674E0241FFF900673E03434
:10D0440000FE900663E0FCA3E02FF582EC3EF5833E
:10D05400E0FFE4FCFDFE781812D8CDD0E0FBD0E070
:10D06400FAD0E0F9D0E0F8EF4BFFEE4AFEED49FDCF
:10D07400EC48FCC8ECC8C9EDC9CAEECACBEFCB90EA
:10D084000674E0241DFF900673E03400FE900663EE
:10D09400E0FCA3E02FF582EC3EF583E0FEEA4EFAD5
:10D0A400900674E0241CFF900673E03400FE9006A2
:10D0B40063A3E02FF582EC3EF583E0FFEB4FFFEA3C
:10D0C400FEE9FDE8FC9006E012D8E0900674E02446
:10D0D40014FF900673E03400FE900663E0FCA3E0C6
:10D0E4002FF582EC3EF583E0FFE4FCFDFE781012A0
:10D0F400D8CDECC0E0EDC0E0EEC0E0EFC0E09006BB
:10D1040074E02415FF900673E03400FE900663E09B
:10D11400FCA3E02FF582EC3EF583E0FFE4FCFDFE8A
:10D12400781812D8CDD0E0FBD0E0FAD0E0F9D0E006
:10D13400F8EF4BFFEE4AFEED49FDEC48FCC8ECC8A5
:10D14400C9EDC9CAEECACBEFCB900674E0241BFF2D
:10D15400900673E03400FE900663E0FCA3E02FF534
:10D1640082EC3EF583E0FEEA4EFA900674E0241A5F
:10D17400FF900673E03400FE900663A3E02FF5826F
:10D18400EC3EF583E0FFEB4FFFEAFEE9FDE8FC909F
:10D1940006CE12D8E09006EDE0F8A3E0F9A3E0FA99
:10D1A400A3E0FB9006CEE0FCA3E0FDA3E0FEA3E039
:10D1B400C39BFBEE9AFAED99F9EC98F89006C7E058
:10D1C400FFE4FCFDFE12D78C9006DAE0F8A3E0F948
:10D1D400A3E0FAA3E02FFFEA3EFEE93DFDE83CFCB4
:10D1E4009006F812D8E07BFF7ADA79CD9006E9E070
:10D1F400FCA3E0FDA3E0FEA3E0FF9006A112D8E0AB
:10D2040012D3397BFF7ADA79E19006E0E0FCA3E0FF
:10D21400FDA3E0FEA3E0FF9006A112D8E012D339EB
:10D224007BFF7ADA79F79006CEE0FCA3E0FDA3E079
:10D23400FEA3E0FF9006A112D8E012D3397BFF7A57
:10D24400DB79119006F8E0FCA3E0FDA3E0FEA3E087
:10D25400FF9006A112D8E012D33980689006657455
:10D2640042F0900666E004F002CEF8900675E0FC09
:10D27400A3E0FDA3E0FEA3E0FF90067F12D8E090B8
:10D284000663E0FEA3E0FF12E28190067512D8E087
:10D294007BFF7ADB792C900675E0FCA3E0FDA3E02C
:10D2A400FEA3E0FF9006A112D8E012D339900675D0
:10D2B400E0FCA3E0FDA3E0FEA3E0FFEC4D4E4F60D5
:09D2C4000302CEA2900665E0FF12
:01D2CD00223E
:08DEB500900663EEF0A3EFF00C
:10DEBD009006CEE0FCA3E0FDA3E0FEA3E0FF9006FC
:10DECD006912D8E09006E0E0FCA3E0FDA3E0FEA31C
:10DEDD00E0FF90067112D8E09006EDE0F8A3E0F9AE
:10DEED00A3E0FAA3E0FB900669E0FCA3E0FDA3E04C
:10DEFD00FEA3E0C39BFBEE9AFAED99F9EC98F8902E
:10DF0D0006C7E0FFE4FCFDFE12D78C9006DAE0F8C0
:10DF1D00A3E0F9A3E0FAA3E02FFFEA3EFEE93DFD01
:10DF2D00E83CFC90066D12D8E0E4900666F0900691
:10DF3D00C7E0FE900666E0FDC39E400302E042CFBF
:10DF4D00EDCFE4FCFDFE90066DE0F8A3E0F9A3E053
:10DF5D00FAA3E02FFFEE3AFEED39FDEC38FC90060A
:10DF6D008B12D8E0900663E0FEA3E0FF12E8379035
:10DF7D000665EFF0600302E0399006C6E07F00FE13
:10DF8D00E4FCFD900671E0F8A3E0F9A3E0FAA3E04C
:10DF9D00FBD312D8A940099006C6E07F00FE800A87
:10DFAD00900671A3A3E0FEA3E0FF900667EEF0FCE0
:10DFBD00A3EFF0FD900663E0FEA3E0FF12E759909A
:10DFCD000671E0FCA3E0FDA3E0FEA3E0FFEEC0E0E0
:10DFDD00EFC0E0900667E0FEA3E0FBCAEECAD0E01A
:10DFED00FFD0E0FEC3EF9BFFEE9AFEED9400FDEC3B
:10DFFD009400FC90067112D8E07BFF7ADB7940909B
:10E00D000671E0FCA3E0FDA3E0FEA3E0FF9006A1F6
:10E01D0012D8E012D339900671E0FCA3E0FDA3E025
:10E02D00FEA3E0FFEC4D4E4F70028062900666E05D
:10E03D0004F002DF3B900669E0FCA3E0FDA3E0FEE7
:10E04D00A3E0FF90067F12D8E0900663E0FEA3E008
:10E05D00FF12E28190066912D8E07BFF7ADB792C02
:10E06D00900669E0FCA3E0FDA3E0FEA3E0FF9006AF
:10E07D00A112D8E012D339900669E0FCA3E0FDA30C
:10E08D00E0FEA3E0FFEC4D4E4F600302DEE590068F
:03E09D0065E0FF3C
:01E0A000225D
:10E569007BFF7ADB795112D33912ECFBE490066315
:10E57900F0A3F07F017E0012EDA412ED8CEF700E76
:10E58900900663F0A3E004F0E0D39464500C900685
:10E5990063E004F0E0C3946440D9900663E0600F3F
:10E5A90012EDF97BFF7ADB796212D3397F16227B70
:10E5B900FF7ADB798B12D33912EB9D900664EFF069
:10E5C900600302E652900663F090DC52E493FF90F8
:10E5D9000663E0FEC39F50257BFF7ADB799974407F
:10E5E9002EF582E43400F583E0FF9006A1E4F0A360
:10E5F900EFF012D339900663E004F080CC7BFF7A08
:10E60900D979B912D339900044E0900665F090DCCD
:10E619005EE493FF12EC44900664EFF0702B7BFFED
:10E629007ADB79A012D33912E987900664EFF0708A
:10E639001890004EE0FF900665E0700AEFB40806F6
:10E64900750E047F00227FFB227BFF7ADB79AF9076
:10E659000664E0FF9006A1E4F0A3EFF012D3397548
:07E669000E02900664E0FFC1
:01E670002287
:10EC0D00C2EA75E280E4F5E353E57F90244774484A
:10EC1D00F090244C7400F0A37400F090244E740016
:10EC2D00F0A37440F0E4F5D4F5D675E28975D240C1
:07EC3D0075D8FF75E1032209
:10ED49008E858F84E58630E617744930E00675862E
:10ED5900A6008004007586A6E5866440547FFF22DC
:03ED69007F4022C6
:10EC7A008E858F84CEECCECFEDCF8E8F8F8EE586AC
:10EC8A0030E617747A30E00675869A0080040075BB
:0DEC9A00869AE5866440547FFF227F402269
:10EA170075A15575A1AA43B10C90066512D8EC00F3
:10EA2700000000E4900663F0A3F0E4FF7E73FDFCB2
:10EA3700900665E0F8A3E0F9A3E0FAA3E0FBD312A0
:10EA4700D8A95043900665A3A3E0FEA3E0FF12ED0B
:10EA570049CBEFCB900665E0FCA3E0FDA3E0FEA366
:10EA6700E02400FFEE3404FEE43DFDE43CFC9006A8
:10EA77006512D8E0EB7010900664E004F070AB907C
:10EA87000663E004F080A375A15575A1AA53B1F3FD
:01EA9700225C
:06E75900CBEFCBCAEECAB3
:10E75F00ED2401FFE43CC313FEEF13FF900677EEA9
:10E76F00F0A3EFF090067B12D8EC0000000075A12B
:10E77F005575A1AA43B10CE4900675F0A3F090066D
:10E78F0077E0FEA3E0FF900675E06E7003A3E06FE5
:10E79F00700302E82D900676E025E0FF900675E005
:10E7AF0033FEEF2401FFE43EFEEB2FF582EA3EF548
:10E7BF0083E0FC900676E025E0FF900675E033FEDF
:10E7CF00EB2FF582EA3EF583E0FFECFE900679EE43
:10E7DF00F0A3EFF0A3A3A3E0FEA3E0FF900679E080
:10E7EF00FCA3E0FD12EC7AC9EFC9A3E0FCA3E0FDA6
:10E7FF00A3E0FEA3E02402FFE43EFEE43DFDE43C83
:10E80F00FC90067B12D8E0E97014900676E004F0D5
:10E81F00600302E78D900675E004F002E78D75A1A5
:07E82F005575A1AA53B1F3D6
:01E8360022BF
:0AEDE90075A15575A1AA43B11022CF
:10E45300C2AFC2AC53CEEF7F1E7E0012EDA412E812
:10E46300F27BFF7ADB79C7AFA19006A1E4F0A3EFBB
:10E47300F012D33912EC0D7BFF7ADB79DB12D3393F
:10E4830043C20843C00853C0F730D8FDC2D812EBCB
:10E4930005900660EFF0BF15F07FC87E0012EDA473
:10E4A30012E569900660EFF0600302E55D750E0406
:10E4B300A3F0A3F07BFF7ADB79EB12D33912EBD510
:10E4C300900660EFF0601A900662E004F070069028
:10E4D3000661E004F0900661E07004A3E0640A7052
:10E4E300D37BFF7ADB79FB12D3397E007F4012C8DE
:10E4F30004900660EFF07BFF7ADC790112D3399048
:10E503000660E0600512EDE9800C7E007F4012CECC
:10E513006C900660EFF07BFF7ADC7909900660E08F
:10E52300FF9006A1E4F0A3EFF012D339900660E068
:10E53300600B7BFF7ADC791A12D339801712EA1742
:10E543007E007F4012DEB5900660EFF0600302E4C8
:10E553008C43C00812EDE902E48C7BFF7ADC792E50
:06E5630012D33902E48C22
:0300000002EDDD31
:0CEDDD00787FE4F6D8FD75814102E45314
:10D63300E709F608DFFA8046E709F208DFFA803ED9
:10D6430088828C83E709F0A3DFFA8032E309F608C6
:10D65300DFFA8078E309F208DFFA807088828C832E
:10D66300E309F0A3DFFA806489828A83E0A3F608E2
:10D67300DFFA805889828A83E0A3F208DFFA804CBC
:10D6830080D280FA80C680D4806980F28033801093
:10D6930080A680EA809A80A880DA80E280CA8033FC
:10D6A30089828A83ECFAE493A3C8C582C8CCC58374
:10D6B300CCF0A3C8C582C8CCC583CCDFE9DEE78044
:10D6C3000D89828A83E493A3F608DFF9ECFAA9F0C3
:10D6D300EDFB2289828A83ECFAE0A3C8C582C8CC19
:10D6E300C583CCF0A3C8C582C8CCC583CCDFEADE32
:10D6F300E880DB89828A83E493A3F208DFF980CC94
:10D7030088F0EF60010E4E60C388F0ED2402B4048C
:10D713000050B9F582EB2402B4040050AF23234533
:06D72300822390D68373FF
:10D72900BB010689828A83E0225002E722BBFE02FE
:09D73900E32289828A83E4932231
:10D74200BB010989828A83F8E028F022500327F777
:10D7520022BBFE05F8E328F3228A838982F8E49348
:02D7620028227B
:10D76400BB010689828A83F0225002F722BBFE01A4
:02D77400F3229E
:10D77600A3F8E0C5F025F0F0E58215827002158366
:06D78600E0C838F0E822C3
:10D78C00E88FF0A4CC8BF0A42CFCE98EF0A42CFC3C
:10D79C008AF0EDA42CFCEA8EF0A4CDA8F08BF0A4BA
:10D7AC002DCC3825F0FDE98FF0A42CCD35F0FCEB19
:10D7BC008EF0A4FEA9F0EB8FF0A4CFC5F02ECD39DE
:0FD7CC00FEE43CFCEAA42DCE35F0FDE43CFC224B
:10D7DB0075F008758200EF2FFFEE33FECD33CDCC05
:10D7EB0033CCC58233C5829BED9AEC99E582984088
:10D7FB000CF582EE9BFEED9AFDEC99FC0FD5F0D665
:10D80B00E4CEFBE4CDFAE4CCF9A88222B800C1B98E
:10D81B000059BA002DEC8BF084CFCECDFCE5F0CBCC
:10D82B00F97818EF2FFFEE33FEED33FDEC33FCEB05
:10D83B0033FB10D703994004EB99FB0FD8E5E4F9C0
:10D84B00FA227818EF2FFFEE33FEED33FDEC33FCAD
:10D85B00C933C910D7059BE99A4007EC9BFCE99AA1
:10D86B00F90FD8E0E4C9FAE4CCFB2275F010EF2FE6
:10D87B00FFEE33FEED33FDCC33CCC833C810D707E6
:10D88B009BEC9AE899400AED9BFDEC9AFCE899F821
:0ED89B000FD5F0DAE4CDFBE4CCFAE4C8F922B4
:10D8A900EB9FF5F0EA9E42F0E99D42F0E89C45F0D5
:01D8B900224C
:10D8BA00E8600FECC313FCED13FDEE13FEEF13FF4C
:03D8CA00D8F12270
:10D8CD00E8600FEFC333FFEE33FEED33FDEC33FCB9
:03D8DD00D8F1225D
:0CD8E000ECF0A3EDF0A3EEF0A3EFF022BB
:10D8EC00A8828583F0D083D08212D90312D9031277
:10D8FC00D90312D903E473E493A3C583C5F0C5839C
:10D90C00C8C582C8F0A3C583C5F0C583C8C582C885
:01D91C0022E8
:10D2CE00E50924A1F582E43406F583E005092290F0
:10D2DE00069E3007039006A1E475F00112D94A02AA
:10D2EE00D7292000E97F2ED2008018EF540F24900A
:10D2FE00D43440D4FF30040BEF24BFB41A005003D3
:10D30E002461FFE50A6002150A050DE50D700205A0
:10D31E000C30070E90069EE475F00112D94AEF020A
:10D32E00D76402ED227403D2078003E4C207F50925
:10D33E0090069E12D961E4F50AF50CF50DE50A602A
:10D34E00077F2012D31180F5750BFFC201C200C2F8
:10D35E0002C203C205C206C20812D2DDFF700D3032
:10D36E0007057F0012D322AF0DAE0C22B4255FC28B
:10D37E00D5C20412D2DDFF24D0B40A00501A75F0C3
:10D38E000A780A30D50508B6FF0106C6A426F6208F
:10D39E00D5047002D20380D924CFB41A00EF500402
:10D3AE00C2E5D20402D523D20180C6D20080C0D2FB
:10D3BE000280BCD2D580BAD20580B47F2012D311A0
:10D3CE002002077401B50A0040F112D2CEFF12D32B
:10D3DE001102D34BD208D206809512D2CEFB12D2B6
:10D3EE00CEFA12D2CEF94A4B700679F47AD57BFF7B
:10D3FE0020022EE50A602A7E008E8275830012D9E5
:10D40E001D60060EEE650B70F0C2D5EBC0E0EAC0F3
:10D41E00E0E9C0E0EE12D56AD0E0F9D0E0FAD0E053
:10D42E00FB12D729FF60AAEBC0E0EAC0E0E9C0E03A
:10D43E0012D311D0E02401F9D0E03400FAD0E0FB91
:10D44E00E50B0460DCD50BD980877BFF7AD5796636
:10D45E00D202809C791080027908C206C208800828
:10D46E00D2D5790A8004790AC2D5E50B047002F58B
:10D47E000BE4FAFDFEFF12D2CEFC7B082001131244
:10D48E00D2CEFD7B1030000A12D2CEFE12D2CEFFCB
:10D49E007B20EC3382D592D55013C3E43000069F27
:10D4AE00FFE49EFEE42001039DFDE49CFCE4CBF82A
:10D4BE00C201EC700CCFCECDCCE824F8F870F3801E
:10D4CE0017C3EF33FFEE33FEED33FDEC33FCEB33DE
:10D4DE00FB994002FB0FD8E9EB300105F8D0E0C410
:10D4EE0048B201C0E00AEC4D4E4F78207B0070C26E
:10D4FE00EAB50B0040BCC0E012D56CD0F0D0E020F5
:10D50E000104C4C0E0C4B201C0F012D2FAD0F0D50A
:10D51E00F0EB02D34B12D96AD3E853D46258D3B985
:10D52E004CD3B542D4664FD46E44D46E49D3CE4359
:08D53E00D47455D45846D458AA
:10D5460045D45847D61450D3BD2DD3C12ED3E42B82
:10D55600D3C523D3E220D5FD2AD37D480000D3DCF2
:10D566003F3F3F00790AA2D5200314300509B910C0
:10D57600020404B9080104A2D520060250010420C1
:10D5860002689202B50A005034C0E07F20300319C9
:10D596007F30A20272067205500F12D5C3C202C2B4
:10D5A60006C205C2087F30800F300503E9C0E012CD
:10D5B600D311300503D0E0F9D0E0B50ACC30051719
:10D5C6007F30B9100C12D3117F583004077F788052
:10D5D60003B9080312D3113002057F2D02D3117F40
:10D5E600202008F87F2B2006F322920280CF286E97
:10D5F600756C6C2900D20112D2CE3001F8C20178C6
:10D606000A30D50108F602D37D2D5043495812D26F
:10D61600CE2403B405004001E490D60F9312D30242
:0DD62600743A12D302D203750A0402D462D2
:10D91D00BB010CE58229F582E5833AF583E02250BF
:10D92D0006E92582F8E622BBFE06E92582F8E22209
:0DD93D00E58229F582E5833AF583E4932223
:10D94A00F8E0FBA3A3E0F925F0F0E5821582700266
:07D95A001583E0FA38F0220A
:09D96100EBF0A3EAF0A3E9F022C7
:10D96A00D083D082F8E4937012740193700DA3A34C
:10D97A0093F8740193F5828883E473740293686060
:06D98A00EFA3A3A380DF60
:10ED2200EFB40A07740D12ED2D740A309811A899E8
:10ED3200B8130CC2983098FDA899C298B811F63051
:07ED420099FDC299F5992229
:00000001FF
