:100DC80053746172742053504920464C4153482053
:100DD800404368697049443D253032580A004E4105
:100DE8004B20494E542C5072657061726544617491
:100DF800610A00436F6E6669670A00457272457042
:100E080030526571436F64653D253032580A00459C
:100E1800727245703052657153697A650A0045727D
:100E280072456E647020494E540A005265736574A9
:100E38000A0053757370656E640A004177616B65CB
:100E48000A00556E6B6E6F776E20494E540A001279
:100E5800011001000000084433333500010102008D
:100E68000109022000010100803209040000020883
:100E780006500007050102400000070581024000F6
:100E880000040309040E037700630068002E006362
:100E9800006E000C0343004800350035003900009F
:100EA800008002021F0000007763682E636E202016
:100EB800C7DFBAE3B5E7D7D355C5CCB7BDB0B800DF
:100EC800312E3130000001FF000010000B00000837
:100ED80000000200000002000006000008000008F0
:080EE8000000020000000200FE
:0619640041008D00C114DA
:1018BF0075A15575A1AA43B34053B37F75A1FF22FC
:0E18EF00EF4E600905A1EF1F70F61E80F32278
:10187100AD07AC06ED4C600E7FE87E031218EFED6C
:071881001D70F11C80EE2236
:0D19190043C60143C40843C50C43CE102251
:10124200C29FD29EC29DC2CDC2CC4387809001492B
:101252001207810000030DE47B0AFAF9F8900149B4
:10126200E0FCA3E0FDA3E0FEA3E0FF1206AC9001C8
:101272004DEBF0900149E0FCA3E0FDA3E0FEA3E00A
:10128200FFE47B0AFAF9F81206AC900149120775DD
:1012920090014DE0C39405401F900149E0FCA3E09A
:1012A200FDA3E0FEA3E02401FFE43EFEE43DFDE4F5
:1012B2003CFC900149120775E589540F4420F589D9
:1012C20043C9A0900149A3A3A3E0F404F58DD28EF3
:0412D200D299D29C3F
:0112D60022F5
:081954003098FDC298AF992202
:08195C008F993099FDD2992208
:1017DF00C2EAE4F5E290244674C0F0902448740005
:1017EF00F0A37400F090244A7400F0A37408F0750D
:1017FF00DC0275D212E4F5E375E43075E22943E4B7
:0E180F000175D8FF75E107D2EAF5D3D2AF22FA
:1018CF0053FC7775FA6043BAB453BABF75FB022263
:10188800C29475F90530FBFD75F9FF30FBFDAFF922
:02189800D294E8
:01189A00222B
:0D192600121888EF30E00512188880F422B6
:1018DF00C29475F90130FBFD8FF930FBFDD29422D4
:0B193300C29475F90430FBFDD2942231
:0B193E00C29475F90630FBFDD2942224
:0A194900121888EF20E10312193E86
:011953002271
:1016B100900123120775121949C29475F92030FB64
:1016C100FD900123A3E0FDA3E0FEA3E0FFE4FC788D
:1016D1001012074F8FF930FBFD900123A3A3E0FE09
:1016E100A3E0FFE4FDFC780812074F8FF930FBFD02
:1016F100900123E0FCA3E0FDA3E0FEA3E0FF8FF94E
:0817010030FBFDD29402192611
:06165600900176120775F9
:10165C00E4FBC29475F90330FBFD900176A3E0FD29
:10166C00A3E0FEA3E0FFE4FC781012074F8FF930E3
:10167C00FBFD900176A3A3E0FEA3E0FFE4FDFC7864
:10168C000812074F8FF930FBFD900176A3A3A3E05E
:10169C00FFE48FF930FBFD75F9FF30FBFDABF9D2A0
:0416AC0094CFEBCF1D
:0116B0002217
:1015F50090017112077512193EC29475F90230FBFC
:10160500FD900171A3E0FDA3E0FEA3E0FFE4FC78FB
:101615001012074F8FF930FBFD900171A3A3E0FE77
:10162500A3E0FFE4FDFC780812074F8FF930FBFDBE
:10163500900171E0FCA3E0FDA3E0FEA3E0FF8FF9BC
:1016450030FBFD900175E0F5F930FBFDD2940219F0
:01165500266E
:061487009001221207751E
:10148D00C29475F90B30FBFD900122A3E0FDA3E0A2
:10149D00FEA3E0FFE4FC781012074F8FF930FBFD3F
:1014AD00900122A3A3E0FEA3E0FFE4FDFC78081267
:1014BD00074F8FF930FBFD900122A3A3A3E0FF8F0F
:1014CD00F930FBFDE4F5F930FBFDE4FFFED39001AF
:1014DD0027E09F900126E09E402175F9FF30FBFD2E
:1014ED00900128E0FBA3E0FAA3E0F98F828E83E55B
:0D14FD00F91205D30FBF00010E80D2D2946A
:01150A0022BE
:060B6F009001221207753F
:100B7500E490012BF0A3F0A3F0A3F0FF1218DF120D
:100B8500193EC29475F9AD30FBFD900122A3E0FD3D
:100B9500A3E0FEA3E0FFE4FC781012074F8FF930C5
:100BA500FBFD900122A3A3E0FEA3E0FFE4FDFC789A
:100BB5000812074F8FF930FBFD900122E0FCA3E0FE
:100BC500FDA3A3E0FF8FF930FBFD900128E0FBA317
:100BD500E0FAA3E0F990012DE0FEA3E0F5828E8313
:100BE5001205A6F5F930FBFD900128E0FBA3E0FA1C
:100BF500A3E0F990012EE02401FF90012DE03400DF
:100C05008F82F5831205A6F5F930FBFDD2941219F2
:100C15002690012DE4F0A37402F0900127E024FF53
:100C2500FF900126E034FFFEC390012EE09F900166
:100C35002DE09E505DC29475F9AD30FBFD90012805
:100C4500E0FBA3E0FAA3E0F990012DE475F00112B1
:100C5500060B85F082F5831205A6F5F930FBFD90AC
:100C65000128E0FBA3E0FAA3E0F990012DE0FEA343
:100C7500E0F5828E831205A6F5F930FBFDD29412BC
:100C8500192690012EE004F0700690012DE004F085
:080C95008088121933021926B0
:10181D007F1E7E001218711212427BFF7A0D79C85D
:10182D00AFA190014CE4F0A3EFF01208751218CFA0
:0D183D0012193EE4FF1218DF1217DF80FEC3
:10136B00C2139000917405F09000D77420F0900098
:06137B00927401F07F0FE7
:10138100EFB41000507390138EF82828730213BE27
:101391000213BE0213C60213C60213C80213C80207
:1013A10013BE0213CA0213CA0213D10213D60213C7
:1013B100D10213C00213D60213E00213C88000E465
:1013C100900092F0228002802543D203D217801729
:1013D10043D20C801C43D203D21743D20C80084362
:1013E100D203D21743D20C9000927402F02243D25E
:0A13F10003D2179000927401F0225D
:10000300E47F08FEFDFC9000DCE0F8A3E0F9A3E048
:10001300FAA3E0FBD312073E400A9000DC120781EB
:100023000000000890008E74FFF0A3740EF0A37418
:10003300CCF0E4900092F0900091F09000D7F02281
:10179F0090008E74FFF0A3740EF0A374A8F0E47F92
:1017AF0024FEFDFC9000DCE0F8A3E0F9A3E0FAA32F
:1017BF00E0FBD312073E400A9000DC1207810000C5
:1017CF000024E4900092F0900091F09000D7F02266
:100FFC009000A9E0FFE4FCFDFE7808120762C8EC43
:10100C00C8C9EDC9CAEECACBEFCBA3E0FFEB4FFFCB
:10101C00EAFEE9FDE8FCE4FB7A10F9F812062190EF
:10102C0000DC1207759000A5E0FFE4FCFDFE7810D3
:10103C00120762ECC0E0EDC0E0EEC0E0EFC0E09063
:10104C0000A4E0FFE4FCFDFE7818120762D0E0FB80
:10105C00D0E0FAD0E0F9D0E0F8EF4BFFEE4AFEED2D
:10106C0049FDEC48FCECC0E0EDC0E0EEC0E0EFC0A8
:10107C00E09000A6E0FFE4FCFDFE7808120762D0C9
:10108C00E0FBD0E0FAD0E0F9D0E0F8EF4BFBEE4A11
:10109C00FAED49F9EC48F8A3E0FFEB4FFFEAFEE963
:1010AC00FDE8FC9000D31207759000D3E0FCA3E0A0
:1010BC00FDA3E0FEA3E0FFE4FB7A10F9F812062191
:1010CC009000D3120775E4900092F0900091F0908C
:0610DC0000D7F0D214223F
:101709009000A4E0B43F40E47F0CFEFDFC9000DCB7
:10171900E0F8A3E0F9A3E0FAA3E0FBD312073E4007
:101729000A9000DC1207810000000C90008E74FF03
:10173900F0A3740EF0A374D4F0E4900092F090003A
:0B17490091F09000D7F02212136B22E9
:10150B00A21272175038A2179212C217900093743E
:10151B0070F0E4A3F0900091E0900095F0E4A3F05C
:10152B00A3F0A3F0A3F0A3740AF0E4A3F0A3F0A339
:10153B00F0A3F09000D7E090009FF0E48028A21772
:10154B009212C2179000937470F0E4A3F0A3F0A36F
:10155B00F0A3F0A3F0A3F0A3740AF0E4A3F0A3F0BC
:10156B00A3F0A3F0A3F0A3F0A3F0A3F0A3F0A3F0D8
:10157B0090008E04F0A37400F0A37493F0E4900039
:03158B0092F022B9
:10189B00C215C213E4900092F0900091F09000D723
:0218AB00F02229
:0E18FD00E4900092F0900091F09000D7F0225D
:100C9D009000A9E0FFE4FCFDFE7808120762C8ECA5
:100CAD00C8C9EDC9CAEECACBEFCBA3E0FFEB4FFF2E
:100CBD00EAFEE9FDE8FCE4FB7A10F9F81206219052
:100CCD0000DC1207759000A5E0FFE4FCFDFE781036
:100CDD00120762ECC0E0EDC0E0EEC0E0EFC0E090C6
:100CED0000A4E0FFE4FCFDFE7818120762D0E0FBE3
:100CFD00D0E0FAD0E0F9D0E0F8EF4BFFEE4AFEED90
:100D0D0049FDEC48FCECC0E0EDC0E0EEC0E0EFC00A
:100D1D00E09000A6E0FFE4FCFDFE7808120762D02B
:100D2D00E0FBD0E0FAD0E0F9D0E0F8EF4BFBEE4A73
:100D3D00FAED49F9EC48F8A3E0FFEB4FFFEAFEE9C5
:100D4D00FDE8FC9000D31207759000D3E0FCA3E002
:100D5D00FDA3E0FEA3E0FFE4FB7A10F9F8120621F3
:100D6D009000D31207759000AAE0900122F0E49054
:100D7D000121F0900122E0FF900121E0FEC39F5080
:100D8D002CEEC454F0FEE4FCFD9000D3E0F8A3E09B
:100D9D00F9A3E0FAA3E02400FFEA3EFEED39FDECF5
:100DAD0038FC1216B1900121E004F080C6E49000E9
:0A0DBD0092F0900091F09000D7F042
:010DC7002209
:1018AD00C215C213E4900092F0900091F09000D711
:0218BD00F02217
:0E190B00E4900092F0900091F09000D7F0224E
:101754009000A4E0B43F40E47F10FEFDFC9000DC68
:10176400E0F8A3E0F9A3E0FAA3E0FBD312073E40BC
:101774000A9000DC1207810000001090008E74FFB4
:10178400F0A3740EF0A374E0F0E4900092F09000E3
:0B17940091F09000D7F02212136B229E
:10158E009000A2E01207B215C00015C60315BA12DC
:10159E0015CF1A15D51B15D81E15C92515C3281517
:1015AE00BD2A15CC2F15D25A000015DB02179F024B
:1015BE000C9D02189B020FFC02150B020003021970
:1015CE000B0217090217540218AD0218FD90009174
:1015DE007405F09000D77420F09000927401F0C260
:0715EE00137F0E121381228E
:1011A900900093E06455600302123EA3E06453602B
:1011B9000302123CA3E064427077A3E064437075B4
:1011C90090009BE09000DFF090009CE09000DEF042
:1011D90090009DE09000DDF090009EE09000DCF032
:1011E900900097E09000D8F0900098E09000D9F036
:1011F900900099E09000DAF090009AE09000DBF01E
:10120900A3E0FCA3E0FDA3E0FEA3E0FFEC4D4E4FFD
:10121900601A90009FE030E703C38001D3921590D4
:10122900009FE030E703D38001C39213D216021561
:091239008E8002800043D20322E2
:1012D70090008E7401F0A37400F0A37493F0C2160B
:1012E700C2139000937455F0A37453F0A37442F0A3
:1012F700A37453F09000D8E0900097F09000D9E0E5
:10130700900098F09000DAE0900099F09000DBE010
:1013170090009AF0E4A3F0A3F09000DDE090009D28
:10132700F09000DCE090009EF0900092E090009F2B
:10133700F0E4FF90008EE0FBA3E0FAA3E0F91205CA
:101347008DFE74482FF582E43400F583EEF09000AB
:101357008FE475F0011205F50FEFB40DD675D30DB7
:0313670053D2FC62
:01136A002260
:100EF000E47F40FEFDFC9000DCE0F8A3E0F9A3E015
:100F0000FAA3E0FBD312073E402A9001217440F07F
:100F10009000DCE0FCA3E0FDA3E0FEA3E09440FF32
:100F2000EE9400FEED9400FDEC9400FC9000DC12C9
:100F3000077580179000DCA3A3A3E0900121F09037
:100F400000DC12078100000000C213301470900012
:100F5000D3E0FCA3E0FDA3E0FEA3E0FF900121E0CD
:100F6000FB900126E4F0A3EBF0A37401F0A374005E
:100F7000F0A37448F01214879000D3E0F8A3E0F9CE
:100F8000A3E0FAA3E0FB900121E0FFE4FCFDFEEB0F
:100F90002FFFEE3AFEED39FDEC38FC9000D312073E
:100FA00075E4FFFEFDFC9000DCE0F8A3E0F9A3E0AF
:100FB000FAA3E0FBC312073E7038C2148034E4FF8A
:100FC000900121E0FEEFC39E502890008EE0FBA32D
:100FD000E0FAA3E0F912058DFE74482FF582E4349F
:100FE00000F583EEF090008FE475F0011205F50F27
:0B0FF00080CE900121E0F5D353D2FC2D
:010FFB0022D3
:1010E200900121E5D1F0E4FF900121E0FB6F601B4C
:1010F20074082FF582E43400F583E0FE74E02FF5E6
:1011020082E43400F583EEF00F80DD9000D3E0FC42
:10111200A3E0FDA3E0FEA3E0FF900126E4F0A3EB31
:10112200F0A37401F0A37400F0A374E0F0120B6F4B
:101132009000D3E0F8A3E0F9A3E0FAA3E0FB90016A
:1011420021E0FFE4FCFDFEEB2FFFEE3AFEED39FD60
:10115200EC38FC9000D31207759000DCE0FCA3E0B1
:10116200FDA3E0FEA3E0FFEFC0E0900121E0FBD091
:10117200E0FFC3EF9BFFEE9400FEED9400FDEC94C4
:1011820000FC9000DC120775E4FFFEFDFC9000DC21
:10119200E0F8A3E0F9A3E0FAA3E0FBC312073E7074
:0611A20005C2151212D770
:0111A8002224
:0300430002004672
:0D004600C0E0C0F0C083C082C0D075D008FB
:1000530020D90302042930DF097BFF7A0D79E602F8
:100063000422E5D9543F700302041214602A24E1E8
:1000730070030203A424F070030200FD240F600345
:1000830002041C30130280603016028067E5D254EC
:10009300FC4402F5D202042520DE030204253015B8
:1000A300061210E2020425AFD1EF7003020425907B
:1000B3000120E4F0900120E0FE6F602074082EF52B
:1000C30082E43400F583E0FD74932EF582E434007A
:1000D300F583EDF0900120E004F080D81211A930EF
:1000E3001503020425301306120EF00204253017FF
:1000F300030204251212D7020425900120E5D1F052
:10010300E06408600302036F900006E0900089F04A
:10011300900007E07009900089E0D3947F40069037
:100123000089747FF0900120E4F0900000E05460B7
:100133006044A3E0900088F064FE600302037D90B6
:10014300008A74FFF0A3740EF0A374A7F09001204B
:100153007401F0900089E0D394014008900120E0FD
:10016300900089F0900089E0FFC3940840057F0860
:1001730002025A02025A900001E0900088F07003D4
:100183000203381470030202CD24FC7003020294AC
:1001930024FD700302029F1470030202B51470035E
:1001A30002032224046003020355900003E024FEAB
:1001B300601D1460302402707B90008A74FFF0A3EA
:1001C300740EF0A37457F09001207412F0806B90BA
:1001D300008A74FFF0A3740EF0A37469F0900120F9
:1001E3007420F08055900002E0603324FE6019040F
:1001F300704290008A74FFF0A3740EF0A3748DF024
:10020300900120740EF0803290008A74FFF0A37482
:100213000EF0A3749BF0900120740CF0801C9000EE
:100223008A74FFF0A3740EF0A37489F09001207414
:1002330004F0800690012074FFF0900120E0FF900D
:100243000089E0D39F4002EFF0900089E0FFC39460
:100253000840047F088000900120EFF07E007800C2
:100263007C007D0190008AE0FBA3E0FAA3E0F91291
:100273000567900089E0FF900120E0FEC3EF9E90A8
:100283000089F0EEFF90008BE48FF01205F5020376
:100293007D900002E0900089F002037D90008DE0E4
:1002A300900000F0900089E0C39401500302037DA5
:1002B300807B900002E090008DF07BFF7A0D79FB4C
:1002C30012087590008DE002037D900000E0541F3A
:1002D30064027043900004E014602B1460122481C4
:1002E3006014147032E5D454BC4402F5D402037D87
:1002F30053D47302037DE5D254BC4402F5D23016C5
:100303000E1212D7800953D2733016031212D7A2DA
:10031300179212C217806390012074FFF0805B90E4
:100323000000E4F0900089E0C39401404D90012067
:100333007401F08045900000E4F0A3F0900089E0A0
:10034300FFC3940290012040057402F0802CEFF06B
:10035300802890012074FFF0FB7A0E7903900088C7
:10036300E0FF90014CE4F0A3EFF0800B90012074C8
:10037300FFF0FB7A0E7917120875900120E0FFB4A5
:10038300FF0C90008874FFF075DCCF020425EFD3D7
:10039300940850048FDD800375DD0075DCC0020412
:1003A30025900088E024FB605314705E900089E080
:1003B300FFC3940840047F088000900120EFF07E83
:1003C3000078007C007D0190008AE0FBA3E0FAA3A3
:1003D300E0F9120567900089E0FF900120E0FEC379
:1003E300EF9E900089F0EEFF90008BE48FF01205F2
:1003F300F5900120E0F5DD63DC408026E5E35480E1
:10040300FF900089E04FF5E3800A75DD00800590D9
:100413000088E0FF75DC0280097BFF7A0E792612E3
:100423000875C2D9806330D81A7BFF7A0E793312EC
:10043300087575DC0275D21275E300C2DAC2D9C23F
:10044300D8804630DA37C2DAE5DA30E2257BFF7A44
:100453000E793A120875E5A220E7FB75A15575A13F
:10046300AA75EB8143870275A15575A1AA75EB00A7
:1004730080177BFF7A0E7943120875800C7BFF7A15
:090483000E794A12087575D8FFC4
:0B048C00D0D0D082D083D0F0D0E0327E
:030000000213FBED
:0C13FB00787FE4F6D8FD758122021442D0
:10049700E709F608DFFA8046E709F208DFFA803E47
:1004A70088828C83E709F0A3DFFA8032E309F60834
:1004B700DFFA8078E309F208DFFA807088828C839C
:1004C700E309F0A3DFFA806489828A83E0A3F60850
:1004D700DFFA805889828A83E0A3F208DFFA804C2A
:1004E70080D280FA80C680D4806980F28033801001
:1004F70080A680EA809A80A880DA80E280CA80336A
:1005070089828A83ECFAE493A3C8C582C8CCC583E1
:10051700CCF0A3C8C582C8CCC583CCDFE9DEE780B1
:100527000D89828A83E493A3F608DFF9ECFAA9F030
:10053700EDFB2289828A83ECFAE0A3C8C582C8CC86
:10054700C583CCF0A3C8C582C8CCC583CCDFEADE9F
:10055700E880DB89828A83E493A3F208DFF980CC01
:1005670088F0EF60010E4E60C388F0ED2402B404FA
:100577000050B9F582EB2402B4040050AF232345A1
:0605870082239004E773DB
:10058D00BB010689828A83E0225002E722BBFE026C
:09059D00E32289828A83E493229F
:1005A600BB010CE58229F582E5833AF583E022500A
:1005B60006E92582F8E622BBFE06E92582F8E22254
:0D05C600E58229F582E5833AF583E493226E
:1005D300F8BB010DE58229F582E5833AF583E8F05E
:1005E300225006E92582C8F622BBFE05E92582C80A
:0205F300F222F2
:1005F500C5F0F8A3E028F0C5F0F8E5821582700291
:060605001583E038F0222D
:10060B00A3F8E0C5F025F0F0E582158270021583A2
:06061B00E0C838F0E822FF
:10062100E88FF0A4CC8BF0A42CFCE98EF0A42CFC78
:100631008AF0EDA42CFCEA8EF0A4CDA8F08BF0A4F6
:100641002DCC3825F0FDE98FF0A42CCD35F0FCEB55
:100651008EF0A4FEA9F0EB8FF0A4CFC5F02ECD391A
:0F066100FEE43CFCEAA42DCE35F0FDE43CFC2287
:1006700075F008758200EF2FFFEE33FECD33CDCC41
:1006800033CCC58233C5829BED9AEC99E5829840C4
:100690000CF582EE9BFEED9AFDEC99FC0FD5F0D6A1
:1006A000E4CEFBE4CDFAE4CCF9A88222B800C1B9CB
:1006B0000059BA002DEC8BF084CFCECDFCE5F0CB09
:1006C000F97818EF2FFFEE33FEED33FDEC33FCEB42
:1006D00033FB10D703994004EB99FB0FD8E5E4F9FD
:1006E000FA227818EF2FFFEE33FEED33FDEC33FCEA
:1006F000C933C910D7059BE99A4007EC9BFCE99ADE
:10070000F90FD8E0E4C9FAE4CCFB2275F010EF2F22
:10071000FFEE33FEED33FDCC33CCC833C810D70722
:100720009BEC9AE899400AED9BFDEC9AFCE899F85D
:0E0730000FD5F0DAE4CDFBE4CCFAE4C8F922F0
:10073E00EB9FF5F0EA9E42F0E99D42F0E89C45F011
:01074E002288
:10074F00E8600FECC313FCED13FDEE13FEEF13FF88
:03075F00D8F122AC
:10076200E8600FEFC333FFEE33FEED33FDEC33FCF5
:03077200D8F12299
:0C077500ECF0A3EDF0A3EEF0A3EFF022F7
:10078100A8828583F0D083D082120798120798122D
:100791000798120798E473E493A3C583C5F0C58352
:1007A100C8C582C8F0A3C583C5F0C583C8C582C8C2
:0107B1002225
:1007B200D083D082F8E4937012740193700DA3A3D6
:1007C20093F8740193F5828883E4737402936860EA
:0607D200EFA3A3A380DFEA
:10080A00E515244CF582E43401F583E005152290C0
:10081A00014930100390014CE475F0011207EA0215
:10082A00058D2009E97F2ED2098018EF540F2490F4
:10083A00D43440D4FF300D0BEF24BFB41A00500358
:10084A002461FFE516600215160519E519700205FF
:10085A001830100E900149E475F0011207EAEF0210
:10086A0007D802184A7403D2108003E4C210F5159F
:10087A00900149120801E4F516F518F519E5166014
:10088A00077F2012084D80F57517FFC20AC209C2F8
:10089A000BC20CC20EC20FC211120819FF700D3022
:1008AA0010057F0012085EAF19AE1822B4255FC288
:1008BA00D5C20D120819FF24D0B40A00501A75F0D7
:1008CA000A781630D50508B6FF0106C6A426F62012
:1008DA00D5047002D20C80D924CFB41A00EF500488
:1008EA00C2E5D20D020A5FD20A80C6D20980C0D2FE
:1008FA000B80BCD2D580BAD20E80B47F2012084DAC
:10090A00200B077401B5160040F112080AFF1208FD
:10091A004D020887D211D20F809512080AFB1208DD
:10092A000AFA12080AF94A4B700679307A0B7BFFE9
:10093A00200B2EE516602A7E008E82758300120532
:10094A00A660060EEE651770F0C2D5EBC0E0EAC0ED
:10095A00E0E9C0E0EE120AA6D0E0F9D0E0FAD0E071
:10096A00FB12058DFF60AAEBC0E0EAC0E0E9C0E037
:10097A0012084DD0E02401F9D0E03400FAD0E0FBAF
:10098A00E5170460DCD517D980877BFF7A0A79A23C
:10099A00D20B809C791080027908C20FC21180089C
:1009AA00D2D5790A8004790AC2D5E517047002F50E
:1009BA0017E4FAFDFEFF12080AFC7B08200A13124C
:1009CA00080AFD7B1030090A12080AFE12080AFFFB
:1009DA007B20EC3382D592D55013C3E43009069FAD
:1009EA00FFE49EFEE4200A039DFDE49CFCE4CBF8B0
:1009FA00C20AEC700CCFCECDCCE824F8F870F380A4
:100A0A0017C3EF33FFEE33FEED33FDEC33FCEB336C
:100A1A00FB994002FB0FD8E9EB300A05F8D0E0C495
:100A2A0048B20AC0E00AEC4D4E4F78207B0070C2F3
:100A3A00EAB5170040BCC0E0120AA8D0F0D0E02006
:100A4A000A04C4C0E0C4B20AC0F0120836D0F0D515
:100A5A00F0EB0208871207B2092453099E5808F5D9
:100A6A004C08F14209A24F09AA4409AA49090A43B2
:080A7A0009B0550994460994E6
:100A8200450994470B505008F92D08FD2E09202BDB
:100A9200090123091E200B392A08B9480000091848
:100AA2003F3F3F00790AA2D5200C14300E09B9103D
:100AB200020404B9080104A2D5200F025001042047
:100AC2000B68920BB516005034C0E07F20300C1931
:100AD2007F30A20B720F720E500F120AFFC20BC2AE
:100AE2000FC20EC2117F30800F300E03E9C0E01238
:100AF200084D300E03D0E0F9D0E0B516CC300E1719
:100B02007F30B9100C12084D7F58300D077F788066
:100B120003B9080312084D300B057F2D02084D7FE3
:100B2200202011F87F2B200FF322920B80CF286E0A
:100B3200756C6C2900D20A12080A300AF8C20A78C7
:100B42001630D50108F60208B92D5043495812084B
:100B52000A2403B405004001E4900B4B9312083EB3
:0D0B6200743A12083ED20C75160402099E6A
:1014070002181DE493A3F8E493A34003F68001F2C6
:1014170008DFF48029E493A3F85407240CC8C333E6
:10142700C4540F4420C8834004F456800146F6DFB5
:10143700E4800B0102040810204080901964E47EC8
:10144700019360BCA3FF543F30E509541FFEE493AA
:10145700A360010ECF54C025E060A840B8E493A371
:10146700FAE493A3F8E493A3C8C582C8CAC583CA9C
:10147700F0A3C8C582C8CAC583CADFE9DEE780BE54
:01196A00007C
:1007D800BB010689828A83F0225002F722BBFE0100
:0207E800F322FA
:1007EA00F8E0FBA3A3E0F925F0F0E5821582700298
:0707FA001583E0FA38F0223C
:09080100EBF0A3EAF0A3E9F022F8
:10184A00EFB40A07740D121855740A309811A89942
:10185A00B8130CC2983098FDA899C298B811F630FE
:07186A0099FDC299F59922D6
:00000001FF
