:100C100048554220302064657620696E0A004855A8
:100C200042203020646576206F75740A0048554272
:100C300020312064657620696E0A004855422031D3
:100C400020646576206F75740A005345545F504FD9
:100C50005254202025303258202025303258200090
:100C6000526573657420726F6F74206875622025F9
:100C700031642320706F72740A0044697361626C7E
:100C80006520726F6F74206875622025316423209F
:100C9000706F72742062656361757365206F662082
:100CA000646973636F6E6E6563740A0047657444AC
:100CB000657644657363723A200078253032582097
:100CC000000A0047657443666744657363723A209F
:100CD000005553422D4469736B2052656164790A53
:100CE000005553422D5072696E74205265616479CB
:100CF0000A004765744849445265706F72743A201F
:100D0000005553422D4B6579626F617264205265C4
:100D10006164790A005553422D4D6F7573652052F9
:100D2000656164790A004765744875624465736358
:100D3000723A20004578742D48554220506F7274E5
:100D40005F2531642320706F776572206F6E206598
:100D500072726F720A004578742D48554220506FA8
:100D600072745F253164232020636C656172206397
:100D70006F6E6E656374696F6E206572726F720A52
:100D800000496E6974526F6F7444657620457272C3
:100D9000203D20253032580A00456E756D416C6C3F
:100DA000526F6F744465760A00496E6974206465F9
:100DB0007620404578744875622D706F72745F2597
:100DC0003164200040526F6F745F2531640A005413
:100DD0006869732070726F6772616D20646F6E272F
:100DE0007420737570706F7274204C6576656C201A
:100DF00032204855420A00496E69744465764F6E48
:100E000048756220457272203D20253032580A0014
:100E1000456E756D487562506F72740A00466F7545
:100E20006E642066756C6C20737065656420646503
:100E300076696365206F6E20706F7274202531644F
:100E40000A00466F756E64206C6F7720737065655D
:100E50006420646576696365206F6E20706F7274BC
:100E6000202531640A00526573657420706F7274B6
:100E700020616E64207468656E20776169742069F2
:100E80006E0A00446576696365206F6E20706F722C
:100E900074202531642072656D6F7665640A0045A3
:100EA0006E756D416C6C487562506F72740A0045C6
:100EB0006E756D416C6C487562506F72742065720E
:100EC00072203D20253032580A00280029003000C9
:100ED000256300537461727420404368697049440B
:100EE0003D253032580A005761697420446576699F
:100EF000636520496E0A00456E756D416C6C526FDA
:100F00006F7444657620657272203D20253032581A
:100F10000A008006000100001200800600020000A6
:100F200004000005020000000000000900000000AD
:100F300000000201000000000000A00600290000DF
:100F4000090081060022000049002109000200007A
:100F50000100210A00000000000021090002000039
:020F600001008E
:0420B1004100B10039
:041FF2007FC87E0026
:101FF600EF4E601505A105A105A105A105A105A145
:0A20060005A1EF1F70EA1E80E7221B
:10207E00CDEFCDCCEECCED4C600E7FE87E03121F83
:09208E00F6ED1D70F11C80EE223C
:101EEE00EF75F006A424B2F582E43400F583E4F035
:101EFE00EF75F006A424B3F582E43400F583E4F024
:0C1F0E00EFB40104E4F5E522E4F5E42260
:10196F00E490005FF0E5DB30E3279000B2E0600524
:10197F00E5E420E03CE4FF121EEE9000B27401F0AB
:10198F007BFF7A0C79101205B390005F7415F0800D
:10199F00209000B2E0C394014017E4FF121EEE7BCB
:1019AF00FF7A0C791E1205B390005FE07003741676
:1019BF00F0E5DB30E7279000B8E06005E5E520E0D3
:1019CF003C7F01121EEE9000B87401F07BFF7A0C81
:1019DF00792D1205B390005F7415F080209000B838
:1019EF00E0C3940140177F01121EEE7BFF7A0C7942
:1019FF003B1205B390005FE070037416F090005F28
:021A0F00E0FFF6
:011A110022B2
:0C20A500EF547FFFE5E354804FF5E32289
:0E209700EF600753E2BF53D27F2243E24022A4
:101D8000CEEFCE9000887408F0E4FF1220A57F010A
:101D9000122097EEB40114E5E554FB4402F5E57F0B
:101DA0000F7E0012207E53E5FD8012E5E454FB44D3
:101DB00002F5E47F0F7E0012207E53E4FD7FFA7E61
:071DC00000121FF6C2D82239
:101A9E00EF75F006A424B2F582E43400F583E0C3BA
:101AAE0094015011EF75F006A424B2F582E43400CF
:101ABE00F5837401F0EF64017025E5DB30E745E551
:101ACE00E520E015E5DB30E6047F0080027F019023
:101ADE0000BAEFF0700343E50443E5017F0022E511
:101AEE00DB30E320E5E420E015E5DB30E2047F00A7
:101AFE0080027F019000B4EFF0700343E40443E4EE
:071B0E00017F00227F162277
:101BF700CEEFCEED6038EE75F014A42485F582E4BF
:101C07003400F58375F005ED121539E0FF1220A5B4
:101C1700EE75F014A42486F582E43400F58375F09C
:101C270005ED121539E0FF702843D2808023EE7549
:101C3700F006A424B3F582E43400F583E0FF122014
:101C4700A5EE75F006A424B4F582E43400F583E02C
:0E1C5700FF122097EE6003D38001C3920A2291
:10204A007FC87E0020D909EF1F70011EEF4E70F481
:09205A0030D9047F0080027FFEF2
:01206300225A
:0B16DC0090005CEFF0A3EAF0A3EBF03D
:1016E700CFEDCF8FD68FD4E4F5DD90005CE0F5D554
:1016F700C2D97FC87E0020D909EF1F70011EEF4EA7
:1017070070F4E4F5D520D9037FFE2230D832C2D851
:1017170012196FEFB41502D209A20AE4339000B28E
:1017270075F006121539E475F006A42583F583E0F4
:10173700FE70037F1622EEB401037F1522121FF2FB
:1017470030D96730DE037F0022E5D9540FFFB40E8E
:10175700028043EFB40A2990005DE0FCA3E0FD4C52
:101767007003EF803EC3ED94FFEC94FF500E9000A2
:101777005EE024FFF090005DE034FFF015DD802D82
:1017870090005CE0C4540F24F7600D24FC6004242F
:101797000C7014EF6017800BEFB40304640B600D3B
:1017A700EF600A4420FF227FFE2275D8FF7F0F7E5D
:1017B70000121FF605DDAFDDEFC3940350030216D9
:0317C700F17F208F
:0117CA0022FC
:0A119F007E017F007B017A00794B8E
:1011A900900057EEF0A3EFF0A3EBF0A3EAF0A3E968
:1011B900F0121FF2900059E0FBA3E0FAA3E0F9EA6C
:1011C900494B6004E412152775D7087B107A27E488
:1011D900FD7FD01216DC900054EFF06003E0FF228F
:1011E90075D6D075D4D075D701900107E060047F1A
:1011F900FF8005900106E0FF900055EFF0700302B3
:10120900139A900057E07002A3E0700302139A90BA
:101219000100E020E7030212C6900055E0700302C6
:1012290012C0121FF27B107A27ADD47F901216DC00
:10123900900054EFF0E0FF600122900055E0FFE5D7
:10124900D1C39F5007AED1CFEECF8000900056EFAB
:10125900F0900055E0FFA3E0FEC3EF9E900055F02B
:10126900900059E0FBA3E0FAA3E0F9EA494B6004D6
:10127900EE121505E4FF900056E06F602A74002F06
:10128900F582E43400F583E0FE900057E0FCA3E02A
:10129900F5828C83EEF0900058E004F0700690001F
:1012A90057E004F00F80CFE5D1600C900088E0147E
:1012B90055D17003021222E4F5D702139A90005512
:1012C900E0700302139A121FF2900088E0FF900069
:1012D90055E0FEC39F40028003CFEECF8FD7900029
:1012E90057E0FEA3E0FFF5828E83A3E0640970381E
:1012F9009000B1E0640160047D0180027D009000EE
:10130900B1EDF08F828E83F07BFF7A0C794AE0FF92
:10131900900063E4F0A3EFF09000B1E0FF90006566
:10132900E4F0A3EFF01205B3E4FFEF65D7602A906C
:101339000057E0FCA3E0F5828C83E0FE74002FF5F2
:1013490082E43401F583EEF0900058E004F0700671
:10135900900057E004F00F80D17B107A27ADD67F3B
:10136900101216DC900054EFF0E0FF6001229000AB
:1013790055E0C395D7F0900059E0FBA3E0FAA3E04C
:10138900F9EA494B70030212C6E5D7121505021294
:10139900C6121FF2E5D760047F9080027F107B1090
:1013A9007A277DC01216DC900054EFF06003E0FF4D
:0F13B90022E5D77002FF22E5D17002FF227F17D5
:0113C8002202
:101FD200E4FD8F828E83E493FC74002DF582E43459
:0F1FE20001F583ECF00FBF00010E0DEDB408E325
:011FF10022CD
:101E7E009000887408F07E0F7F12121FD27E017FB1
:101E8E00007B017A00794B1211A9EF6001229001BB
:101E9E0007E0900088F0900F18E493FF90004BE05D
:091EAE00C39F50037F17227F003F
:011EB7002208
:101B15007E0F7F1A121FD27E017F007B007A00792B
:101B2500081211A9EF600122900F20E493FEE50849
:101B3500C39E50037F1722900102E0F508E508D304
:101B4500944040037F17227E0F7F1A121FD2900107
:101B550006E508F07E017F007B007A007908121106
:101B6500A9EF600122900F20E493FFE508C39F4091
:101B75000A900102E0FFE5089F50037F17227F00CE
:011B8500223D
:051EB80090004BEFF06B
:101EBD007E0F7F22121FD290004BE0900102F07B2B
:101ECD00007A007900E4FFFE1211A9EF6001229063
:101EDD00004BE0FF1220A57F0A7E0012207E7F00BE
:011EED0022D2
:051FB100900048E0FF74
:101FB600CBEFCB7E0F7F2A121FD2900102EBF07B74
:0C1FC600007A007900E4FFFE1211A9224D
:1020640090004BEFF07E0F7F4A121FD27E007F4B11
:0A2074007B007A0079001211A92206
:10202E00CBEFCB7E0F7F32121FD2900104EBF07BF1
:0C203E00007A007900E4FFFE1211A922D4
:101D2900784C7C007D017BFF7A0F79527E007F0819
:101D3900121499E4FF744C2FF582E43400F583E022
:101D4900FE74002FF582E43401F583EEF00FEFB451
:101D590008E312119F7E0F7F42121FD212119FEFCB
:101D6900600122900F18E493FF90004BE0C39F504D
:061D7900037F17227F002A
:011D7F002241
:101F1A007E0F7F3A121FD27E017F007B007A007902
:101F2A00081211A9EF600122900F40E493FFE5081F
:091F3A00C39F50037F17227F00B2
:011F4300227B
:051E07009000D2E0FF95
:101E0C0090010074A3F0A3E4F0A3F0A3F0A3EFF00F
:101E1C00A3E4F0A37404F0A3E4F07E017F00FB7A4A
:101E2C0000790E1211A9EF600122E50EC394045043
:061E3C00037F17227F0066
:011E4200227D
:101F6B009001007423F0A37403F0A3EDF0A3E4F04D
:101F7B00A3EFF0A3E4F0A3F0A3F0FBFAF9FFFE123A
:031F8B0011A92277
:101F8E009001007423F0A37401F0A3EDF0A3E4F02C
:101F9E00A3EFF0A3E4F0A3F0A3F0FBFAF9FFFE1217
:031FAE0011A92254
:041CCA007E017F0018
:101CCE00E4F9FC8F828E83A3A3E0FBECC39B504709
:101CDE00EF2CF582E43EF583A3E064057025EF2C2E
:101CEE00F582E43EF583A3A3A3E05403FBBB0313E9
:101CFE00EF2CF582E43EF583A3A3E030E705540F05
:101D0E00F98014EF2CF582E43EF583E0FDD39410B8
:0A1D1E005005ED2CFC80ACCFE9CF9E
:011D28002298
:05000300900045EFF044
:100008007BFF7A0C7960900063E4F0A3EFF01205AF
:10001800B3900045E0FF121D80E4900046F0A3F085
:100028007F017E0012207E900045E0FF121A9EEFAD
:10003800700E900046F0A3E004F0E0D39464500CF6
:10004800900046E004F0E0C3946440D4900046E099
:100058006021900045E0FF121EEE7BFF7A0C797A52
:10006800900045E0FF900063E4F0A3EFF01205B3C1
:100078007F1622900045E0FFE4FD121BF77BFF7A14
:100088000C79AC1205B3121E7E900047EFF06003A6
:10009800020513900046F0900F18E493FF90004675
:1000A800E0FEC39F50257BFF7A0C79BA74002EF5C9
:1000B80082E43401F583E0FF900063E4F0A3EFF0FD
:1000C8001205B3900046E004F080CC7BFF7A0C79EF
:1000D800C11205B3900104E0900049F0900F24E4A8
:1000E80093FF900045E02FFF121EB8900047EFF0F5
:1000F8006003020513900F2493FF900045E0FE2F44
:10010800FFEE75F006A424B3F582E43400F583EF1E
:10011800F07BFF7A0C79C31205B3121B15900047C8
:10012800EFF06003020513900105E0900048F0E449
:10013800900046F0900102E0FF900046E0FEC39F69
:1001480050257BFF7A0C79BA74002EF582E43401CD
:10015800F583E0FF900063E4F0A3EFF01205B3909D
:100168000046E004F080CD7BFF7A0C79C11205B31C
:1001780090010EE090004AF0900049E07042A3E040
:100188006408703C121FB1900047EFF0600302054D
:1001980013900045E0FF75F006A424B2F582E4341C
:1001A80000F5837403F0EF75F006A424B5F582E436
:1001B8003400F5837408F07BFF7A0C79D1020313BD
:1001C800900049E0704AA3E06407704490010FE092
:1001D8006401703C121FB1900047EFF06003020504
:1001E80013900045E0FF75F006A424B2F582E434CC
:1001F80000F5837403F0EF75F006A424B5F582E4E6
:100208003400F5837407F07BFF7A0C79E10203135D
:10021800900049E06003020322A3E0640360030244
:10022800032290010FE0D394014003020322121C21
:10023800CA900047EFF0540FFF900045E075F006B4
:10024800A424B6F582E43400F583EFF0900110E0C1
:1002580090004AF0121FB1900047EFF060030205CA
:10026800137BFF7A0C79F21205B3121D299000470F
:10027800EFF0703C900046F0900046E0FFC39440D9
:1002880050257BFF7A0C79BA74002FF582E434018B
:10029800F583E0FF900063E4F0A3EFF01205B3905C
:1002A8000046E004F080D17BFF7A0C79C11205B3D7
:1002B800900045E0FF75F006A424B2F582E434000E
:1002C800F5837403F090004AE0B4011EEF75F00660
:1002D800A424B5F582E43400F5837423F07F011279
:1002E80020647BFF7A0D7901802190004AE0B402F6
:1002F80020900045E075F006A424B5F582E43400AA
:10030800F5837433F07BFF7A0D79151205B3020576
:100318000C90004774FBF0020513900049E0640953
:1003280060030204CF121CCA900047EFF0540FFF7D
:10033800900045E075F006A424B7F582E43400F592
:1003480083EFF07BFF7A0D79261205B3121F1A90FE
:100358000047EFF06003020513900046F09001009B
:10036800E0FF900046E0FEC39F50257BFF7A0C79A2
:10037800BA74002EF582E43401F583E0FF9000633F
:10038800E4F0A3EFF01205B3900046E004F080CD4E
:100398007BFF7A0C79C11205B3900102E0FF90004F
:1003A80045E0FE75F006A424B6F582E43400F58332
:1003B800EFF0EE75F006A424B6F582E43400F58378
:1003C800E0D394044011EE75F006A424B6F582E457
:1003D8003400F5837404F0121FB1900047EFF06009
:1003E80003020513900045E0FF75F006A424B2F55A
:1003F80082E43400F5837403F0EF75F006A424B5A5
:10040800F582E43400F5837409F09000467401F035
:10041800900045E0FF75F006A424B6F582E43400A8
:10042800F583E0FE900046E0D39E504DEF75F01442
:10043800A42484F582E43400F583C083C08290004C
:1004480046E0FFD082D08375F005121539E4F07DBF
:1004580008121F6B900047EFF060167BFF7A0D794A
:1004680034900046E0FF900063E4F0A3EFF012053B
:10047800B3900046E004F080979000467401F09035
:100488000045E075F006A424B6F582E43400F5834F
:10049800E0FE900046E0FFD39E502A7D10121F8E8A
:1004A800900047EFF060167BFF7A0D795690004672
:1004B800E0FF900063E4F0A3EFF01205B39000466C
:1004C800E004F080BA803D121FB1900047EFF07051
:1004D8003A900045E0FF75F006A424B2F582E434B2
:1004E80000F5837403F0900049E0FE6002800590F7
:1004F800004AE0FEEF75F006A424B2F582E4340069
:10050800F583EEF07F011220971F227BFF7A0D7989
:1005180081900047E0FF900063E4F0A3EFF012053C
:10052800B3900045E075F006A424B2F582E43400E7
:0F053800F5837402F07F01122097900047E0FFD7
:010547002291
:101E43007BFF7A0D79991205B3E4900044F090007A
:101E530044E0FF64026021EF75F006A424B2F5822A
:101E6300E43400F583E0B40107120003EF600122BC
:0A1E7300900044E004F080D67F00E8
:011E7D002242
:0808AD009000CAEFF0A3EDF08A
:1008B5007BFF7A0D79A9FF900063E4F0A3EFF012B6
:1008C50005B37BFF7A0D79C49000CAE0FF90006301
:1008D500E4F0A3EFF01205B39000CBE0FD70037FC9
:1008E500FE229000CAE0FF121BF77BFF7A0C79AC61
:1008F5001205B3121E7E9000CDEFF06003E0FF22DB
:10090500900104E09000CFF09000CAE004C454F0D8
:10091500FFA3E02FFF9000CEF0121EB89000CDEFA0
:10092500F06003E0FF229000CEE0FF9000CAE07582
:10093500F014A42485F582E43400F583C083C082D5
:100945009000CBE0D082D08375F005121539EFF019
:100955007BFF7A0C79C31205B3121B159000CDEFFE
:10096500F06003E0FF22900105E09000CEF0E490F6
:1009750000CCF0900102E0FF9000CCE0FEC39F5058
:10098500257BFF7A0C79BA74002EF582E43401F5E3
:1009950083E0FF900063E4F0A3EFF01205B390004D
:1009A500CCE004F080CD7BFF7A0C79C11205B390C1
:1009B500010EE09000D0F09000CFE07061A3E064FC
:1009C50008705B9000CEE0FF121FB69000CDEFF0EF
:1009D5006003020BC99000CAE0FF75F014A42484DB
:1009E500F582E43400F583C083C0829000CBE0FE3D
:1009F500D082D08375F0051215397403F0EF75F0C8
:100A050014A42487F582E43400F58375F005EE120D
:100A150015397408F07BFF7A0C79D1020B0B900025
:100A2500CFE06003020B13A3E064036003020B1322
:100A350090010FE0D394014003020B13121CCA90DE
:100A450000CDEFF09000CAE075F014A42488F5827B
:100A5500E43400F583C083C0829000CBE0D082D01F
:100A65008375F005121539EFF0900110E09000D074
:100A7500F09000CEE0FF121FB69000CDEFF06003BE
:100A8500020BC99000CAE0FF75F014A42484F58216
:100A9500E43400F583C083C0829000CBE0FED082B1
:100AA500D08375F0051215397403F09000D0E0B4C9
:100AB5000120EF75F014A42487F582E43400F58352
:100AC50075F005EE1215397423F07BFF7A0D790167
:100AD50080349000D0E0640270329000CAE075F076
:100AE50014A42487F582E43400F583C083C0829082
:100AF50000CBE0D082D08375F0051215397433F040
:100B05007BFF7A0D79151205B3020BC2804B90005D
:100B1500CFE06409704B9000CAE075F014A42487F7
:100B2500F582E43400F583C083C0829000CBE0D029
:100B350082D08375F0051215397409F07BFF7A0DA3
:100B450079CF1205B39000CCE0FF7D01121F8E9086
:100B550000CDEFF06003E0FF229000CD74FBF08044
:100B6500639000CEE0FF121FB69000CDEFF07054F9
:100B75009000CAE0FF75F014A42484F582E43400E3
:100B8500F583C083C0829000CBE0FED082D0837510
:100B9500F0051215397403F09000CFE0FD60028076
:100BA500059000D0E0FDEF75F014A42487F582E4EC
:100BB5003400F58375F005EE121539EDF07F01125D
:100BC50020971F227BFF7A0D79F79000CDE0FF90EB
:100BD5000063E4F0A3EFF01205B39000CAE075F0EE
:100BE50014A42484F582E43400F583C083C0829084
:100BF50000CBE0D082D08375F0051215397402F070
:0A0C05007F011220979000CDE0FF60
:010C0F0022C2
:050F62009000D1EFF04A
:100F67007BFF7A0E79101205B39000D27401F090CE
:100F770000D1E0FF75F006A424B6F582E43400F54D
:100F870083E0FE9000D2E0D39E400302119CE4FD73
:100F9700121BF7121E079000D3EFF06003E0FF2249
:100FA700900100E020E00302111F900102E020E021
:100FB7000302111F9000D1E0FE75F014A42484F5FC
:100FC70082E43400F583C083C0829000D2E0FFD072
:100FD70082D08375F0051215397401F0EE75F0149F
:100FE700A42485F582E43400F58375F005EF121526
:100FF70039E4F0121E0C9000D3EFF06003E0FF22FB
:10100700900101E030E1047F0080027F019000D170
:10101700E0FE75F014A42486F582E43400F583C05D
:1010270083C0829000D2E0FDD082D08375F0051294
:101037001539EFF0EE75F014A42486F582E4340038
:10104700F58375F005ED121539E07BFF60077A0E21
:10105700791DED80087A0E79429000D2E0FF90006A
:1010670063E4F0A3EFF01205B37FC87E0012207E81
:101077009000D2E0FF7D04121F6B9000D3EFF06069
:1010870003E0FF227BFF7A0E79661205B37F017EAC
:101097000012207E121E079000D3EFF06003E0FFDE
:1010A70022900100E020E4E57F647E0012207E901C
:1010B70000D2E0FF7D10121F8E9000D3EFF0600387
:1010C700E0FF22121E079000D3EFF06003E0FF223B
:1010D700900100E020E0259000D1E075F014A424F1
:1010E70084F582E43400F583C083C0829000D2E0A7
:1010F700D082D08375F005121539E4F09000D1E065
:10110700FFA3E0FD1208AD9000D3EFF06003E0FF0E
:10111700227F011220978074900100E020E06D90FB
:1011270000D1E075F014A42484F582E43400F5833B
:10113700C083C0829000D2E0FFD082D08375F005D3
:10114700121539E0C3940140117BFF7A0E79839021
:101157000063E4F0A3EFF01205B39000D1E075F05F
:1011670014A42484F582E43400F583C083C08290FC
:1011770000D2E0FFD082D08375F005121539E4F074
:10118700900102E030E0057D10121F8E9000D2E042
:0711970004F0020F767F0057
:01119E00222E
:101B86007BFF7A0E799F1205B3E49000D4F09000A3
:101B9600D4E0FF64026057EF75F006A424B2F58224
:101BA600E43400F583E0C39403403B9000D4E07531
:101BB600F006A424B5F582E43400F583E0640970E8
:101BC60025FD121BF79000D4E0FF120F62EF6011A3
:101BD6007BFF7A0E79AF900063E4F0A3EFF0120575
:101BE600B37F011220979000D4E004F080A07F001C
:011BF60022CC
:0517CB00900044EFF066
:1017D000E4A3F0900045E0FF640270030218B3EF49
:1017E00075F006A424B5F582E43400F583E0FD909D
:1017F0000044E0FFED6F701BA3E0FF75F006A4242A
:10180000B2F582E43400F583E0C394034005EF7F32
:1018100000FE22ED640960030218AA900045E075FD
:10182000F006A424B2F582E43400F583E0C3940307
:1018300040789000467401F0900045E0FF75F00696
:10184000A424B6F582E43400F583E0FE900046E07F
:10185000FDD39E5055EF75F014A42487F582E4342F
:1018600000F58375F005ED121539E0FF900044E0B6
:10187000FEEF6E702DA3E0FF75F014A42484F582B2
:10188000E43400F583C083C082900046E0D082D06B
:101890008375F005121539E0C394034005EFFEEDA2
:1018A000FF22900046E004F0808E900045E004F0B6
:0718B0000217D37EFF7FFF4A
:0118B700220E
:10201000C29FD29EC29DD29C438780E589540F44C3
:0E20200020F58953C95F758DF3D28ED29922B7
:101DC700C2EA75E280E4F5E39024477448F0902472
:101DD7004C7400F0A37400F090244E7401F0A374C7
:101DE70000F0E4F5D4F5D675E28975D24075D8FFD1
:0F1DF700FECFEECF121EEE0EEEB402F575E10335
:011E060022B9
:0B18B8009000BEEBF0A3EAF0A3E9F003
:1018C30078C17C007D017BFF7A0F795A7E007F0807
:1018D3001214999000BEE0FBA3E0FAA3E0F9900094
:1018E300011214D8FF1214BF4FFF9000031214D833
:1018F3004FFF9000041214D84FFF9000051214D824
:101903004FFF9000061214D84FFF9000071214D80F
:1019130070047E0180027E00EE4FFF9000BEE0FB6C
:10192300A3E0FAA3E0F99000021214D8B453047EA2
:101933000180027E00EE5F6030E4FF74C12FF58208
:10194300E43400F583E0FE74002FF582E43401F5FE
:1019530083EEF00FEFB408E37E017F007B017A0092
:0B19630079C91211A9EF6001227F007A
:01196E002256
:101C6500900002E0FF7004A3E06059900000E0B42A
:101C7500200CEFB426087BFF7A0E79CA80439000CA
:101C850000E0B4200F900002E0B427087BFF7A0E35
:101C950079CC802D900002E0B427087BFF7A0E797D
:101CA500CE801E900002E0FFC3941E4017EFD39430
:101CB500265011E02413FF7BFF7A0E79D090006344
:041CC500F01205B361
:011CC90022F8
:10158B0075A15575A1AA53B3E043B30C75A1FF1216
:10159B0020107BFF7A0E79D3AFA1900063E4F0A308
:1015AB00EFF01205B3121DC7C2097BFF7A0E79E764
:1015BB001205B3E4900041F030D80FC2D812196F66
:1015CB00900041EFF0BF1502D209200907900041AE
:1015DB00E0B41526C2097FC87E0012207E121E437E
:1015EB00900041EFF060137BFF7A0E79F7E0FF90EC
:1015FB000063E4F0A3EFF01205B37F231217CBCDFA
:10160B00EFCDCCEECCEDF47002ECF460A6ECFF90D9
:10161B000040F0CEEDCE900042EEF0121BF79000A2
:10162B0042E0FF9000406019E075F014A42488F5A7
:10163B0082E43400F58375F005EF121539E0FF8075
:10164B0010E075F006A424B6F582E43400F583E0CF
:10165B00FF900043EFF0540F606FE0FE547F449017
:10166B00FFEE30E7047DC080027D00E4FBFA12162A
:10167B00DC900041EFF07051900043E06480F090FB
:10168B000042E0FF601FA3E0FE900040E075F01405
:10169B00A42488F582E43400F58375F005EF121568
:1016AB0039EEF08018900043E0FF900040E075F0B9
:1016BB0006A424B6F582E43400F583EFF0900042E3
:1016CB00E5D1F0E06003121C657F01122097021533
:0116DB00BE50
:03000000021A12CF
:0C1A1200787FE4F6D8FD758121021A5996
:1013C900E709F608DFFA8046E709F208DFFA803E06
:1013D90088828C83E709F0A3DFFA8032E309F608F3
:1013E900DFFA8078E309F208DFFA807088828C835B
:1013F900E309F0A3DFFA806489828A83E0A3F6080F
:10140900DFFA805889828A83E0A3F208DFFA804CE8
:1014190080D280FA80C680D4806980F280338010BF
:1014290080A680EA809A80A880DA80E280CA803328
:1014390089828A83ECFAE493A3C8C582C8CCC583A0
:10144900CCF0A3C8C582C8CCC583CCDFE9DEE78070
:101459000D89828A83E493A3F608DFF9ECFAA9F0EF
:10146900EDFB2289828A83ECFAE0A3C8C582C8CC45
:10147900C583CCF0A3C8C582C8CCC583CCDFEADE5E
:10148900E880DB89828A83E493A3F208DFF980CCC0
:1014990088F0EF60010E4E60C388F0ED2402B404B9
:1014A9000050B9F582EB2402B4040050AF23234560
:0614B90082239014197358
:1014BF00BB010689828A83E0225002E722BBFE022B
:0914CF00E32289828A83E493225E
:1014D800BB010CE58229F582E5833AF583E02250C9
:1014E80006E92582F8E622BBFE06E92582F8E22213
:0D14F800E58229F582E5833AF583E493222D
:10150500BB010989828A83F8E028F022500327F776
:1015150022BBFE05F8E328F3228A838982F8E49347
:0215250028227A
:10152700BB010689828A83F0225002F722BBFE01A3
:02153700F3229D
:0C153900A42582F582E5F03583F58322BD
:10054800E5092463F582E43400F583E00509229087
:100558000060300703900063E475F001121545024E
:1005680014BF2000E97F2ED2008018EF540F24908A
:10057800D43440D4FF30040BEF24BFB41A00500326
:100588002461FFE50A6002150A050DE50D700205F4
:100598000C30070E900060E475F001121545EF026B
:1005A8001527021F447403D2078003E4C207F50924
:1005B80090006012155CE4F50AF50CF50DE50A608B
:1005C800077F2012058B80F5750BFFC201C200C2A0
:1005D80002C203C205C206C208120557FF700D30D9
:1005E80007057F0012059CAF0DAE0C22B4255FC233
:1005F800D5C204120557FF24D0B40A00501A75F06A
:100608000A780A30D50508B6FF0106C6A426F620E2
:10061800D5047002D20380D924CFB41A00EF500455
:10062800C2E5D20402079DD20180C6D20080C0D2A2
:100638000280BCD2D580BAD20580B47F2012058B47
:100648002002077401B50A0040F1120548FF12059F
:100658008B0205C5D208D2068095120548FB120503
:1006680048FA120548F94A4B7006796E7A087BFFFA
:1006780020022EE50A602A7E008E827583001214FD
:10068800D860060EEE650B70F0C2D5EBC0E0EAC08C
:10069800E0E9C0E0EE1207E4D0E0F9D0E0FAD0E0FB
:1006A800FB1214BFFF60AAEBC0E0EAC0E0E9C0E0BB
:1006B80012058BD0E02401F9D0E03400FAD0E0FB39
:1006C800E50B0460DCD50BD980877BFF7A0779E0DE
:1006D800D202809C791080027908C206C20880087C
:1006E800D2D5790A8004790AC2D5E50B047002F5DF
:1006F8000BE4FAFDFEFF120548FC7B0820011312EB
:100708000548FD7B1030000A120548FE120548FF17
:100718007B20EC3382D592D55013C3E43000069F7A
:10072800FFE49EFEE42001039DFDE49CFCE4CBF87D
:10073800C201EC700CCFCECDCCE824F8F870F38071
:1007480017C3EF33FFEE33FEED33FDEC33FCEB3331
:10075800FB994002FB0FD8E9EB300105F8D0E0C463
:1007680048B201C0E00AEC4D4E4F78207B0070C2C1
:10077800EAB50B0040BCC0E01207E6D0F0D0E0209C
:100788000104C4C0E0C4B201C0F0120574D0F0D5B1
:10079800F0EB0205C512156506625306DC580633F0
:1007A8004C062F4206E04F06E84406E8490648434F
:0807B80006EE5506D24606D2FA
:1007C0004506D247088E5006372D063B2E065E2B77
:1007D000063F23065C2008772A05F74800000656E6
:1007E0003F3F3F00790AA2D5200314300509B91014
:1007F000020404B9080104A2D52006025001042015
:1008000002689202B50A005034C0E07F203003191C
:100810007F30A20272067205500F12083DC202C25A
:1008200006C205C2087F30800F300503E9C0E01220
:10083000058B300503D0E0F9D0E0B50ACC300517C0
:100840007F30B9100C12058B7F583004077F7880F9
:1008500003B9080312058B3002057F2D02058B7F3B
:10086000202008F87F2B2006F322920280CF286EEA
:10087000756C6C2900D2011205483001F8C201786C
:100880000A30D50108F60205F72D504349581205E4
:10089000482403B405004001E49008899312057CC4
:0D08A000743A12057CD203750A040206DCCE
:101A1E0002158BE493A3F8E493A34003F68001F23E
:101A2E0008DFF48029E493A3F85407240CC8C333C9
:101A3E00C4540F4420C8834004F456800146F6DF98
:101A4E00E4800B01020408102040809020B1E47E57
:101A5E00019360BCA3FF543F30E509541FFEE4938D
:101A6E00A360010ECF54C025E060A840B8E493A354
:101A7E00FAE493A3F8E493A3C8C582C8CAC583CA7F
:101A8E00F0A3C8C582C8CAC583CADFE9DEE780BE37
:0120B500002A
:10154500F8E0FBA3A3E0F925F0F0E582158270022F
:071555001583E0FA38F022D3
:09155C00EBF0A3EAF0A3E9F02290
:10156500D083D082F8E4937012740193700DA3A315
:1015750093F8740193F5828883E473740293686029
:06158500EFA3A3A380DF29
:101F4400EFB40A07740D121F4F740A309811A89940
:101F5400B8130CC2983098FDA899C298B811F630FD
:071F640099FDC299F59922D5
:00000001FF
