:10005800EF7803C333CE33CED8F9FFEF4E600800F4
:08006800EF1F70F71E80F42267
:10000300E4F50BF50C43C20243C002F5087509C8B9
:10001300F50A20931143C0027F607EEA120058AABA
:1000230009A90A12007C050CE50C7002050B64C8D3
:10003300450B7004F50BF50CE50C450B700343C041
:1000430002E50C6464450B700353C0FD7FE87E0337
:0500530012005880BD01
:030000000200708B
:0C007000787FE4F6D8FD75810C020003D7
:06007C008A838982E4730F
:00000001FF
